{
	"voting.sol": {
		"VotingContract": {
			"abi": [
				{
					"inputs": [
						{
							"internalType": "uint8",
							"name": "_commision",
							"type": "uint8"
						}
					],
					"stateMutability": "nonpayable",
					"type": "constructor"
				},
				{
					"anonymous": false,
					"inputs": [
						{
							"indexed": true,
							"internalType": "uint256",
							"name": "votingId",
							"type": "uint256"
						},
						{
							"indexed": true,
							"internalType": "address",
							"name": "candidate",
							"type": "address"
						},
						{
							"indexed": false,
							"internalType": "bool",
							"name": "valid",
							"type": "bool"
						}
					],
					"name": "candidateInfo",
					"type": "event"
				},
				{
					"anonymous": false,
					"inputs": [
						{
							"indexed": true,
							"internalType": "uint256",
							"name": "votingId",
							"type": "uint256"
						}
					],
					"name": "votingCreated",
					"type": "event"
				},
				{
					"anonymous": false,
					"inputs": [
						{
							"indexed": true,
							"internalType": "uint256",
							"name": "votingId",
							"type": "uint256"
						},
						{
							"indexed": false,
							"internalType": "uint256",
							"name": "startTimeStamp",
							"type": "uint256"
						}
					],
					"name": "votingStarted",
					"type": "event"
				},
				{
					"inputs": [
						{
							"internalType": "uint256",
							"name": "_votingId",
							"type": "uint256"
						}
					],
					"name": "StartVoting",
					"outputs": [],
					"stateMutability": "nonpayable",
					"type": "function"
				},
				{
					"inputs": [
						{
							"internalType": "uint256",
							"name": "_votingId",
							"type": "uint256"
						}
					],
					"name": "WithdrowMyPrize",
					"outputs": [],
					"stateMutability": "nonpayable",
					"type": "function"
				},
				{
					"inputs": [
						{
							"internalType": "uint256",
							"name": "_votingId",
							"type": "uint256"
						},
						{
							"internalType": "address",
							"name": "_candidate",
							"type": "address"
						}
					],
					"name": "addCandidate",
					"outputs": [],
					"stateMutability": "nonpayable",
					"type": "function"
				},
				{
					"inputs": [
						{
							"internalType": "uint256",
							"name": "_period",
							"type": "uint256"
						},
						{
							"internalType": "address[]",
							"name": "_candidates",
							"type": "address[]"
						}
					],
					"name": "addVoting",
					"outputs": [],
					"stateMutability": "nonpayable",
					"type": "function"
				},
				{
					"inputs": [
						{
							"internalType": "uint256",
							"name": "_votingId",
							"type": "uint256"
						},
						{
							"internalType": "address",
							"name": "_candidate",
							"type": "address"
						}
					],
					"name": "checkCandidate",
					"outputs": [
						{
							"internalType": "bool",
							"name": "",
							"type": "bool"
						}
					],
					"stateMutability": "view",
					"type": "function"
				},
				{
					"inputs": [],
					"name": "commision",
					"outputs": [
						{
							"internalType": "uint8",
							"name": "",
							"type": "uint8"
						}
					],
					"stateMutability": "view",
					"type": "function"
				},
				{
					"inputs": [],
					"name": "counterVotings",
					"outputs": [
						{
							"internalType": "uint256",
							"name": "",
							"type": "uint256"
						}
					],
					"stateMutability": "view",
					"type": "function"
				},
				{
					"inputs": [
						{
							"internalType": "uint256",
							"name": "_votingId",
							"type": "uint256"
						},
						{
							"internalType": "address",
							"name": "_candidate",
							"type": "address"
						}
					],
					"name": "deleteCandidate",
					"outputs": [],
					"stateMutability": "nonpayable",
					"type": "function"
				},
				{
					"inputs": [
						{
							"internalType": "uint256",
							"name": "_votingId",
							"type": "uint256"
						},
						{
							"internalType": "uint256",
							"name": "_newPeriod",
							"type": "uint256"
						}
					],
					"name": "editVotingPeriod",
					"outputs": [],
					"stateMutability": "nonpayable",
					"type": "function"
				},
				{
					"inputs": [
						{
							"internalType": "uint256",
							"name": "_votingId",
							"type": "uint256"
						}
					],
					"name": "getVotingInfo",
					"outputs": [
						{
							"internalType": "bool",
							"name": "isActive",
							"type": "bool"
						},
						{
							"internalType": "address",
							"name": "winner",
							"type": "address"
						},
						{
							"internalType": "uint256",
							"name": "startTimeStamp",
							"type": "uint256"
						},
						{
							"internalType": "uint256",
							"name": "winnerBalanceAtVotingClose",
							"type": "uint256"
						},
						{
							"internalType": "uint256",
							"name": "bankBalance",
							"type": "uint256"
						}
					],
					"stateMutability": "view",
					"type": "function"
				},
				{
					"inputs": [
						{
							"internalType": "uint256",
							"name": "_votingId",
							"type": "uint256"
						},
						{
							"internalType": "address",
							"name": "_to",
							"type": "address"
						}
					],
					"name": "iAmVote",
					"outputs": [],
					"stateMutability": "payable",
					"type": "function"
				},
				{
					"inputs": [],
					"name": "maxCandidatesNum",
					"outputs": [
						{
							"internalType": "uint256",
							"name": "",
							"type": "uint256"
						}
					],
					"stateMutability": "view",
					"type": "function"
				},
				{
					"inputs": [],
					"name": "ownerContract",
					"outputs": [
						{
							"internalType": "address",
							"name": "",
							"type": "address"
						}
					],
					"stateMutability": "view",
					"type": "function"
				},
				{
					"inputs": [
						{
							"internalType": "uint256",
							"name": "_maxCandidatesNum",
							"type": "uint256"
						}
					],
					"name": "setMaxCandidatesNum",
					"outputs": [],
					"stateMutability": "nonpayable",
					"type": "function"
				},
				{
					"inputs": [
						{
							"internalType": "uint256",
							"name": "_votingId",
							"type": "uint256"
						}
					],
					"name": "startVoting",
					"outputs": [],
					"stateMutability": "nonpayable",
					"type": "function"
				}
			],
			"devdoc": {
				"kind": "dev",
				"methods": {},
				"title": "Основной контракт голосования *",
				"version": 1
			},
			"evm": {
				"assembly": "    /* \"voting.sol\":1103:8511  contract VotingContract {... */\n  mstore(0x40, 0xa0)\n    /* \"voting.sol\":2868:3007  constructor(uint8 _commision) {... */\n  callvalue\n  dup1\n  iszero\n  tag_1\n  jumpi\n  0x00\n  dup1\n  revert\ntag_1:\n  pop\n  mload(0x40)\n  sub(codesize, bytecodeSize)\n  dup1\n  bytecodeSize\n  dup4\n  codecopy\n  dup2\n  dup2\n  add\n  0x40\n  mstore\n  dup2\n  add\n  swap1\n  tag_2\n  swap2\n  swap1\n  tag_3\n  jump\t// in\ntag_2:\n    /* \"voting.sol\":2921:2931  _commision */\n  dup1\n    /* \"voting.sol\":2909:2931  commision = _commision */\n  0xff\n  and\n  0x80\n  dup2\n  0xff\n  and\n  dup2\n  mstore\n  pop\n  pop\n    /* \"voting.sol\":2958:2968  msg.sender */\n  caller\n    /* \"voting.sol\":2942:2955  ownerContract */\n  0x00\n  dup1\n    /* \"voting.sol\":2942:2968  ownerContract = msg.sender */\n  0x0100\n  exp\n  dup2\n  sload\n  dup2\n  0xffffffffffffffffffffffffffffffffffffffff\n  mul\n  not\n  and\n  swap1\n  dup4\n  0xffffffffffffffffffffffffffffffffffffffff\n  and\n  mul\n  or\n  swap1\n  sstore\n  pop\n    /* \"voting.sol\":2998:2999  5 */\n  0x05\n    /* \"voting.sol\":2979:2995  maxCandidatesNum */\n  0x01\n    /* \"voting.sol\":2979:2999  maxCandidatesNum = 5 */\n  dup2\n  swap1\n  sstore\n  pop\n    /* \"voting.sol\":2868:3007  constructor(uint8 _commision) {... */\n  pop\n    /* \"voting.sol\":1103:8511  contract VotingContract {... */\n  jump(tag_6)\n    /* \"#utility.yul\":88:205   */\ntag_8:\n    /* \"#utility.yul\":197:198   */\n  0x00\n    /* \"#utility.yul\":194:195   */\n  dup1\n    /* \"#utility.yul\":187:199   */\n  revert\n    /* \"#utility.yul\":334:420   */\ntag_10:\n    /* \"#utility.yul\":369:376   */\n  0x00\n    /* \"#utility.yul\":409:413   */\n  0xff\n    /* \"#utility.yul\":402:407   */\n  dup3\n    /* \"#utility.yul\":398:414   */\n  and\n    /* \"#utility.yul\":387:414   */\n  swap1\n  pop\n    /* \"#utility.yul\":334:420   */\n  swap2\n  swap1\n  pop\n  jump\t// out\n    /* \"#utility.yul\":426:544   */\ntag_11:\n    /* \"#utility.yul\":497:519   */\n  tag_19\n    /* \"#utility.yul\":513:518   */\n  dup2\n    /* \"#utility.yul\":497:519   */\n  tag_10\n  jump\t// in\ntag_19:\n    /* \"#utility.yul\":490:495   */\n  dup2\n    /* \"#utility.yul\":487:520   */\n  eq\n    /* \"#utility.yul\":477:538   */\n  tag_20\n  jumpi\n    /* \"#utility.yul\":534:535   */\n  0x00\n    /* \"#utility.yul\":531:532   */\n  dup1\n    /* \"#utility.yul\":524:536   */\n  revert\n    /* \"#utility.yul\":477:538   */\ntag_20:\n    /* \"#utility.yul\":426:544   */\n  pop\n  jump\t// out\n    /* \"#utility.yul\":550:689   */\ntag_12:\n    /* \"#utility.yul\":605:610   */\n  0x00\n    /* \"#utility.yul\":636:642   */\n  dup2\n    /* \"#utility.yul\":630:643   */\n  mload\n    /* \"#utility.yul\":621:643   */\n  swap1\n  pop\n    /* \"#utility.yul\":652:683   */\n  tag_22\n    /* \"#utility.yul\":677:682   */\n  dup2\n    /* \"#utility.yul\":652:683   */\n  tag_11\n  jump\t// in\ntag_22:\n    /* \"#utility.yul\":550:689   */\n  swap3\n  swap2\n  pop\n  pop\n  jump\t// out\n    /* \"#utility.yul\":695:1042   */\ntag_3:\n    /* \"#utility.yul\":763:769   */\n  0x00\n    /* \"#utility.yul\":812:814   */\n  0x20\n    /* \"#utility.yul\":800:809   */\n  dup3\n    /* \"#utility.yul\":791:798   */\n  dup5\n    /* \"#utility.yul\":787:810   */\n  sub\n    /* \"#utility.yul\":783:815   */\n  slt\n    /* \"#utility.yul\":780:899   */\n  iszero\n  tag_24\n  jumpi\n    /* \"#utility.yul\":818:897   */\n  tag_25\n  tag_8\n  jump\t// in\ntag_25:\n    /* \"#utility.yul\":780:899   */\ntag_24:\n    /* \"#utility.yul\":938:939   */\n  0x00\n    /* \"#utility.yul\":963:1025   */\n  tag_26\n    /* \"#utility.yul\":1017:1024   */\n  dup5\n    /* \"#utility.yul\":1008:1014   */\n  dup3\n    /* \"#utility.yul\":997:1006   */\n  dup6\n    /* \"#utility.yul\":993:1015   */\n  add\n    /* \"#utility.yul\":963:1025   */\n  tag_12\n  jump\t// in\ntag_26:\n    /* \"#utility.yul\":953:1025   */\n  swap2\n  pop\n    /* \"#utility.yul\":909:1035   */\n  pop\n    /* \"#utility.yul\":695:1042   */\n  swap3\n  swap2\n  pop\n  pop\n  jump\t// out\n    /* \"voting.sol\":1103:8511  contract VotingContract {... */\ntag_6:\n  mload(0x80)\n  codecopy(0x00, dataOffset(sub_0), dataSize(sub_0))\n  0x00\n  assignImmutable(\"0xd67d834462ca31eaef1f30157e31659f60355143b7441e6fc7d9eae1fa79f3f8\")\n  return(0x00, dataSize(sub_0))\nstop\n\nsub_0: assembly {\n        /* \"voting.sol\":1103:8511  contract VotingContract {... */\n      mstore(0x40, 0x80)\n      jumpi(tag_1, lt(calldatasize, 0x04))\n      shr(0xe0, calldataload(0x00))\n      dup1\n      0x7f74ac15\n      gt\n      tag_17\n      jumpi\n      dup1\n      0xb95edbf9\n      gt\n      tag_18\n      jumpi\n      dup1\n      0xb95edbf9\n      eq\n      tag_13\n      jumpi\n      dup1\n      0xd6e20a65\n      eq\n      tag_14\n      jumpi\n      dup1\n      0xdab9d0fa\n      eq\n      tag_15\n      jumpi\n      dup1\n      0xed742879\n      eq\n      tag_16\n      jumpi\n      jump(tag_1)\n    tag_18:\n      dup1\n      0x7f74ac15\n      eq\n      tag_9\n      jumpi\n      dup1\n      0x870f0d74\n      eq\n      tag_10\n      jumpi\n      dup1\n      0x8ab9b9d0\n      eq\n      tag_11\n      jumpi\n      dup1\n      0x99fafb32\n      eq\n      tag_12\n      jumpi\n      jump(tag_1)\n    tag_17:\n      dup1\n      0x248a0634\n      gt\n      tag_19\n      jumpi\n      dup1\n      0x248a0634\n      eq\n      tag_5\n      jumpi\n      dup1\n      0x33c57ccd\n      eq\n      tag_6\n      jumpi\n      dup1\n      0x3d2f5bda\n      eq\n      tag_7\n      jumpi\n      dup1\n      0x590e4e5a\n      eq\n      tag_8\n      jumpi\n      jump(tag_1)\n    tag_19:\n      dup1\n      0x0f84af30\n      eq\n      tag_2\n      jumpi\n      dup1\n      0x178b519b\n      eq\n      tag_3\n      jumpi\n      dup1\n      0x1ae57ce3\n      eq\n      tag_4\n      jumpi\n    tag_1:\n      0x00\n      dup1\n      revert\n        /* \"voting.sol\":1442:1471  uint256 public counterVotings */\n    tag_2:\n      callvalue\n      dup1\n      iszero\n      tag_20\n      jumpi\n      0x00\n      dup1\n      revert\n    tag_20:\n      pop\n      tag_21\n      tag_22\n      jump\t// in\n    tag_21:\n      mload(0x40)\n      tag_23\n      swap2\n      swap1\n      tag_24\n      jump\t// in\n    tag_23:\n      mload(0x40)\n      dup1\n      swap2\n      sub\n      swap1\n      return\n        /* \"voting.sol\":6251:6480  function editVotingPeriod(uint256 _votingId, uint256 _newPeriod) public onlyOwner... */\n    tag_3:\n      callvalue\n      dup1\n      iszero\n      tag_25\n      jumpi\n      0x00\n      dup1\n      revert\n    tag_25:\n      pop\n      tag_26\n      0x04\n      dup1\n      calldatasize\n      sub\n      dup2\n      add\n      swap1\n      tag_27\n      swap2\n      swap1\n      tag_28\n      jump\t// in\n    tag_27:\n      tag_29\n      jump\t// in\n    tag_26:\n      stop\n        /* \"voting.sol\":6558:6862  function deleteCandidate(uint256 _votingId, address _candidate) public onlyOwner... */\n    tag_4:\n      callvalue\n      dup1\n      iszero\n      tag_30\n      jumpi\n      0x00\n      dup1\n      revert\n    tag_30:\n      pop\n      tag_31\n      0x04\n      dup1\n      calldatasize\n      sub\n      dup2\n      add\n      swap1\n      tag_32\n      swap2\n      swap1\n      tag_33\n      jump\t// in\n    tag_32:\n      tag_34\n      jump\t// in\n    tag_31:\n      stop\n        /* \"voting.sol\":4533:5037  function getVotingInfo(uint256 _votingId) public view returns (... */\n    tag_5:\n      callvalue\n      dup1\n      iszero\n      tag_35\n      jumpi\n      0x00\n      dup1\n      revert\n    tag_35:\n      pop\n      tag_36\n      0x04\n      dup1\n      calldatasize\n      sub\n      dup2\n      add\n      swap1\n      tag_37\n      swap2\n      swap1\n      tag_38\n      jump\t// in\n    tag_37:\n      tag_39\n      jump\t// in\n    tag_36:\n      mload(0x40)\n      tag_40\n      swap6\n      swap5\n      swap4\n      swap3\n      swap2\n      swap1\n      tag_41\n      jump\t// in\n    tag_40:\n      mload(0x40)\n      dup1\n      swap2\n      sub\n      swap1\n      return\n        /* \"voting.sol\":5117:5413  function addCandidate(uint256 _votingId, address _candidate) public onlyOwner {... */\n    tag_6:\n      callvalue\n      dup1\n      iszero\n      tag_42\n      jumpi\n      0x00\n      dup1\n      revert\n    tag_42:\n      pop\n      tag_43\n      0x04\n      dup1\n      calldatasize\n      sub\n      dup2\n      add\n      swap1\n      tag_44\n      swap2\n      swap1\n      tag_33\n      jump\t// in\n    tag_44:\n      tag_45\n      jump\t// in\n    tag_43:\n      stop\n        /* \"voting.sol\":5953:6182  function startVoting(uint256 _votingId) public onlyOwner {... */\n    tag_7:\n      callvalue\n      dup1\n      iszero\n      tag_46\n      jumpi\n      0x00\n      dup1\n      revert\n    tag_46:\n      pop\n      tag_47\n      0x04\n      dup1\n      calldatasize\n      sub\n      dup2\n      add\n      swap1\n      tag_48\n      swap2\n      swap1\n      tag_38\n      jump\t// in\n    tag_48:\n      tag_49\n      jump\t// in\n    tag_47:\n      stop\n        /* \"voting.sol\":7126:8041  function WithdrowMyPrize(uint256 _votingId) public {... */\n    tag_8:\n      callvalue\n      dup1\n      iszero\n      tag_50\n      jumpi\n      0x00\n      dup1\n      revert\n    tag_50:\n      pop\n      tag_51\n      0x04\n      dup1\n      calldatasize\n      sub\n      dup2\n      add\n      swap1\n      tag_52\n      swap2\n      swap1\n      tag_38\n      jump\t// in\n    tag_52:\n      tag_53\n      jump\t// in\n    tag_51:\n      stop\n        /* \"voting.sol\":1209:1237  address public ownerContract */\n    tag_9:\n      callvalue\n      dup1\n      iszero\n      tag_54\n      jumpi\n      0x00\n      dup1\n      revert\n    tag_54:\n      pop\n      tag_55\n      tag_56\n      jump\t// in\n    tag_55:\n      mload(0x40)\n      tag_57\n      swap2\n      swap1\n      tag_58\n      jump\t// in\n    tag_57:\n      mload(0x40)\n      dup1\n      swap2\n      sub\n      swap1\n      return\n        /* \"voting.sol\":1321:1352  uint256 public maxCandidatesNum */\n    tag_10:\n      callvalue\n      dup1\n      iszero\n      tag_59\n      jumpi\n      0x00\n      dup1\n      revert\n    tag_59:\n      pop\n      tag_60\n      tag_61\n      jump\t// in\n    tag_60:\n      mload(0x40)\n      tag_62\n      swap2\n      swap1\n      tag_24\n      jump\t// in\n    tag_62:\n      mload(0x40)\n      dup1\n      swap2\n      sub\n      swap1\n      return\n        /* \"voting.sol\":4254:4451  function checkCandidate(uint256 _votingId, address _candidate)... */\n    tag_11:\n      callvalue\n      dup1\n      iszero\n      tag_63\n      jumpi\n      0x00\n      dup1\n      revert\n    tag_63:\n      pop\n      tag_64\n      0x04\n      dup1\n      calldatasize\n      sub\n      dup2\n      add\n      swap1\n      tag_65\n      swap2\n      swap1\n      tag_33\n      jump\t// in\n    tag_65:\n      tag_66\n      jump\t// in\n    tag_64:\n      mload(0x40)\n      tag_67\n      swap2\n      swap1\n      tag_68\n      jump\t// in\n    tag_67:\n      mload(0x40)\n      dup1\n      swap2\n      sub\n      swap1\n      return\n        /* \"voting.sol\":3886:4122  function StartVoting(uint256 _votingId) public onlyOwner... */\n    tag_12:\n      callvalue\n      dup1\n      iszero\n      tag_69\n      jumpi\n      0x00\n      dup1\n      revert\n    tag_69:\n      pop\n      tag_70\n      0x04\n      dup1\n      calldatasize\n      sub\n      dup2\n      add\n      swap1\n      tag_71\n      swap2\n      swap1\n      tag_38\n      jump\t// in\n    tag_71:\n      tag_72\n      jump\t// in\n    tag_70:\n      stop\n        /* \"voting.sol\":2827:2859  uint8 public immutable commision */\n    tag_13:\n      callvalue\n      dup1\n      iszero\n      tag_73\n      jumpi\n      0x00\n      dup1\n      revert\n    tag_73:\n      pop\n      tag_74\n      tag_75\n      jump\t// in\n    tag_74:\n      mload(0x40)\n      tag_76\n      swap2\n      swap1\n      tag_77\n      jump\t// in\n    tag_76:\n      mload(0x40)\n      dup1\n      swap2\n      sub\n      swap1\n      return\n        /* \"voting.sol\":5467:5903  function addVoting(uint256 _period, address[] calldata _candidates) public onlyOwner... */\n    tag_14:\n      callvalue\n      dup1\n      iszero\n      tag_78\n      jumpi\n      0x00\n      dup1\n      revert\n    tag_78:\n      pop\n      tag_79\n      0x04\n      dup1\n      calldatasize\n      sub\n      dup2\n      add\n      swap1\n      tag_80\n      swap2\n      swap1\n      tag_81\n      jump\t// in\n    tag_80:\n      tag_82\n      jump\t// in\n    tag_79:\n      stop\n        /* \"voting.sol\":6956:7084  function setMaxCandidatesNum(uint256 _maxCandidatesNum) public onlyOwner {... */\n    tag_15:\n      callvalue\n      dup1\n      iszero\n      tag_83\n      jumpi\n      0x00\n      dup1\n      revert\n    tag_83:\n      pop\n      tag_84\n      0x04\n      dup1\n      calldatasize\n      sub\n      dup2\n      add\n      swap1\n      tag_85\n      swap2\n      swap1\n      tag_38\n      jump\t// in\n    tag_85:\n      tag_86\n      jump\t// in\n    tag_84:\n      stop\n        /* \"voting.sol\":3074:3817  function iAmVote(uint256 _votingId, address _to) public payable {... */\n    tag_16:\n      tag_87\n      0x04\n      dup1\n      calldatasize\n      sub\n      dup2\n      add\n      swap1\n      tag_88\n      swap2\n      swap1\n      tag_33\n      jump\t// in\n    tag_88:\n      tag_89\n      jump\t// in\n    tag_87:\n      stop\n        /* \"voting.sol\":1442:1471  uint256 public counterVotings */\n    tag_22:\n      sload(0x02)\n      dup2\n      jump\t// out\n        /* \"voting.sol\":6251:6480  function editVotingPeriod(uint256 _votingId, uint256 _newPeriod) public onlyOwner... */\n    tag_29:\n        /* \"voting.sol\":8183:8196  ownerContract */\n      0x00\n      dup1\n      sload\n      swap1\n      0x0100\n      exp\n      swap1\n      div\n      0xffffffffffffffffffffffffffffffffffffffff\n      and\n        /* \"voting.sol\":8169:8196  msg.sender == ownerContract */\n      0xffffffffffffffffffffffffffffffffffffffff\n      and\n        /* \"voting.sol\":8169:8179  msg.sender */\n      caller\n        /* \"voting.sol\":8169:8196  msg.sender == ownerContract */\n      0xffffffffffffffffffffffffffffffffffffffff\n      and\n      eq\n        /* \"voting.sol\":8147:8267  require(... */\n      tag_91\n      jumpi\n      mload(0x40)\n      0x08c379a000000000000000000000000000000000000000000000000000000000\n      dup2\n      mstore\n      0x04\n      add\n      tag_92\n      swap1\n      tag_93\n      jump\t// in\n    tag_92:\n      mload(0x40)\n      dup1\n      swap2\n      sub\n      swap1\n      revert\n    tag_91:\n        /* \"voting.sol\":6388:6393  false */\n      0x00\n        /* \"voting.sol\":6357:6393  votings[_votingId].isActive == false */\n      iszero\n      iszero\n        /* \"voting.sol\":6357:6364  votings */\n      0x03\n        /* \"voting.sol\":6357:6375  votings[_votingId] */\n      0x00\n        /* \"voting.sol\":6365:6374  _votingId */\n      dup5\n        /* \"voting.sol\":6357:6375  votings[_votingId] */\n      dup2\n      mstore\n      0x20\n      add\n      swap1\n      dup2\n      mstore\n      0x20\n      add\n      0x00\n      keccak256\n        /* \"voting.sol\":6357:6384  votings[_votingId].isActive */\n      0x00\n      add\n      0x00\n      swap1\n      sload\n      swap1\n      0x0100\n      exp\n      swap1\n      div\n      0xff\n      and\n        /* \"voting.sol\":6357:6393  votings[_votingId].isActive == false */\n      iszero\n      iszero\n      eq\n        /* \"voting.sol\":6349:6423  require(votings[_votingId].isActive == false, \"Voting has already begun!\") */\n      tag_95\n      jumpi\n      mload(0x40)\n      0x08c379a000000000000000000000000000000000000000000000000000000000\n      dup2\n      mstore\n      0x04\n      add\n      tag_96\n      swap1\n      tag_97\n      jump\t// in\n    tag_96:\n      mload(0x40)\n      dup1\n      swap2\n      sub\n      swap1\n      revert\n    tag_95:\n        /* \"voting.sol\":6462:6472  _newPeriod */\n      dup1\n        /* \"voting.sol\":6434:6441  votings */\n      0x03\n        /* \"voting.sol\":6434:6452  votings[_votingId] */\n      0x00\n        /* \"voting.sol\":6442:6451  _votingId */\n      dup5\n        /* \"voting.sol\":6434:6452  votings[_votingId] */\n      dup2\n      mstore\n      0x20\n      add\n      swap1\n      dup2\n      mstore\n      0x20\n      add\n      0x00\n      keccak256\n        /* \"voting.sol\":6434:6459  votings[_votingId].period */\n      0x02\n      add\n        /* \"voting.sol\":6434:6472  votings[_votingId].period = _newPeriod */\n      dup2\n      swap1\n      sstore\n      pop\n        /* \"voting.sol\":6251:6480  function editVotingPeriod(uint256 _votingId, uint256 _newPeriod) public onlyOwner... */\n      pop\n      pop\n      jump\t// out\n        /* \"voting.sol\":6558:6862  function deleteCandidate(uint256 _votingId, address _candidate) public onlyOwner... */\n    tag_34:\n        /* \"voting.sol\":8183:8196  ownerContract */\n      0x00\n      dup1\n      sload\n      swap1\n      0x0100\n      exp\n      swap1\n      div\n      0xffffffffffffffffffffffffffffffffffffffff\n      and\n        /* \"voting.sol\":8169:8196  msg.sender == ownerContract */\n      0xffffffffffffffffffffffffffffffffffffffff\n      and\n        /* \"voting.sol\":8169:8179  msg.sender */\n      caller\n        /* \"voting.sol\":8169:8196  msg.sender == ownerContract */\n      0xffffffffffffffffffffffffffffffffffffffff\n      and\n      eq\n        /* \"voting.sol\":8147:8267  require(... */\n      tag_99\n      jumpi\n      mload(0x40)\n      0x08c379a000000000000000000000000000000000000000000000000000000000\n      dup2\n      mstore\n      0x04\n      add\n      tag_100\n      swap1\n      tag_93\n      jump\t// in\n    tag_100:\n      mload(0x40)\n      dup1\n      swap2\n      sub\n      swap1\n      revert\n    tag_99:\n        /* \"voting.sol\":6694:6699  false */\n      0x00\n        /* \"voting.sol\":6663:6699  votings[_votingId].isActive == false */\n      iszero\n      iszero\n        /* \"voting.sol\":6663:6670  votings */\n      0x03\n        /* \"voting.sol\":6663:6681  votings[_votingId] */\n      0x00\n        /* \"voting.sol\":6671:6680  _votingId */\n      dup5\n        /* \"voting.sol\":6663:6681  votings[_votingId] */\n      dup2\n      mstore\n      0x20\n      add\n      swap1\n      dup2\n      mstore\n      0x20\n      add\n      0x00\n      keccak256\n        /* \"voting.sol\":6663:6690  votings[_votingId].isActive */\n      0x00\n      add\n      0x00\n      swap1\n      sload\n      swap1\n      0x0100\n      exp\n      swap1\n      div\n      0xff\n      and\n        /* \"voting.sol\":6663:6699  votings[_votingId].isActive == false */\n      iszero\n      iszero\n      eq\n        /* \"voting.sol\":6655:6729  require(votings[_votingId].isActive == false, \"Voting has already begun!\") */\n      tag_102\n      jumpi\n      mload(0x40)\n      0x08c379a000000000000000000000000000000000000000000000000000000000\n      dup2\n      mstore\n      0x04\n      add\n      tag_103\n      swap1\n      tag_97\n      jump\t// in\n    tag_103:\n      mload(0x40)\n      dup1\n      swap2\n      sub\n      swap1\n      revert\n    tag_102:\n        /* \"voting.sol\":6790:6795  false */\n      0x00\n        /* \"voting.sol\":6740:6747  votings */\n      0x03\n        /* \"voting.sol\":6740:6758  votings[_votingId] */\n      0x00\n        /* \"voting.sol\":6748:6757  _votingId */\n      dup5\n        /* \"voting.sol\":6740:6758  votings[_votingId] */\n      dup2\n      mstore\n      0x20\n      add\n      swap1\n      dup2\n      mstore\n      0x20\n      add\n      0x00\n      keccak256\n        /* \"voting.sol\":6740:6769  votings[_votingId].candidates */\n      0x05\n      add\n        /* \"voting.sol\":6740:6781  votings[_votingId].candidates[_candidate] */\n      0x00\n        /* \"voting.sol\":6770:6780  _candidate */\n      dup4\n        /* \"voting.sol\":6740:6781  votings[_votingId].candidates[_candidate] */\n      0xffffffffffffffffffffffffffffffffffffffff\n      and\n      0xffffffffffffffffffffffffffffffffffffffff\n      and\n      dup2\n      mstore\n      0x20\n      add\n      swap1\n      dup2\n      mstore\n      0x20\n      add\n      0x00\n      keccak256\n        /* \"voting.sol\":6740:6787  votings[_votingId].candidates[_candidate].valid */\n      0x00\n      add\n      0x00\n        /* \"voting.sol\":6740:6795  votings[_votingId].candidates[_candidate].valid = false */\n      0x0100\n      exp\n      dup2\n      sload\n      dup2\n      0xff\n      mul\n      not\n      and\n      swap1\n      dup4\n      iszero\n      iszero\n      mul\n      or\n      swap1\n      sstore\n      pop\n        /* \"voting.sol\":6836:6846  _candidate */\n      dup1\n        /* \"voting.sol\":6811:6854  candidateInfo(_votingId, _candidate, false) */\n      0xffffffffffffffffffffffffffffffffffffffff\n      and\n        /* \"voting.sol\":6825:6834  _votingId */\n      dup3\n        /* \"voting.sol\":6811:6854  candidateInfo(_votingId, _candidate, false) */\n      0x0d7a9ec927774dd3a7db78abe1a8634c4e4509290232ebe5bcd8e656d6946433\n        /* \"voting.sol\":6848:6853  false */\n      0x00\n        /* \"voting.sol\":6811:6854  candidateInfo(_votingId, _candidate, false) */\n      mload(0x40)\n      tag_104\n      swap2\n      swap1\n      tag_68\n      jump\t// in\n    tag_104:\n      mload(0x40)\n      dup1\n      swap2\n      sub\n      swap1\n      log3\n        /* \"voting.sol\":6558:6862  function deleteCandidate(uint256 _votingId, address _candidate) public onlyOwner... */\n      pop\n      pop\n      jump\t// out\n        /* \"voting.sol\":4533:5037  function getVotingInfo(uint256 _votingId) public view returns (... */\n    tag_39:\n        /* \"voting.sol\":4606:4619  bool isActive */\n      0x00\n        /* \"voting.sol\":4630:4644  address winner */\n      dup1\n        /* \"voting.sol\":4655:4677  uint256 startTimeStamp */\n      0x00\n        /* \"voting.sol\":4688:4722  uint256 winnerBalanceAtVotingClose */\n      dup1\n        /* \"voting.sol\":4733:4752  uint256 bankBalance */\n      0x00\n        /* \"voting.sol\":4798:4805  votings */\n      0x03\n        /* \"voting.sol\":4798:4816  votings[_votingId] */\n      0x00\n        /* \"voting.sol\":4806:4815  _votingId */\n      dup8\n        /* \"voting.sol\":4798:4816  votings[_votingId] */\n      dup2\n      mstore\n      0x20\n      add\n      swap1\n      dup2\n      mstore\n      0x20\n      add\n      0x00\n      keccak256\n        /* \"voting.sol\":4798:4825  votings[_votingId].isActive */\n      0x00\n      add\n      0x00\n      swap1\n      sload\n      swap1\n      0x0100\n      exp\n      swap1\n      div\n      0xff\n      and\n        /* \"voting.sol\":4840:4847  votings */\n      0x03\n        /* \"voting.sol\":4840:4858  votings[_votingId] */\n      0x00\n        /* \"voting.sol\":4848:4857  _votingId */\n      dup9\n        /* \"voting.sol\":4840:4858  votings[_votingId] */\n      dup2\n      mstore\n      0x20\n      add\n      swap1\n      dup2\n      mstore\n      0x20\n      add\n      0x00\n      keccak256\n        /* \"voting.sol\":4840:4865  votings[_votingId].winner */\n      0x00\n      add\n      0x01\n      swap1\n      sload\n      swap1\n      0x0100\n      exp\n      swap1\n      div\n      0xffffffffffffffffffffffffffffffffffffffff\n      and\n        /* \"voting.sol\":4880:4887  votings */\n      0x03\n        /* \"voting.sol\":4880:4898  votings[_votingId] */\n      0x00\n        /* \"voting.sol\":4888:4897  _votingId */\n      dup10\n        /* \"voting.sol\":4880:4898  votings[_votingId] */\n      dup2\n      mstore\n      0x20\n      add\n      swap1\n      dup2\n      mstore\n      0x20\n      add\n      0x00\n      keccak256\n        /* \"voting.sol\":4880:4913  votings[_votingId].startTimeStamp */\n      0x01\n      add\n      sload\n        /* \"voting.sol\":4928:4935  votings */\n      0x03\n        /* \"voting.sol\":4928:4946  votings[_votingId] */\n      0x00\n        /* \"voting.sol\":4936:4945  _votingId */\n      dup11\n        /* \"voting.sol\":4928:4946  votings[_votingId] */\n      dup2\n      mstore\n      0x20\n      add\n      swap1\n      dup2\n      mstore\n      0x20\n      add\n      0x00\n      keccak256\n        /* \"voting.sol\":4928:4973  votings[_votingId].winnerBalanceAtVotingClose */\n      0x03\n      add\n      sload\n        /* \"voting.sol\":4988:4995  votings */\n      0x03\n        /* \"voting.sol\":4988:5006  votings[_votingId] */\n      0x00\n        /* \"voting.sol\":4996:5005  _votingId */\n      dup12\n        /* \"voting.sol\":4988:5006  votings[_votingId] */\n      dup2\n      mstore\n      0x20\n      add\n      swap1\n      dup2\n      mstore\n      0x20\n      add\n      0x00\n      keccak256\n        /* \"voting.sol\":4988:5018  votings[_votingId].bankBalance */\n      0x04\n      add\n      sload\n        /* \"voting.sol\":4776:5029  return (... */\n      swap5\n      pop\n      swap5\n      pop\n      swap5\n      pop\n      swap5\n      pop\n      swap5\n      pop\n        /* \"voting.sol\":4533:5037  function getVotingInfo(uint256 _votingId) public view returns (... */\n      swap2\n      swap4\n      swap6\n      swap1\n      swap3\n      swap5\n      pop\n      jump\t// out\n        /* \"voting.sol\":5117:5413  function addCandidate(uint256 _votingId, address _candidate) public onlyOwner {... */\n    tag_45:\n        /* \"voting.sol\":8183:8196  ownerContract */\n      0x00\n      dup1\n      sload\n      swap1\n      0x0100\n      exp\n      swap1\n      div\n      0xffffffffffffffffffffffffffffffffffffffff\n      and\n        /* \"voting.sol\":8169:8196  msg.sender == ownerContract */\n      0xffffffffffffffffffffffffffffffffffffffff\n      and\n        /* \"voting.sol\":8169:8179  msg.sender */\n      caller\n        /* \"voting.sol\":8169:8196  msg.sender == ownerContract */\n      0xffffffffffffffffffffffffffffffffffffffff\n      and\n      eq\n        /* \"voting.sol\":8147:8267  require(... */\n      tag_107\n      jumpi\n      mload(0x40)\n      0x08c379a000000000000000000000000000000000000000000000000000000000\n      dup2\n      mstore\n      0x04\n      add\n      tag_108\n      swap1\n      tag_93\n      jump\t// in\n    tag_108:\n      mload(0x40)\n      dup1\n      swap2\n      sub\n      swap1\n      revert\n    tag_107:\n        /* \"voting.sol\":5245:5250  false */\n      0x00\n        /* \"voting.sol\":5214:5250  votings[_votingId].isActive == false */\n      iszero\n      iszero\n        /* \"voting.sol\":5214:5221  votings */\n      0x03\n        /* \"voting.sol\":5214:5232  votings[_votingId] */\n      0x00\n        /* \"voting.sol\":5222:5231  _votingId */\n      dup5\n        /* \"voting.sol\":5214:5232  votings[_votingId] */\n      dup2\n      mstore\n      0x20\n      add\n      swap1\n      dup2\n      mstore\n      0x20\n      add\n      0x00\n      keccak256\n        /* \"voting.sol\":5214:5241  votings[_votingId].isActive */\n      0x00\n      add\n      0x00\n      swap1\n      sload\n      swap1\n      0x0100\n      exp\n      swap1\n      div\n      0xff\n      and\n        /* \"voting.sol\":5214:5250  votings[_votingId].isActive == false */\n      iszero\n      iszero\n      eq\n        /* \"voting.sol\":5206:5280  require(votings[_votingId].isActive == false, \"Voting has already begun!\") */\n      tag_110\n      jumpi\n      mload(0x40)\n      0x08c379a000000000000000000000000000000000000000000000000000000000\n      dup2\n      mstore\n      0x04\n      add\n      tag_111\n      swap1\n      tag_97\n      jump\t// in\n    tag_111:\n      mload(0x40)\n      dup1\n      swap2\n      sub\n      swap1\n      revert\n    tag_110:\n        /* \"voting.sol\":5341:5345  true */\n      0x01\n        /* \"voting.sol\":5291:5298  votings */\n      0x03\n        /* \"voting.sol\":5291:5309  votings[_votingId] */\n      0x00\n        /* \"voting.sol\":5299:5308  _votingId */\n      dup5\n        /* \"voting.sol\":5291:5309  votings[_votingId] */\n      dup2\n      mstore\n      0x20\n      add\n      swap1\n      dup2\n      mstore\n      0x20\n      add\n      0x00\n      keccak256\n        /* \"voting.sol\":5291:5320  votings[_votingId].candidates */\n      0x05\n      add\n        /* \"voting.sol\":5291:5332  votings[_votingId].candidates[_candidate] */\n      0x00\n        /* \"voting.sol\":5321:5331  _candidate */\n      dup4\n        /* \"voting.sol\":5291:5332  votings[_votingId].candidates[_candidate] */\n      0xffffffffffffffffffffffffffffffffffffffff\n      and\n      0xffffffffffffffffffffffffffffffffffffffff\n      and\n      dup2\n      mstore\n      0x20\n      add\n      swap1\n      dup2\n      mstore\n      0x20\n      add\n      0x00\n      keccak256\n        /* \"voting.sol\":5291:5338  votings[_votingId].candidates[_candidate].valid */\n      0x00\n      add\n      0x00\n        /* \"voting.sol\":5291:5345  votings[_votingId].candidates[_candidate].valid = true */\n      0x0100\n      exp\n      dup2\n      sload\n      dup2\n      0xff\n      mul\n      not\n      and\n      swap1\n      dup4\n      iszero\n      iszero\n      mul\n      or\n      swap1\n      sstore\n      pop\n        /* \"voting.sol\":5388:5398  _candidate */\n      dup1\n        /* \"voting.sol\":5363:5405  candidateInfo(_votingId, _candidate, true) */\n      0xffffffffffffffffffffffffffffffffffffffff\n      and\n        /* \"voting.sol\":5377:5386  _votingId */\n      dup3\n        /* \"voting.sol\":5363:5405  candidateInfo(_votingId, _candidate, true) */\n      0x0d7a9ec927774dd3a7db78abe1a8634c4e4509290232ebe5bcd8e656d6946433\n        /* \"voting.sol\":5400:5404  true */\n      0x01\n        /* \"voting.sol\":5363:5405  candidateInfo(_votingId, _candidate, true) */\n      mload(0x40)\n      tag_112\n      swap2\n      swap1\n      tag_68\n      jump\t// in\n    tag_112:\n      mload(0x40)\n      dup1\n      swap2\n      sub\n      swap1\n      log3\n        /* \"voting.sol\":5117:5413  function addCandidate(uint256 _votingId, address _candidate) public onlyOwner {... */\n      pop\n      pop\n      jump\t// out\n        /* \"voting.sol\":5953:6182  function startVoting(uint256 _votingId) public onlyOwner {... */\n    tag_49:\n        /* \"voting.sol\":8183:8196  ownerContract */\n      0x00\n      dup1\n      sload\n      swap1\n      0x0100\n      exp\n      swap1\n      div\n      0xffffffffffffffffffffffffffffffffffffffff\n      and\n        /* \"voting.sol\":8169:8196  msg.sender == ownerContract */\n      0xffffffffffffffffffffffffffffffffffffffff\n      and\n        /* \"voting.sol\":8169:8179  msg.sender */\n      caller\n        /* \"voting.sol\":8169:8196  msg.sender == ownerContract */\n      0xffffffffffffffffffffffffffffffffffffffff\n      and\n      eq\n        /* \"voting.sol\":8147:8267  require(... */\n      tag_114\n      jumpi\n      mload(0x40)\n      0x08c379a000000000000000000000000000000000000000000000000000000000\n      dup2\n      mstore\n      0x04\n      add\n      tag_115\n      swap1\n      tag_93\n      jump\t// in\n    tag_115:\n      mload(0x40)\n      dup1\n      swap2\n      sub\n      swap1\n      revert\n    tag_114:\n        /* \"voting.sol\":6051:6055  true */\n      0x01\n        /* \"voting.sol\":6021:6028  votings */\n      0x03\n        /* \"voting.sol\":6021:6039  votings[_votingId] */\n      0x00\n        /* \"voting.sol\":6029:6038  _votingId */\n      dup4\n        /* \"voting.sol\":6021:6039  votings[_votingId] */\n      dup2\n      mstore\n      0x20\n      add\n      swap1\n      dup2\n      mstore\n      0x20\n      add\n      0x00\n      keccak256\n        /* \"voting.sol\":6021:6048  votings[_votingId].isActive */\n      0x00\n      add\n      0x00\n        /* \"voting.sol\":6021:6055  votings[_votingId].isActive = true */\n      0x0100\n      exp\n      dup2\n      sload\n      dup2\n      0xff\n      mul\n      not\n      and\n      swap1\n      dup4\n      iszero\n      iszero\n      mul\n      or\n      swap1\n      sstore\n      pop\n        /* \"voting.sol\":6102:6117  block.timestamp */\n      timestamp\n        /* \"voting.sol\":6066:6073  votings */\n      0x03\n        /* \"voting.sol\":6066:6084  votings[_votingId] */\n      0x00\n        /* \"voting.sol\":6074:6083  _votingId */\n      dup4\n        /* \"voting.sol\":6066:6084  votings[_votingId] */\n      dup2\n      mstore\n      0x20\n      add\n      swap1\n      dup2\n      mstore\n      0x20\n      add\n      0x00\n      keccak256\n        /* \"voting.sol\":6066:6099  votings[_votingId].startTimeStamp */\n      0x01\n      add\n        /* \"voting.sol\":6066:6117  votings[_votingId].startTimeStamp = block.timestamp */\n      dup2\n      swap1\n      sstore\n      pop\n        /* \"voting.sol\":6147:6156  _votingId */\n      dup1\n        /* \"voting.sol\":6133:6174  votingStarted(_votingId, block.timestamp) */\n      0x0377dfbd6e4aa0688c840ef165b5c872f7eabf72f5ccfd60c13c18e67d9ea581\n        /* \"voting.sol\":6158:6173  block.timestamp */\n      timestamp\n        /* \"voting.sol\":6133:6174  votingStarted(_votingId, block.timestamp) */\n      mload(0x40)\n      tag_117\n      swap2\n      swap1\n      tag_24\n      jump\t// in\n    tag_117:\n      mload(0x40)\n      dup1\n      swap2\n      sub\n      swap1\n      log2\n        /* \"voting.sol\":5953:6182  function startVoting(uint256 _votingId) public onlyOwner {... */\n      pop\n      jump\t// out\n        /* \"voting.sol\":7126:8041  function WithdrowMyPrize(uint256 _votingId) public {... */\n    tag_53:\n        /* \"voting.sol\":7227:7231  true */\n      0x01\n        /* \"voting.sol\":7196:7231  votings[_votingId].isActive == true */\n      iszero\n      iszero\n        /* \"voting.sol\":7196:7203  votings */\n      0x03\n        /* \"voting.sol\":7196:7214  votings[_votingId] */\n      0x00\n        /* \"voting.sol\":7204:7213  _votingId */\n      dup4\n        /* \"voting.sol\":7196:7214  votings[_votingId] */\n      dup2\n      mstore\n      0x20\n      add\n      swap1\n      dup2\n      mstore\n      0x20\n      add\n      0x00\n      keccak256\n        /* \"voting.sol\":7196:7223  votings[_votingId].isActive */\n      0x00\n      add\n      0x00\n      swap1\n      sload\n      swap1\n      0x0100\n      exp\n      swap1\n      div\n      0xff\n      and\n        /* \"voting.sol\":7196:7231  votings[_votingId].isActive == true */\n      iszero\n      iszero\n      eq\n        /* \"voting.sol\":7188:7258  require(votings[_votingId].isActive == true, \"Voting not started yet\") */\n      tag_119\n      jumpi\n      mload(0x40)\n      0x08c379a000000000000000000000000000000000000000000000000000000000\n      dup2\n      mstore\n      0x04\n      add\n      tag_120\n      swap1\n      tag_121\n      jump\t// in\n    tag_120:\n      mload(0x40)\n      dup1\n      swap2\n      sub\n      swap1\n      revert\n    tag_119:\n        /* \"voting.sol\":7341:7356  block.timestamp */\n      timestamp\n        /* \"voting.sol\":7313:7320  votings */\n      0x03\n        /* \"voting.sol\":7313:7331  votings[_votingId] */\n      0x00\n        /* \"voting.sol\":7321:7330  _votingId */\n      dup4\n        /* \"voting.sol\":7313:7331  votings[_votingId] */\n      dup2\n      mstore\n      0x20\n      add\n      swap1\n      dup2\n      mstore\n      0x20\n      add\n      0x00\n      keccak256\n        /* \"voting.sol\":7313:7338  votings[_votingId].period */\n      0x02\n      add\n      sload\n        /* \"voting.sol\":7277:7284  votings */\n      0x03\n        /* \"voting.sol\":7277:7295  votings[_votingId] */\n      0x00\n        /* \"voting.sol\":7285:7294  _votingId */\n      dup5\n        /* \"voting.sol\":7277:7295  votings[_votingId] */\n      dup2\n      mstore\n      0x20\n      add\n      swap1\n      dup2\n      mstore\n      0x20\n      add\n      0x00\n      keccak256\n        /* \"voting.sol\":7277:7310  votings[_votingId].startTimeStamp */\n      0x01\n      add\n      sload\n        /* \"voting.sol\":7277:7338  votings[_votingId].startTimeStamp + votings[_votingId].period */\n      tag_122\n      swap2\n      swap1\n      tag_123\n      jump\t// in\n    tag_122:\n        /* \"voting.sol\":7277:7356  votings[_votingId].startTimeStamp + votings[_votingId].period < block.timestamp */\n      lt\n        /* \"voting.sol\":7269:7384  require(votings[_votingId].startTimeStamp + votings[_votingId].period < block.timestamp, \"Voting is not over yet!\") */\n      tag_124\n      jumpi\n      mload(0x40)\n      0x08c379a000000000000000000000000000000000000000000000000000000000\n      dup2\n      mstore\n      0x04\n      add\n      tag_125\n      swap1\n      tag_126\n      jump\t// in\n    tag_125:\n      mload(0x40)\n      dup1\n      swap2\n      sub\n      swap1\n      revert\n    tag_124:\n        /* \"voting.sol\":7417:7424  votings */\n      0x03\n        /* \"voting.sol\":7417:7435  votings[_votingId] */\n      0x00\n        /* \"voting.sol\":7425:7434  _votingId */\n      dup3\n        /* \"voting.sol\":7417:7435  votings[_votingId] */\n      dup2\n      mstore\n      0x20\n      add\n      swap1\n      dup2\n      mstore\n      0x20\n      add\n      0x00\n      keccak256\n        /* \"voting.sol\":7417:7442  votings[_votingId].winner */\n      0x00\n      add\n      0x01\n      swap1\n      sload\n      swap1\n      0x0100\n      exp\n      swap1\n      div\n      0xffffffffffffffffffffffffffffffffffffffff\n      and\n        /* \"voting.sol\":7403:7442  msg.sender == votings[_votingId].winner */\n      0xffffffffffffffffffffffffffffffffffffffff\n      and\n        /* \"voting.sol\":7403:7413  msg.sender */\n      caller\n        /* \"voting.sol\":7403:7442  msg.sender == votings[_votingId].winner */\n      0xffffffffffffffffffffffffffffffffffffffff\n      and\n      eq\n        /* \"voting.sol\":7395:7468  require(msg.sender == votings[_votingId].winner, \"You are not a winner!\") */\n      tag_127\n      jumpi\n      mload(0x40)\n      0x08c379a000000000000000000000000000000000000000000000000000000000\n      dup2\n      mstore\n      0x04\n      add\n      tag_128\n      swap1\n      tag_129\n      jump\t// in\n    tag_128:\n      mload(0x40)\n      dup1\n      swap2\n      sub\n      swap1\n      revert\n    tag_127:\n        /* \"voting.sol\":7520:7521  0 */\n      0x00\n        /* \"voting.sol\":7487:7494  votings */\n      0x03\n        /* \"voting.sol\":7487:7505  votings[_votingId] */\n      0x00\n        /* \"voting.sol\":7495:7504  _votingId */\n      dup4\n        /* \"voting.sol\":7487:7505  votings[_votingId] */\n      dup2\n      mstore\n      0x20\n      add\n      swap1\n      dup2\n      mstore\n      0x20\n      add\n      0x00\n      keccak256\n        /* \"voting.sol\":7487:7517  votings[_votingId].bankBalance */\n      0x04\n      add\n      sload\n        /* \"voting.sol\":7487:7521  votings[_votingId].bankBalance > 0 */\n      gt\n        /* \"voting.sol\":7479:7563  require(votings[_votingId].bankBalance > 0, \"You have already received your prize!\") */\n      tag_130\n      jumpi\n      mload(0x40)\n      0x08c379a000000000000000000000000000000000000000000000000000000000\n      dup2\n      mstore\n      0x04\n      add\n      tag_131\n      swap1\n      tag_132\n      jump\t// in\n    tag_131:\n      mload(0x40)\n      dup1\n      swap2\n      sub\n      swap1\n      revert\n    tag_130:\n        /* \"voting.sol\":7576:7590  uint256 amount */\n      0x00\n        /* \"voting.sol\":7593:7600  votings */\n      0x03\n        /* \"voting.sol\":7593:7611  votings[_votingId] */\n      0x00\n        /* \"voting.sol\":7601:7610  _votingId */\n      dup4\n        /* \"voting.sol\":7593:7611  votings[_votingId] */\n      dup2\n      mstore\n      0x20\n      add\n      swap1\n      dup2\n      mstore\n      0x20\n      add\n      0x00\n      keccak256\n        /* \"voting.sol\":7593:7623  votings[_votingId].bankBalance */\n      0x04\n      add\n      sload\n        /* \"voting.sol\":7576:7623  uint256 amount = votings[_votingId].bankBalance */\n      swap1\n      pop\n        /* \"voting.sol\":7634:7657  uint256 ownersComission */\n      0x00\n        /* \"voting.sol\":7683:7686  100 */\n      0x64\n        /* \"voting.sol\":7673:7679  amount */\n      dup3\n        /* \"voting.sol\":7661:7670  commision */\n      immutable(\"0xd67d834462ca31eaef1f30157e31659f60355143b7441e6fc7d9eae1fa79f3f8\")\n        /* \"voting.sol\":7661:7679  commision * amount */\n      0xff\n      and\n      tag_133\n      swap2\n      swap1\n      tag_134\n      jump\t// in\n    tag_133:\n        /* \"voting.sol\":7660:7686  (commision * amount) / 100 */\n      tag_135\n      swap2\n      swap1\n      tag_136\n      jump\t// in\n    tag_135:\n        /* \"voting.sol\":7634:7686  uint256 ownersComission = (commision * amount) / 100 */\n      swap1\n      pop\n        /* \"voting.sol\":7697:7716  uint256 clearAmount */\n      0x00\n        /* \"voting.sol\":7728:7743  ownersComission */\n      dup2\n        /* \"voting.sol\":7719:7725  amount */\n      dup4\n        /* \"voting.sol\":7719:7743  amount - ownersComission */\n      tag_137\n      swap2\n      swap1\n      tag_138\n      jump\t// in\n    tag_137:\n        /* \"voting.sol\":7697:7743  uint256 clearAmount = amount - ownersComission */\n      swap1\n      pop\n        /* \"voting.sol\":7789:7790  0 */\n      0x00\n        /* \"voting.sol\":7756:7763  votings */\n      0x03\n        /* \"voting.sol\":7756:7774  votings[_votingId] */\n      0x00\n        /* \"voting.sol\":7764:7773  _votingId */\n      dup7\n        /* \"voting.sol\":7756:7774  votings[_votingId] */\n      dup2\n      mstore\n      0x20\n      add\n      swap1\n      dup2\n      mstore\n      0x20\n      add\n      0x00\n      keccak256\n        /* \"voting.sol\":7756:7786  votings[_votingId].bankBalance */\n      0x04\n      add\n        /* \"voting.sol\":7756:7790  votings[_votingId].bankBalance = 0 */\n      dup2\n      swap1\n      sstore\n      pop\n        /* \"voting.sol\":7878:7891  ownerContract */\n      0x00\n      dup1\n      sload\n      swap1\n      0x0100\n      exp\n      swap1\n      div\n      0xffffffffffffffffffffffffffffffffffffffff\n      and\n        /* \"voting.sol\":7870:7901  payable(ownerContract).transfer */\n      0xffffffffffffffffffffffffffffffffffffffff\n      and\n        /* \"voting.sol\":7870:7918  payable(ownerContract).transfer(ownersComission) */\n      0x08fc\n        /* \"voting.sol\":7902:7917  ownersComission */\n      dup4\n        /* \"voting.sol\":7870:7918  payable(ownerContract).transfer(ownersComission) */\n      swap1\n      dup2\n      iszero\n      mul\n      swap1\n      mload(0x40)\n      0x00\n      mload(0x40)\n      dup1\n      dup4\n      sub\n      dup2\n      dup6\n      dup9\n      dup9\n      call\n      swap4\n      pop\n      pop\n      pop\n      pop\n      iszero\n      dup1\n      iszero\n      tag_140\n      jumpi\n      returndatasize\n      0x00\n      dup1\n      returndatacopy\n      revert(0x00, returndatasize)\n    tag_140:\n      pop\n        /* \"voting.sol\":8000:8010  msg.sender */\n      caller\n        /* \"voting.sol\":7992:8020  payable(msg.sender).transfer */\n      0xffffffffffffffffffffffffffffffffffffffff\n      and\n        /* \"voting.sol\":7992:8033  payable(msg.sender).transfer(clearAmount) */\n      0x08fc\n        /* \"voting.sol\":8021:8032  clearAmount */\n      dup3\n        /* \"voting.sol\":7992:8033  payable(msg.sender).transfer(clearAmount) */\n      swap1\n      dup2\n      iszero\n      mul\n      swap1\n      mload(0x40)\n      0x00\n      mload(0x40)\n      dup1\n      dup4\n      sub\n      dup2\n      dup6\n      dup9\n      dup9\n      call\n      swap4\n      pop\n      pop\n      pop\n      pop\n      iszero\n      dup1\n      iszero\n      tag_142\n      jumpi\n      returndatasize\n      0x00\n      dup1\n      returndatacopy\n      revert(0x00, returndatasize)\n    tag_142:\n      pop\n        /* \"voting.sol\":7177:8041  {... */\n      pop\n      pop\n      pop\n        /* \"voting.sol\":7126:8041  function WithdrowMyPrize(uint256 _votingId) public {... */\n      pop\n      jump\t// out\n        /* \"voting.sol\":1209:1237  address public ownerContract */\n    tag_56:\n      0x00\n      dup1\n      sload\n      swap1\n      0x0100\n      exp\n      swap1\n      div\n      0xffffffffffffffffffffffffffffffffffffffff\n      and\n      dup2\n      jump\t// out\n        /* \"voting.sol\":1321:1352  uint256 public maxCandidatesNum */\n    tag_61:\n      sload(0x01)\n      dup2\n      jump\t// out\n        /* \"voting.sol\":4254:4451  function checkCandidate(uint256 _votingId, address _candidate)... */\n    tag_66:\n        /* \"voting.sol\":4365:4369  bool */\n      0x00\n        /* \"voting.sol\":4395:4402  votings */\n      0x03\n        /* \"voting.sol\":4395:4413  votings[_votingId] */\n      0x00\n        /* \"voting.sol\":4403:4412  _votingId */\n      dup5\n        /* \"voting.sol\":4395:4413  votings[_votingId] */\n      dup2\n      mstore\n      0x20\n      add\n      swap1\n      dup2\n      mstore\n      0x20\n      add\n      0x00\n      keccak256\n        /* \"voting.sol\":4395:4424  votings[_votingId].candidates */\n      0x05\n      add\n        /* \"voting.sol\":4395:4436  votings[_votingId].candidates[_candidate] */\n      0x00\n        /* \"voting.sol\":4425:4435  _candidate */\n      dup4\n        /* \"voting.sol\":4395:4436  votings[_votingId].candidates[_candidate] */\n      0xffffffffffffffffffffffffffffffffffffffff\n      and\n      0xffffffffffffffffffffffffffffffffffffffff\n      and\n      dup2\n      mstore\n      0x20\n      add\n      swap1\n      dup2\n      mstore\n      0x20\n      add\n      0x00\n      keccak256\n        /* \"voting.sol\":4395:4442  votings[_votingId].candidates[_candidate].valid */\n      0x00\n      add\n      0x00\n      swap1\n      sload\n      swap1\n      0x0100\n      exp\n      swap1\n      div\n      0xff\n      and\n        /* \"voting.sol\":4387:4443  return (votings[_votingId].candidates[_candidate].valid) */\n      swap1\n      pop\n        /* \"voting.sol\":4254:4451  function checkCandidate(uint256 _votingId, address _candidate)... */\n      swap3\n      swap2\n      pop\n      pop\n      jump\t// out\n        /* \"voting.sol\":3886:4122  function StartVoting(uint256 _votingId) public onlyOwner... */\n    tag_72:\n        /* \"voting.sol\":8183:8196  ownerContract */\n      0x00\n      dup1\n      sload\n      swap1\n      0x0100\n      exp\n      swap1\n      div\n      0xffffffffffffffffffffffffffffffffffffffff\n      and\n        /* \"voting.sol\":8169:8196  msg.sender == ownerContract */\n      0xffffffffffffffffffffffffffffffffffffffff\n      and\n        /* \"voting.sol\":8169:8179  msg.sender */\n      caller\n        /* \"voting.sol\":8169:8196  msg.sender == ownerContract */\n      0xffffffffffffffffffffffffffffffffffffffff\n      and\n      eq\n        /* \"voting.sol\":8147:8267  require(... */\n      tag_145\n      jumpi\n      mload(0x40)\n      0x08c379a000000000000000000000000000000000000000000000000000000000\n      dup2\n      mstore\n      0x04\n      add\n      tag_146\n      swap1\n      tag_93\n      jump\t// in\n    tag_146:\n      mload(0x40)\n      dup1\n      swap2\n      sub\n      swap1\n      revert\n    tag_145:\n        /* \"voting.sol\":3989:3993  true */\n      0x01\n        /* \"voting.sol\":3959:3966  votings */\n      0x03\n        /* \"voting.sol\":3959:3977  votings[_votingId] */\n      0x00\n        /* \"voting.sol\":3967:3976  _votingId */\n      dup4\n        /* \"voting.sol\":3959:3977  votings[_votingId] */\n      dup2\n      mstore\n      0x20\n      add\n      swap1\n      dup2\n      mstore\n      0x20\n      add\n      0x00\n      keccak256\n        /* \"voting.sol\":3959:3986  votings[_votingId].isActive */\n      0x00\n      add\n      0x00\n        /* \"voting.sol\":3959:3993  votings[_votingId].isActive = true */\n      0x0100\n      exp\n      dup2\n      sload\n      dup2\n      0xff\n      mul\n      not\n      and\n      swap1\n      dup4\n      iszero\n      iszero\n      mul\n      or\n      swap1\n      sstore\n      pop\n        /* \"voting.sol\":4040:4055  block.timestamp */\n      timestamp\n        /* \"voting.sol\":4004:4011  votings */\n      0x03\n        /* \"voting.sol\":4004:4022  votings[_votingId] */\n      0x00\n        /* \"voting.sol\":4012:4021  _votingId */\n      dup4\n        /* \"voting.sol\":4004:4022  votings[_votingId] */\n      dup2\n      mstore\n      0x20\n      add\n      swap1\n      dup2\n      mstore\n      0x20\n      add\n      0x00\n      keccak256\n        /* \"voting.sol\":4004:4037  votings[_votingId].startTimeStamp */\n      0x01\n      add\n        /* \"voting.sol\":4004:4055  votings[_votingId].startTimeStamp = block.timestamp */\n      dup2\n      swap1\n      sstore\n      pop\n        /* \"voting.sol\":4087:4096  _votingId */\n      dup1\n        /* \"voting.sol\":4073:4114  votingStarted(_votingId, block.timestamp) */\n      0x0377dfbd6e4aa0688c840ef165b5c872f7eabf72f5ccfd60c13c18e67d9ea581\n        /* \"voting.sol\":4098:4113  block.timestamp */\n      timestamp\n        /* \"voting.sol\":4073:4114  votingStarted(_votingId, block.timestamp) */\n      mload(0x40)\n      tag_148\n      swap2\n      swap1\n      tag_24\n      jump\t// in\n    tag_148:\n      mload(0x40)\n      dup1\n      swap2\n      sub\n      swap1\n      log2\n        /* \"voting.sol\":3886:4122  function StartVoting(uint256 _votingId) public onlyOwner... */\n      pop\n      jump\t// out\n        /* \"voting.sol\":2827:2859  uint8 public immutable commision */\n    tag_75:\n      immutable(\"0xd67d834462ca31eaef1f30157e31659f60355143b7441e6fc7d9eae1fa79f3f8\")\n      dup2\n      jump\t// out\n        /* \"voting.sol\":5467:5903  function addVoting(uint256 _period, address[] calldata _candidates) public onlyOwner... */\n    tag_82:\n        /* \"voting.sol\":8183:8196  ownerContract */\n      0x00\n      dup1\n      sload\n      swap1\n      0x0100\n      exp\n      swap1\n      div\n      0xffffffffffffffffffffffffffffffffffffffff\n      and\n        /* \"voting.sol\":8169:8196  msg.sender == ownerContract */\n      0xffffffffffffffffffffffffffffffffffffffff\n      and\n        /* \"voting.sol\":8169:8179  msg.sender */\n      caller\n        /* \"voting.sol\":8169:8196  msg.sender == ownerContract */\n      0xffffffffffffffffffffffffffffffffffffffff\n      and\n      eq\n        /* \"voting.sol\":8147:8267  require(... */\n      tag_150\n      jumpi\n      mload(0x40)\n      0x08c379a000000000000000000000000000000000000000000000000000000000\n      dup2\n      mstore\n      0x04\n      add\n      tag_151\n      swap1\n      tag_93\n      jump\t// in\n    tag_151:\n      mload(0x40)\n      dup1\n      swap2\n      sub\n      swap1\n      revert\n    tag_150:\n        /* \"voting.sol\":5597:5613  maxCandidatesNum */\n      sload(0x01)\n        /* \"voting.sol\":5576:5587  _candidates */\n      dup3\n      dup3\n        /* \"voting.sol\":5576:5594  _candidates.length */\n      swap1\n      pop\n        /* \"voting.sol\":5576:5613  _candidates.length < maxCandidatesNum */\n      lt\n        /* \"voting.sol\":5568:5638  require(_candidates.length < maxCandidatesNum, \"Too many candidates!\") */\n      tag_153\n      jumpi\n      mload(0x40)\n      0x08c379a000000000000000000000000000000000000000000000000000000000\n      dup2\n      mstore\n      0x04\n      add\n      tag_154\n      swap1\n      tag_155\n      jump\t// in\n    tag_154:\n      mload(0x40)\n      dup1\n      swap2\n      sub\n      swap1\n      revert\n    tag_153:\n        /* \"voting.sol\":5684:5691  _period */\n      dup3\n        /* \"voting.sol\":5651:5658  votings */\n      0x03\n        /* \"voting.sol\":5651:5674  votings[counterVotings] */\n      0x00\n        /* \"voting.sol\":5659:5673  counterVotings */\n      sload(0x02)\n        /* \"voting.sol\":5651:5674  votings[counterVotings] */\n      dup2\n      mstore\n      0x20\n      add\n      swap1\n      dup2\n      mstore\n      0x20\n      add\n      0x00\n      keccak256\n        /* \"voting.sol\":5651:5681  votings[counterVotings].period */\n      0x02\n      add\n        /* \"voting.sol\":5651:5691  votings[counterVotings].period = _period */\n      dup2\n      swap1\n      sstore\n      pop\n        /* \"voting.sol\":5707:5716  uint256 i */\n      0x00\n        /* \"voting.sol\":5702:5822  for (uint256 i = 0; i < _candidates.length; i++) {... */\n    tag_156:\n        /* \"voting.sol\":5726:5737  _candidates */\n      dup3\n      dup3\n        /* \"voting.sol\":5726:5744  _candidates.length */\n      swap1\n      pop\n        /* \"voting.sol\":5722:5723  i */\n      dup2\n        /* \"voting.sol\":5722:5744  i < _candidates.length */\n      lt\n        /* \"voting.sol\":5702:5822  for (uint256 i = 0; i < _candidates.length; i++) {... */\n      iszero\n      tag_157\n      jumpi\n        /* \"voting.sol\":5766:5810  addCandidate(counterVotings, _candidates[i]) */\n      tag_159\n        /* \"voting.sol\":5779:5793  counterVotings */\n      sload(0x02)\n        /* \"voting.sol\":5795:5806  _candidates */\n      dup5\n      dup5\n        /* \"voting.sol\":5807:5808  i */\n      dup5\n        /* \"voting.sol\":5795:5809  _candidates[i] */\n      dup2\n      dup2\n      lt\n      tag_160\n      jumpi\n      tag_161\n      tag_162\n      jump\t// in\n    tag_161:\n    tag_160:\n      swap1\n      pop\n      0x20\n      mul\n      add\n      0x20\n      dup2\n      add\n      swap1\n      tag_163\n      swap2\n      swap1\n      tag_164\n      jump\t// in\n    tag_163:\n        /* \"voting.sol\":5766:5778  addCandidate */\n      tag_45\n        /* \"voting.sol\":5766:5810  addCandidate(counterVotings, _candidates[i]) */\n      jump\t// in\n    tag_159:\n        /* \"voting.sol\":5746:5749  i++ */\n      dup1\n      dup1\n      tag_165\n      swap1\n      tag_166\n      jump\t// in\n    tag_165:\n      swap2\n      pop\n      pop\n        /* \"voting.sol\":5702:5822  for (uint256 i = 0; i < _candidates.length; i++) {... */\n      jump(tag_156)\n    tag_157:\n      pop\n        /* \"voting.sol\":5853:5867  counterVotings */\n      sload(0x02)\n        /* \"voting.sol\":5839:5868  votingCreated(counterVotings) */\n      0xba2f0756cdf8791d4ba21de0481bb93b90ab1a268d3e1cdf8aa1c3f856bb68b9\n      mload(0x40)\n      mload(0x40)\n      dup1\n      swap2\n      sub\n      swap1\n      log2\n        /* \"voting.sol\":5879:5893  counterVotings */\n      0x02\n      0x00\n        /* \"voting.sol\":5879:5895  counterVotings++ */\n      dup2\n      sload\n      dup1\n      swap3\n      swap2\n      swap1\n      tag_167\n      swap1\n      tag_166\n      jump\t// in\n    tag_167:\n      swap2\n      swap1\n      pop\n      sstore\n      pop\n        /* \"voting.sol\":5467:5903  function addVoting(uint256 _period, address[] calldata _candidates) public onlyOwner... */\n      pop\n      pop\n      pop\n      jump\t// out\n        /* \"voting.sol\":6956:7084  function setMaxCandidatesNum(uint256 _maxCandidatesNum) public onlyOwner {... */\n    tag_86:\n        /* \"voting.sol\":8183:8196  ownerContract */\n      0x00\n      dup1\n      sload\n      swap1\n      0x0100\n      exp\n      swap1\n      div\n      0xffffffffffffffffffffffffffffffffffffffff\n      and\n        /* \"voting.sol\":8169:8196  msg.sender == ownerContract */\n      0xffffffffffffffffffffffffffffffffffffffff\n      and\n        /* \"voting.sol\":8169:8179  msg.sender */\n      caller\n        /* \"voting.sol\":8169:8196  msg.sender == ownerContract */\n      0xffffffffffffffffffffffffffffffffffffffff\n      and\n      eq\n        /* \"voting.sol\":8147:8267  require(... */\n      tag_169\n      jumpi\n      mload(0x40)\n      0x08c379a000000000000000000000000000000000000000000000000000000000\n      dup2\n      mstore\n      0x04\n      add\n      tag_170\n      swap1\n      tag_93\n      jump\t// in\n    tag_170:\n      mload(0x40)\n      dup1\n      swap2\n      sub\n      swap1\n      revert\n    tag_169:\n        /* \"voting.sol\":7059:7076  _maxCandidatesNum */\n      dup1\n        /* \"voting.sol\":7040:7056  maxCandidatesNum */\n      0x01\n        /* \"voting.sol\":7040:7076  maxCandidatesNum = _maxCandidatesNum */\n      dup2\n      swap1\n      sstore\n      pop\n        /* \"voting.sol\":6956:7084  function setMaxCandidatesNum(uint256 _maxCandidatesNum) public onlyOwner {... */\n      pop\n      jump\t// out\n        /* \"voting.sol\":3074:3817  function iAmVote(uint256 _votingId, address _to) public payable {... */\n    tag_89:\n        /* \"voting.sol\":3188:3192  true */\n      0x01\n        /* \"voting.sol\":3157:3192  votings[_votingId].isActive == true */\n      iszero\n      iszero\n        /* \"voting.sol\":3157:3164  votings */\n      0x03\n        /* \"voting.sol\":3157:3175  votings[_votingId] */\n      0x00\n        /* \"voting.sol\":3165:3174  _votingId */\n      dup5\n        /* \"voting.sol\":3157:3175  votings[_votingId] */\n      dup2\n      mstore\n      0x20\n      add\n      swap1\n      dup2\n      mstore\n      0x20\n      add\n      0x00\n      keccak256\n        /* \"voting.sol\":3157:3184  votings[_votingId].isActive */\n      0x00\n      add\n      0x00\n      swap1\n      sload\n      swap1\n      0x0100\n      exp\n      swap1\n      div\n      0xff\n      and\n        /* \"voting.sol\":3157:3192  votings[_votingId].isActive == true */\n      iszero\n      iszero\n      eq\n        /* \"voting.sol\":3149:3232  require(votings[_votingId].isActive == true, \"Voting is not started or not exist.\") */\n      tag_173\n      jumpi\n      mload(0x40)\n      0x08c379a000000000000000000000000000000000000000000000000000000000\n      dup2\n      mstore\n      0x04\n      add\n      tag_174\n      swap1\n      tag_175\n      jump\t// in\n    tag_174:\n      mload(0x40)\n      dup1\n      swap2\n      sub\n      swap1\n      revert\n    tag_173:\n        /* \"voting.sol\":3315:3330  block.timestamp */\n      timestamp\n        /* \"voting.sol\":3287:3294  votings */\n      0x03\n        /* \"voting.sol\":3287:3305  votings[_votingId] */\n      0x00\n        /* \"voting.sol\":3295:3304  _votingId */\n      dup5\n        /* \"voting.sol\":3287:3305  votings[_votingId] */\n      dup2\n      mstore\n      0x20\n      add\n      swap1\n      dup2\n      mstore\n      0x20\n      add\n      0x00\n      keccak256\n        /* \"voting.sol\":3287:3312  votings[_votingId].period */\n      0x02\n      add\n      sload\n        /* \"voting.sol\":3251:3258  votings */\n      0x03\n        /* \"voting.sol\":3251:3269  votings[_votingId] */\n      0x00\n        /* \"voting.sol\":3259:3268  _votingId */\n      dup6\n        /* \"voting.sol\":3251:3269  votings[_votingId] */\n      dup2\n      mstore\n      0x20\n      add\n      swap1\n      dup2\n      mstore\n      0x20\n      add\n      0x00\n      keccak256\n        /* \"voting.sol\":3251:3284  votings[_votingId].startTimeStamp */\n      0x01\n      add\n      sload\n        /* \"voting.sol\":3251:3312  votings[_votingId].startTimeStamp + votings[_votingId].period */\n      tag_176\n      swap2\n      swap1\n      tag_123\n      jump\t// in\n    tag_176:\n        /* \"voting.sol\":3251:3330  votings[_votingId].startTimeStamp + votings[_votingId].period > block.timestamp */\n      gt\n        /* \"voting.sol\":3243:3351  require(votings[_votingId].startTimeStamp + votings[_votingId].period > block.timestamp, \"Voting is ended.\") */\n      tag_177\n      jumpi\n      mload(0x40)\n      0x08c379a000000000000000000000000000000000000000000000000000000000\n      dup2\n      mstore\n      0x04\n      add\n      tag_178\n      swap1\n      tag_179\n      jump\t// in\n    tag_178:\n      mload(0x40)\n      dup1\n      swap2\n      sub\n      swap1\n      revert\n    tag_177:\n        /* \"voting.sol\":3370:3400  checkCandidate(_votingId, _to) */\n      tag_180\n        /* \"voting.sol\":3385:3394  _votingId */\n      dup3\n        /* \"voting.sol\":3396:3399  _to */\n      dup3\n        /* \"voting.sol\":3370:3384  checkCandidate */\n      tag_66\n        /* \"voting.sol\":3370:3400  checkCandidate(_votingId, _to) */\n      jump\t// in\n    tag_180:\n        /* \"voting.sol\":3362:3444  require(checkCandidate(_votingId, _to), \"Candidate does not exist on this voting\") */\n      tag_181\n      jumpi\n      mload(0x40)\n      0x08c379a000000000000000000000000000000000000000000000000000000000\n      dup2\n      mstore\n      0x04\n      add\n      tag_182\n      swap1\n      tag_183\n      jump\t// in\n    tag_182:\n      mload(0x40)\n      dup1\n      swap2\n      sub\n      swap1\n      revert\n    tag_181:\n        /* \"voting.sol\":3509:3518  msg.value */\n      callvalue\n        /* \"voting.sol\":3457:3464  votings */\n      0x03\n        /* \"voting.sol\":3457:3475  votings[_votingId] */\n      0x00\n        /* \"voting.sol\":3465:3474  _votingId */\n      dup5\n        /* \"voting.sol\":3457:3475  votings[_votingId] */\n      dup2\n      mstore\n      0x20\n      add\n      swap1\n      dup2\n      mstore\n      0x20\n      add\n      0x00\n      keccak256\n        /* \"voting.sol\":3457:3486  votings[_votingId].candidates */\n      0x05\n      add\n        /* \"voting.sol\":3457:3491  votings[_votingId].candidates[_to] */\n      0x00\n        /* \"voting.sol\":3487:3490  _to */\n      dup4\n        /* \"voting.sol\":3457:3491  votings[_votingId].candidates[_to] */\n      0xffffffffffffffffffffffffffffffffffffffff\n      and\n      0xffffffffffffffffffffffffffffffffffffffff\n      and\n      dup2\n      mstore\n      0x20\n      add\n      swap1\n      dup2\n      mstore\n      0x20\n      add\n      0x00\n      keccak256\n        /* \"voting.sol\":3457:3505  votings[_votingId].candidates[_to].votingBalance */\n      0x01\n      add\n      0x00\n        /* \"voting.sol\":3457:3518  votings[_votingId].candidates[_to].votingBalance += msg.value */\n      dup3\n      dup3\n      sload\n      tag_184\n      swap2\n      swap1\n      tag_123\n      jump\t// in\n    tag_184:\n      swap3\n      pop\n      pop\n      dup2\n      swap1\n      sstore\n      pop\n        /* \"voting.sol\":3585:3592  votings */\n      0x03\n        /* \"voting.sol\":3585:3603  votings[_votingId] */\n      0x00\n        /* \"voting.sol\":3593:3602  _votingId */\n      dup4\n        /* \"voting.sol\":3585:3603  votings[_votingId] */\n      dup2\n      mstore\n      0x20\n      add\n      swap1\n      dup2\n      mstore\n      0x20\n      add\n      0x00\n      keccak256\n        /* \"voting.sol\":3585:3630  votings[_votingId].winnerBalanceAtVotingClose */\n      0x03\n      add\n      sload\n        /* \"voting.sol\":3534:3541  votings */\n      0x03\n        /* \"voting.sol\":3534:3552  votings[_votingId] */\n      0x00\n        /* \"voting.sol\":3542:3551  _votingId */\n      dup5\n        /* \"voting.sol\":3534:3552  votings[_votingId] */\n      dup2\n      mstore\n      0x20\n      add\n      swap1\n      dup2\n      mstore\n      0x20\n      add\n      0x00\n      keccak256\n        /* \"voting.sol\":3534:3563  votings[_votingId].candidates */\n      0x05\n      add\n        /* \"voting.sol\":3534:3568  votings[_votingId].candidates[_to] */\n      0x00\n        /* \"voting.sol\":3564:3567  _to */\n      dup4\n        /* \"voting.sol\":3534:3568  votings[_votingId].candidates[_to] */\n      0xffffffffffffffffffffffffffffffffffffffff\n      and\n      0xffffffffffffffffffffffffffffffffffffffff\n      and\n      dup2\n      mstore\n      0x20\n      add\n      swap1\n      dup2\n      mstore\n      0x20\n      add\n      0x00\n      keccak256\n        /* \"voting.sol\":3534:3582  votings[_votingId].candidates[_to].votingBalance */\n      0x01\n      add\n      sload\n        /* \"voting.sol\":3534:3630  votings[_votingId].candidates[_to].votingBalance > votings[_votingId].winnerBalanceAtVotingClose */\n      gt\n        /* \"voting.sol\":3531:3810  if(votings[_votingId].candidates[_to].votingBalance > votings[_votingId].winnerBalanceAtVotingClose)... */\n      iszero\n      tag_185\n      jumpi\n        /* \"voting.sol\":3684:3687  _to */\n      dup1\n        /* \"voting.sol\":3656:3663  votings */\n      0x03\n        /* \"voting.sol\":3656:3674  votings[_votingId] */\n      0x00\n        /* \"voting.sol\":3664:3673  _votingId */\n      dup5\n        /* \"voting.sol\":3656:3674  votings[_votingId] */\n      dup2\n      mstore\n      0x20\n      add\n      swap1\n      dup2\n      mstore\n      0x20\n      add\n      0x00\n      keccak256\n        /* \"voting.sol\":3656:3681  votings[_votingId].winner */\n      0x00\n      add\n      0x01\n        /* \"voting.sol\":3656:3687  votings[_votingId].winner = _to */\n      0x0100\n      exp\n      dup2\n      sload\n      dup2\n      0xffffffffffffffffffffffffffffffffffffffff\n      mul\n      not\n      and\n      swap1\n      dup4\n      0xffffffffffffffffffffffffffffffffffffffff\n      and\n      mul\n      or\n      swap1\n      sstore\n      pop\n        /* \"voting.sol\":3750:3757  votings */\n      0x03\n        /* \"voting.sol\":3750:3768  votings[_votingId] */\n      0x00\n        /* \"voting.sol\":3758:3767  _votingId */\n      dup4\n        /* \"voting.sol\":3750:3768  votings[_votingId] */\n      dup2\n      mstore\n      0x20\n      add\n      swap1\n      dup2\n      mstore\n      0x20\n      add\n      0x00\n      keccak256\n        /* \"voting.sol\":3750:3779  votings[_votingId].candidates */\n      0x05\n      add\n        /* \"voting.sol\":3750:3784  votings[_votingId].candidates[_to] */\n      0x00\n        /* \"voting.sol\":3780:3783  _to */\n      dup3\n        /* \"voting.sol\":3750:3784  votings[_votingId].candidates[_to] */\n      0xffffffffffffffffffffffffffffffffffffffff\n      and\n      0xffffffffffffffffffffffffffffffffffffffff\n      and\n      dup2\n      mstore\n      0x20\n      add\n      swap1\n      dup2\n      mstore\n      0x20\n      add\n      0x00\n      keccak256\n        /* \"voting.sol\":3750:3798  votings[_votingId].candidates[_to].votingBalance */\n      0x01\n      add\n      sload\n        /* \"voting.sol\":3702:3709  votings */\n      0x03\n        /* \"voting.sol\":3702:3720  votings[_votingId] */\n      0x00\n        /* \"voting.sol\":3710:3719  _votingId */\n      dup5\n        /* \"voting.sol\":3702:3720  votings[_votingId] */\n      dup2\n      mstore\n      0x20\n      add\n      swap1\n      dup2\n      mstore\n      0x20\n      add\n      0x00\n      keccak256\n        /* \"voting.sol\":3702:3747  votings[_votingId].winnerBalanceAtVotingClose */\n      0x03\n      add\n        /* \"voting.sol\":3702:3798  votings[_votingId].winnerBalanceAtVotingClose = votings[_votingId].candidates[_to].votingBalance */\n      dup2\n      swap1\n      sstore\n      pop\n        /* \"voting.sol\":3531:3810  if(votings[_votingId].candidates[_to].votingBalance > votings[_votingId].winnerBalanceAtVotingClose)... */\n    tag_185:\n        /* \"voting.sol\":3074:3817  function iAmVote(uint256 _votingId, address _to) public payable {... */\n      pop\n      pop\n      jump\t// out\n        /* \"#utility.yul\":7:84   */\n    tag_186:\n        /* \"#utility.yul\":44:51   */\n      0x00\n        /* \"#utility.yul\":73:78   */\n      dup2\n        /* \"#utility.yul\":62:78   */\n      swap1\n      pop\n        /* \"#utility.yul\":7:84   */\n      swap2\n      swap1\n      pop\n      jump\t// out\n        /* \"#utility.yul\":90:208   */\n    tag_187:\n        /* \"#utility.yul\":177:201   */\n      tag_232\n        /* \"#utility.yul\":195:200   */\n      dup2\n        /* \"#utility.yul\":177:201   */\n      tag_186\n      jump\t// in\n    tag_232:\n        /* \"#utility.yul\":172:175   */\n      dup3\n        /* \"#utility.yul\":165:202   */\n      mstore\n        /* \"#utility.yul\":90:208   */\n      pop\n      pop\n      jump\t// out\n        /* \"#utility.yul\":214:436   */\n    tag_24:\n        /* \"#utility.yul\":307:311   */\n      0x00\n        /* \"#utility.yul\":345:347   */\n      0x20\n        /* \"#utility.yul\":334:343   */\n      dup3\n        /* \"#utility.yul\":330:348   */\n      add\n        /* \"#utility.yul\":322:348   */\n      swap1\n      pop\n        /* \"#utility.yul\":358:429   */\n      tag_234\n        /* \"#utility.yul\":426:427   */\n      0x00\n        /* \"#utility.yul\":415:424   */\n      dup4\n        /* \"#utility.yul\":411:428   */\n      add\n        /* \"#utility.yul\":402:408   */\n      dup5\n        /* \"#utility.yul\":358:429   */\n      tag_187\n      jump\t// in\n    tag_234:\n        /* \"#utility.yul\":214:436   */\n      swap3\n      swap2\n      pop\n      pop\n      jump\t// out\n        /* \"#utility.yul\":523:640   */\n    tag_189:\n        /* \"#utility.yul\":632:633   */\n      0x00\n        /* \"#utility.yul\":629:630   */\n      dup1\n        /* \"#utility.yul\":622:634   */\n      revert\n        /* \"#utility.yul\":646:763   */\n    tag_190:\n        /* \"#utility.yul\":755:756   */\n      0x00\n        /* \"#utility.yul\":752:753   */\n      dup1\n        /* \"#utility.yul\":745:757   */\n      revert\n        /* \"#utility.yul\":769:891   */\n    tag_191:\n        /* \"#utility.yul\":842:866   */\n      tag_239\n        /* \"#utility.yul\":860:865   */\n      dup2\n        /* \"#utility.yul\":842:866   */\n      tag_186\n      jump\t// in\n    tag_239:\n        /* \"#utility.yul\":835:840   */\n      dup2\n        /* \"#utility.yul\":832:867   */\n      eq\n        /* \"#utility.yul\":822:885   */\n      tag_240\n      jumpi\n        /* \"#utility.yul\":881:882   */\n      0x00\n        /* \"#utility.yul\":878:879   */\n      dup1\n        /* \"#utility.yul\":871:883   */\n      revert\n        /* \"#utility.yul\":822:885   */\n    tag_240:\n        /* \"#utility.yul\":769:891   */\n      pop\n      jump\t// out\n        /* \"#utility.yul\":897:1036   */\n    tag_192:\n        /* \"#utility.yul\":943:948   */\n      0x00\n        /* \"#utility.yul\":981:987   */\n      dup2\n        /* \"#utility.yul\":968:988   */\n      calldataload\n        /* \"#utility.yul\":959:988   */\n      swap1\n      pop\n        /* \"#utility.yul\":997:1030   */\n      tag_242\n        /* \"#utility.yul\":1024:1029   */\n      dup2\n        /* \"#utility.yul\":997:1030   */\n      tag_191\n      jump\t// in\n    tag_242:\n        /* \"#utility.yul\":897:1036   */\n      swap3\n      swap2\n      pop\n      pop\n      jump\t// out\n        /* \"#utility.yul\":1042:1516   */\n    tag_28:\n        /* \"#utility.yul\":1110:1116   */\n      0x00\n        /* \"#utility.yul\":1118:1124   */\n      dup1\n        /* \"#utility.yul\":1167:1169   */\n      0x40\n        /* \"#utility.yul\":1155:1164   */\n      dup4\n        /* \"#utility.yul\":1146:1153   */\n      dup6\n        /* \"#utility.yul\":1142:1165   */\n      sub\n        /* \"#utility.yul\":1138:1170   */\n      slt\n        /* \"#utility.yul\":1135:1254   */\n      iszero\n      tag_244\n      jumpi\n        /* \"#utility.yul\":1173:1252   */\n      tag_245\n      tag_189\n      jump\t// in\n    tag_245:\n        /* \"#utility.yul\":1135:1254   */\n    tag_244:\n        /* \"#utility.yul\":1293:1294   */\n      0x00\n        /* \"#utility.yul\":1318:1371   */\n      tag_246\n        /* \"#utility.yul\":1363:1370   */\n      dup6\n        /* \"#utility.yul\":1354:1360   */\n      dup3\n        /* \"#utility.yul\":1343:1352   */\n      dup7\n        /* \"#utility.yul\":1339:1361   */\n      add\n        /* \"#utility.yul\":1318:1371   */\n      tag_192\n      jump\t// in\n    tag_246:\n        /* \"#utility.yul\":1308:1371   */\n      swap3\n      pop\n        /* \"#utility.yul\":1264:1381   */\n      pop\n        /* \"#utility.yul\":1420:1422   */\n      0x20\n        /* \"#utility.yul\":1446:1499   */\n      tag_247\n        /* \"#utility.yul\":1491:1498   */\n      dup6\n        /* \"#utility.yul\":1482:1488   */\n      dup3\n        /* \"#utility.yul\":1471:1480   */\n      dup7\n        /* \"#utility.yul\":1467:1489   */\n      add\n        /* \"#utility.yul\":1446:1499   */\n      tag_192\n      jump\t// in\n    tag_247:\n        /* \"#utility.yul\":1436:1499   */\n      swap2\n      pop\n        /* \"#utility.yul\":1391:1509   */\n      pop\n        /* \"#utility.yul\":1042:1516   */\n      swap3\n      pop\n      swap3\n      swap1\n      pop\n      jump\t// out\n        /* \"#utility.yul\":1522:1648   */\n    tag_193:\n        /* \"#utility.yul\":1559:1566   */\n      0x00\n        /* \"#utility.yul\":1599:1641   */\n      0xffffffffffffffffffffffffffffffffffffffff\n        /* \"#utility.yul\":1592:1597   */\n      dup3\n        /* \"#utility.yul\":1588:1642   */\n      and\n        /* \"#utility.yul\":1577:1642   */\n      swap1\n      pop\n        /* \"#utility.yul\":1522:1648   */\n      swap2\n      swap1\n      pop\n      jump\t// out\n        /* \"#utility.yul\":1654:1750   */\n    tag_194:\n        /* \"#utility.yul\":1691:1698   */\n      0x00\n        /* \"#utility.yul\":1720:1744   */\n      tag_250\n        /* \"#utility.yul\":1738:1743   */\n      dup3\n        /* \"#utility.yul\":1720:1744   */\n      tag_193\n      jump\t// in\n    tag_250:\n        /* \"#utility.yul\":1709:1744   */\n      swap1\n      pop\n        /* \"#utility.yul\":1654:1750   */\n      swap2\n      swap1\n      pop\n      jump\t// out\n        /* \"#utility.yul\":1756:1878   */\n    tag_195:\n        /* \"#utility.yul\":1829:1853   */\n      tag_252\n        /* \"#utility.yul\":1847:1852   */\n      dup2\n        /* \"#utility.yul\":1829:1853   */\n      tag_194\n      jump\t// in\n    tag_252:\n        /* \"#utility.yul\":1822:1827   */\n      dup2\n        /* \"#utility.yul\":1819:1854   */\n      eq\n        /* \"#utility.yul\":1809:1872   */\n      tag_253\n      jumpi\n        /* \"#utility.yul\":1868:1869   */\n      0x00\n        /* \"#utility.yul\":1865:1866   */\n      dup1\n        /* \"#utility.yul\":1858:1870   */\n      revert\n        /* \"#utility.yul\":1809:1872   */\n    tag_253:\n        /* \"#utility.yul\":1756:1878   */\n      pop\n      jump\t// out\n        /* \"#utility.yul\":1884:2023   */\n    tag_196:\n        /* \"#utility.yul\":1930:1935   */\n      0x00\n        /* \"#utility.yul\":1968:1974   */\n      dup2\n        /* \"#utility.yul\":1955:1975   */\n      calldataload\n        /* \"#utility.yul\":1946:1975   */\n      swap1\n      pop\n        /* \"#utility.yul\":1984:2017   */\n      tag_255\n        /* \"#utility.yul\":2011:2016   */\n      dup2\n        /* \"#utility.yul\":1984:2017   */\n      tag_195\n      jump\t// in\n    tag_255:\n        /* \"#utility.yul\":1884:2023   */\n      swap3\n      swap2\n      pop\n      pop\n      jump\t// out\n        /* \"#utility.yul\":2029:2503   */\n    tag_33:\n        /* \"#utility.yul\":2097:2103   */\n      0x00\n        /* \"#utility.yul\":2105:2111   */\n      dup1\n        /* \"#utility.yul\":2154:2156   */\n      0x40\n        /* \"#utility.yul\":2142:2151   */\n      dup4\n        /* \"#utility.yul\":2133:2140   */\n      dup6\n        /* \"#utility.yul\":2129:2152   */\n      sub\n        /* \"#utility.yul\":2125:2157   */\n      slt\n        /* \"#utility.yul\":2122:2241   */\n      iszero\n      tag_257\n      jumpi\n        /* \"#utility.yul\":2160:2239   */\n      tag_258\n      tag_189\n      jump\t// in\n    tag_258:\n        /* \"#utility.yul\":2122:2241   */\n    tag_257:\n        /* \"#utility.yul\":2280:2281   */\n      0x00\n        /* \"#utility.yul\":2305:2358   */\n      tag_259\n        /* \"#utility.yul\":2350:2357   */\n      dup6\n        /* \"#utility.yul\":2341:2347   */\n      dup3\n        /* \"#utility.yul\":2330:2339   */\n      dup7\n        /* \"#utility.yul\":2326:2348   */\n      add\n        /* \"#utility.yul\":2305:2358   */\n      tag_192\n      jump\t// in\n    tag_259:\n        /* \"#utility.yul\":2295:2358   */\n      swap3\n      pop\n        /* \"#utility.yul\":2251:2368   */\n      pop\n        /* \"#utility.yul\":2407:2409   */\n      0x20\n        /* \"#utility.yul\":2433:2486   */\n      tag_260\n        /* \"#utility.yul\":2478:2485   */\n      dup6\n        /* \"#utility.yul\":2469:2475   */\n      dup3\n        /* \"#utility.yul\":2458:2467   */\n      dup7\n        /* \"#utility.yul\":2454:2476   */\n      add\n        /* \"#utility.yul\":2433:2486   */\n      tag_196\n      jump\t// in\n    tag_260:\n        /* \"#utility.yul\":2423:2486   */\n      swap2\n      pop\n        /* \"#utility.yul\":2378:2496   */\n      pop\n        /* \"#utility.yul\":2029:2503   */\n      swap3\n      pop\n      swap3\n      swap1\n      pop\n      jump\t// out\n        /* \"#utility.yul\":2509:2838   */\n    tag_38:\n        /* \"#utility.yul\":2568:2574   */\n      0x00\n        /* \"#utility.yul\":2617:2619   */\n      0x20\n        /* \"#utility.yul\":2605:2614   */\n      dup3\n        /* \"#utility.yul\":2596:2603   */\n      dup5\n        /* \"#utility.yul\":2592:2615   */\n      sub\n        /* \"#utility.yul\":2588:2620   */\n      slt\n        /* \"#utility.yul\":2585:2704   */\n      iszero\n      tag_262\n      jumpi\n        /* \"#utility.yul\":2623:2702   */\n      tag_263\n      tag_189\n      jump\t// in\n    tag_263:\n        /* \"#utility.yul\":2585:2704   */\n    tag_262:\n        /* \"#utility.yul\":2743:2744   */\n      0x00\n        /* \"#utility.yul\":2768:2821   */\n      tag_264\n        /* \"#utility.yul\":2813:2820   */\n      dup5\n        /* \"#utility.yul\":2804:2810   */\n      dup3\n        /* \"#utility.yul\":2793:2802   */\n      dup6\n        /* \"#utility.yul\":2789:2811   */\n      add\n        /* \"#utility.yul\":2768:2821   */\n      tag_192\n      jump\t// in\n    tag_264:\n        /* \"#utility.yul\":2758:2821   */\n      swap2\n      pop\n        /* \"#utility.yul\":2714:2831   */\n      pop\n        /* \"#utility.yul\":2509:2838   */\n      swap3\n      swap2\n      pop\n      pop\n      jump\t// out\n        /* \"#utility.yul\":2844:2934   */\n    tag_197:\n        /* \"#utility.yul\":2878:2885   */\n      0x00\n        /* \"#utility.yul\":2921:2926   */\n      dup2\n        /* \"#utility.yul\":2914:2927   */\n      iszero\n        /* \"#utility.yul\":2907:2928   */\n      iszero\n        /* \"#utility.yul\":2896:2928   */\n      swap1\n      pop\n        /* \"#utility.yul\":2844:2934   */\n      swap2\n      swap1\n      pop\n      jump\t// out\n        /* \"#utility.yul\":2940:3049   */\n    tag_198:\n        /* \"#utility.yul\":3021:3042   */\n      tag_267\n        /* \"#utility.yul\":3036:3041   */\n      dup2\n        /* \"#utility.yul\":3021:3042   */\n      tag_197\n      jump\t// in\n    tag_267:\n        /* \"#utility.yul\":3016:3019   */\n      dup3\n        /* \"#utility.yul\":3009:3043   */\n      mstore\n        /* \"#utility.yul\":2940:3049   */\n      pop\n      pop\n      jump\t// out\n        /* \"#utility.yul\":3055:3173   */\n    tag_199:\n        /* \"#utility.yul\":3142:3166   */\n      tag_269\n        /* \"#utility.yul\":3160:3165   */\n      dup2\n        /* \"#utility.yul\":3142:3166   */\n      tag_194\n      jump\t// in\n    tag_269:\n        /* \"#utility.yul\":3137:3140   */\n      dup3\n        /* \"#utility.yul\":3130:3167   */\n      mstore\n        /* \"#utility.yul\":3055:3173   */\n      pop\n      pop\n      jump\t// out\n        /* \"#utility.yul\":3179:3831   */\n    tag_41:\n        /* \"#utility.yul\":3378:3382   */\n      0x00\n        /* \"#utility.yul\":3416:3419   */\n      0xa0\n        /* \"#utility.yul\":3405:3414   */\n      dup3\n        /* \"#utility.yul\":3401:3420   */\n      add\n        /* \"#utility.yul\":3393:3420   */\n      swap1\n      pop\n        /* \"#utility.yul\":3430:3495   */\n      tag_271\n        /* \"#utility.yul\":3492:3493   */\n      0x00\n        /* \"#utility.yul\":3481:3490   */\n      dup4\n        /* \"#utility.yul\":3477:3494   */\n      add\n        /* \"#utility.yul\":3468:3474   */\n      dup9\n        /* \"#utility.yul\":3430:3495   */\n      tag_198\n      jump\t// in\n    tag_271:\n        /* \"#utility.yul\":3505:3577   */\n      tag_272\n        /* \"#utility.yul\":3573:3575   */\n      0x20\n        /* \"#utility.yul\":3562:3571   */\n      dup4\n        /* \"#utility.yul\":3558:3576   */\n      add\n        /* \"#utility.yul\":3549:3555   */\n      dup8\n        /* \"#utility.yul\":3505:3577   */\n      tag_199\n      jump\t// in\n    tag_272:\n        /* \"#utility.yul\":3587:3659   */\n      tag_273\n        /* \"#utility.yul\":3655:3657   */\n      0x40\n        /* \"#utility.yul\":3644:3653   */\n      dup4\n        /* \"#utility.yul\":3640:3658   */\n      add\n        /* \"#utility.yul\":3631:3637   */\n      dup7\n        /* \"#utility.yul\":3587:3659   */\n      tag_187\n      jump\t// in\n    tag_273:\n        /* \"#utility.yul\":3669:3741   */\n      tag_274\n        /* \"#utility.yul\":3737:3739   */\n      0x60\n        /* \"#utility.yul\":3726:3735   */\n      dup4\n        /* \"#utility.yul\":3722:3740   */\n      add\n        /* \"#utility.yul\":3713:3719   */\n      dup6\n        /* \"#utility.yul\":3669:3741   */\n      tag_187\n      jump\t// in\n    tag_274:\n        /* \"#utility.yul\":3751:3824   */\n      tag_275\n        /* \"#utility.yul\":3819:3822   */\n      0x80\n        /* \"#utility.yul\":3808:3817   */\n      dup4\n        /* \"#utility.yul\":3804:3823   */\n      add\n        /* \"#utility.yul\":3795:3801   */\n      dup5\n        /* \"#utility.yul\":3751:3824   */\n      tag_187\n      jump\t// in\n    tag_275:\n        /* \"#utility.yul\":3179:3831   */\n      swap7\n      swap6\n      pop\n      pop\n      pop\n      pop\n      pop\n      pop\n      jump\t// out\n        /* \"#utility.yul\":3837:4059   */\n    tag_58:\n        /* \"#utility.yul\":3930:3934   */\n      0x00\n        /* \"#utility.yul\":3968:3970   */\n      0x20\n        /* \"#utility.yul\":3957:3966   */\n      dup3\n        /* \"#utility.yul\":3953:3971   */\n      add\n        /* \"#utility.yul\":3945:3971   */\n      swap1\n      pop\n        /* \"#utility.yul\":3981:4052   */\n      tag_277\n        /* \"#utility.yul\":4049:4050   */\n      0x00\n        /* \"#utility.yul\":4038:4047   */\n      dup4\n        /* \"#utility.yul\":4034:4051   */\n      add\n        /* \"#utility.yul\":4025:4031   */\n      dup5\n        /* \"#utility.yul\":3981:4052   */\n      tag_199\n      jump\t// in\n    tag_277:\n        /* \"#utility.yul\":3837:4059   */\n      swap3\n      swap2\n      pop\n      pop\n      jump\t// out\n        /* \"#utility.yul\":4065:4275   */\n    tag_68:\n        /* \"#utility.yul\":4152:4156   */\n      0x00\n        /* \"#utility.yul\":4190:4192   */\n      0x20\n        /* \"#utility.yul\":4179:4188   */\n      dup3\n        /* \"#utility.yul\":4175:4193   */\n      add\n        /* \"#utility.yul\":4167:4193   */\n      swap1\n      pop\n        /* \"#utility.yul\":4203:4268   */\n      tag_279\n        /* \"#utility.yul\":4265:4266   */\n      0x00\n        /* \"#utility.yul\":4254:4263   */\n      dup4\n        /* \"#utility.yul\":4250:4267   */\n      add\n        /* \"#utility.yul\":4241:4247   */\n      dup5\n        /* \"#utility.yul\":4203:4268   */\n      tag_198\n      jump\t// in\n    tag_279:\n        /* \"#utility.yul\":4065:4275   */\n      swap3\n      swap2\n      pop\n      pop\n      jump\t// out\n        /* \"#utility.yul\":4281:4367   */\n    tag_200:\n        /* \"#utility.yul\":4316:4323   */\n      0x00\n        /* \"#utility.yul\":4356:4360   */\n      0xff\n        /* \"#utility.yul\":4349:4354   */\n      dup3\n        /* \"#utility.yul\":4345:4361   */\n      and\n        /* \"#utility.yul\":4334:4361   */\n      swap1\n      pop\n        /* \"#utility.yul\":4281:4367   */\n      swap2\n      swap1\n      pop\n      jump\t// out\n        /* \"#utility.yul\":4373:4485   */\n    tag_201:\n        /* \"#utility.yul\":4456:4478   */\n      tag_282\n        /* \"#utility.yul\":4472:4477   */\n      dup2\n        /* \"#utility.yul\":4456:4478   */\n      tag_200\n      jump\t// in\n    tag_282:\n        /* \"#utility.yul\":4451:4454   */\n      dup3\n        /* \"#utility.yul\":4444:4479   */\n      mstore\n        /* \"#utility.yul\":4373:4485   */\n      pop\n      pop\n      jump\t// out\n        /* \"#utility.yul\":4491:4705   */\n    tag_77:\n        /* \"#utility.yul\":4580:4584   */\n      0x00\n        /* \"#utility.yul\":4618:4620   */\n      0x20\n        /* \"#utility.yul\":4607:4616   */\n      dup3\n        /* \"#utility.yul\":4603:4621   */\n      add\n        /* \"#utility.yul\":4595:4621   */\n      swap1\n      pop\n        /* \"#utility.yul\":4631:4698   */\n      tag_284\n        /* \"#utility.yul\":4695:4696   */\n      0x00\n        /* \"#utility.yul\":4684:4693   */\n      dup4\n        /* \"#utility.yul\":4680:4697   */\n      add\n        /* \"#utility.yul\":4671:4677   */\n      dup5\n        /* \"#utility.yul\":4631:4698   */\n      tag_201\n      jump\t// in\n    tag_284:\n        /* \"#utility.yul\":4491:4705   */\n      swap3\n      swap2\n      pop\n      pop\n      jump\t// out\n        /* \"#utility.yul\":4711:4828   */\n    tag_202:\n        /* \"#utility.yul\":4820:4821   */\n      0x00\n        /* \"#utility.yul\":4817:4818   */\n      dup1\n        /* \"#utility.yul\":4810:4822   */\n      revert\n        /* \"#utility.yul\":4834:4951   */\n    tag_203:\n        /* \"#utility.yul\":4943:4944   */\n      0x00\n        /* \"#utility.yul\":4940:4941   */\n      dup1\n        /* \"#utility.yul\":4933:4945   */\n      revert\n        /* \"#utility.yul\":4957:5074   */\n    tag_204:\n        /* \"#utility.yul\":5066:5067   */\n      0x00\n        /* \"#utility.yul\":5063:5064   */\n      dup1\n        /* \"#utility.yul\":5056:5068   */\n      revert\n        /* \"#utility.yul\":5097:5665   */\n    tag_205:\n        /* \"#utility.yul\":5170:5178   */\n      0x00\n        /* \"#utility.yul\":5180:5186   */\n      dup1\n        /* \"#utility.yul\":5230:5233   */\n      dup4\n        /* \"#utility.yul\":5223:5227   */\n      0x1f\n        /* \"#utility.yul\":5215:5221   */\n      dup5\n        /* \"#utility.yul\":5211:5228   */\n      add\n        /* \"#utility.yul\":5207:5234   */\n      slt\n        /* \"#utility.yul\":5197:5319   */\n      tag_289\n      jumpi\n        /* \"#utility.yul\":5238:5317   */\n      tag_290\n      tag_202\n      jump\t// in\n    tag_290:\n        /* \"#utility.yul\":5197:5319   */\n    tag_289:\n        /* \"#utility.yul\":5351:5357   */\n      dup3\n        /* \"#utility.yul\":5338:5358   */\n      calldataload\n        /* \"#utility.yul\":5328:5358   */\n      swap1\n      pop\n        /* \"#utility.yul\":5381:5399   */\n      0xffffffffffffffff\n        /* \"#utility.yul\":5373:5379   */\n      dup2\n        /* \"#utility.yul\":5370:5400   */\n      gt\n        /* \"#utility.yul\":5367:5484   */\n      iszero\n      tag_291\n      jumpi\n        /* \"#utility.yul\":5403:5482   */\n      tag_292\n      tag_203\n      jump\t// in\n    tag_292:\n        /* \"#utility.yul\":5367:5484   */\n    tag_291:\n        /* \"#utility.yul\":5517:5521   */\n      0x20\n        /* \"#utility.yul\":5509:5515   */\n      dup4\n        /* \"#utility.yul\":5505:5522   */\n      add\n        /* \"#utility.yul\":5493:5522   */\n      swap2\n      pop\n        /* \"#utility.yul\":5571:5574   */\n      dup4\n        /* \"#utility.yul\":5563:5567   */\n      0x20\n        /* \"#utility.yul\":5555:5561   */\n      dup3\n        /* \"#utility.yul\":5551:5568   */\n      mul\n        /* \"#utility.yul\":5541:5549   */\n      dup4\n        /* \"#utility.yul\":5537:5569   */\n      add\n        /* \"#utility.yul\":5534:5575   */\n      gt\n        /* \"#utility.yul\":5531:5659   */\n      iszero\n      tag_293\n      jumpi\n        /* \"#utility.yul\":5578:5657   */\n      tag_294\n      tag_204\n      jump\t// in\n    tag_294:\n        /* \"#utility.yul\":5531:5659   */\n    tag_293:\n        /* \"#utility.yul\":5097:5665   */\n      swap3\n      pop\n      swap3\n      swap1\n      pop\n      jump\t// out\n        /* \"#utility.yul\":5671:6375   */\n    tag_81:\n        /* \"#utility.yul\":5766:5772   */\n      0x00\n        /* \"#utility.yul\":5774:5780   */\n      dup1\n        /* \"#utility.yul\":5782:5788   */\n      0x00\n        /* \"#utility.yul\":5831:5833   */\n      0x40\n        /* \"#utility.yul\":5819:5828   */\n      dup5\n        /* \"#utility.yul\":5810:5817   */\n      dup7\n        /* \"#utility.yul\":5806:5829   */\n      sub\n        /* \"#utility.yul\":5802:5834   */\n      slt\n        /* \"#utility.yul\":5799:5918   */\n      iszero\n      tag_296\n      jumpi\n        /* \"#utility.yul\":5837:5916   */\n      tag_297\n      tag_189\n      jump\t// in\n    tag_297:\n        /* \"#utility.yul\":5799:5918   */\n    tag_296:\n        /* \"#utility.yul\":5957:5958   */\n      0x00\n        /* \"#utility.yul\":5982:6035   */\n      tag_298\n        /* \"#utility.yul\":6027:6034   */\n      dup7\n        /* \"#utility.yul\":6018:6024   */\n      dup3\n        /* \"#utility.yul\":6007:6016   */\n      dup8\n        /* \"#utility.yul\":6003:6025   */\n      add\n        /* \"#utility.yul\":5982:6035   */\n      tag_192\n      jump\t// in\n    tag_298:\n        /* \"#utility.yul\":5972:6035   */\n      swap4\n      pop\n        /* \"#utility.yul\":5928:6045   */\n      pop\n        /* \"#utility.yul\":6112:6114   */\n      0x20\n        /* \"#utility.yul\":6101:6110   */\n      dup5\n        /* \"#utility.yul\":6097:6115   */\n      add\n        /* \"#utility.yul\":6084:6116   */\n      calldataload\n        /* \"#utility.yul\":6143:6161   */\n      0xffffffffffffffff\n        /* \"#utility.yul\":6135:6141   */\n      dup2\n        /* \"#utility.yul\":6132:6162   */\n      gt\n        /* \"#utility.yul\":6129:6246   */\n      iszero\n      tag_299\n      jumpi\n        /* \"#utility.yul\":6165:6244   */\n      tag_300\n      tag_190\n      jump\t// in\n    tag_300:\n        /* \"#utility.yul\":6129:6246   */\n    tag_299:\n        /* \"#utility.yul\":6278:6358   */\n      tag_301\n        /* \"#utility.yul\":6350:6357   */\n      dup7\n        /* \"#utility.yul\":6341:6347   */\n      dup3\n        /* \"#utility.yul\":6330:6339   */\n      dup8\n        /* \"#utility.yul\":6326:6348   */\n      add\n        /* \"#utility.yul\":6278:6358   */\n      tag_205\n      jump\t// in\n    tag_301:\n        /* \"#utility.yul\":6260:6358   */\n      swap3\n      pop\n      swap3\n      pop\n        /* \"#utility.yul\":6055:6368   */\n      pop\n        /* \"#utility.yul\":5671:6375   */\n      swap3\n      pop\n      swap3\n      pop\n      swap3\n      jump\t// out\n        /* \"#utility.yul\":6381:6550   */\n    tag_206:\n        /* \"#utility.yul\":6465:6476   */\n      0x00\n        /* \"#utility.yul\":6499:6505   */\n      dup3\n        /* \"#utility.yul\":6494:6497   */\n      dup3\n        /* \"#utility.yul\":6487:6506   */\n      mstore\n        /* \"#utility.yul\":6539:6543   */\n      0x20\n        /* \"#utility.yul\":6534:6537   */\n      dup3\n        /* \"#utility.yul\":6530:6544   */\n      add\n        /* \"#utility.yul\":6515:6544   */\n      swap1\n      pop\n        /* \"#utility.yul\":6381:6550   */\n      swap3\n      swap2\n      pop\n      pop\n      jump\t// out\n        /* \"#utility.yul\":6556:6786   */\n    tag_207:\n        /* \"#utility.yul\":6696:6730   */\n      0x4572726f722120596f75277265206e6f742074686520736d61727420636f6e74\n        /* \"#utility.yul\":6692:6693   */\n      0x00\n        /* \"#utility.yul\":6684:6690   */\n      dup3\n        /* \"#utility.yul\":6680:6694   */\n      add\n        /* \"#utility.yul\":6673:6731   */\n      mstore\n        /* \"#utility.yul\":6765:6778   */\n      0x72616374206f776e657221000000000000000000000000000000000000000000\n        /* \"#utility.yul\":6760:6762   */\n      0x20\n        /* \"#utility.yul\":6752:6758   */\n      dup3\n        /* \"#utility.yul\":6748:6763   */\n      add\n        /* \"#utility.yul\":6741:6779   */\n      mstore\n        /* \"#utility.yul\":6556:6786   */\n      pop\n      jump\t// out\n        /* \"#utility.yul\":6792:7158   */\n    tag_208:\n        /* \"#utility.yul\":6934:6937   */\n      0x00\n        /* \"#utility.yul\":6955:7022   */\n      tag_305\n        /* \"#utility.yul\":7019:7021   */\n      0x2b\n        /* \"#utility.yul\":7014:7017   */\n      dup4\n        /* \"#utility.yul\":6955:7022   */\n      tag_206\n      jump\t// in\n    tag_305:\n        /* \"#utility.yul\":6948:7022   */\n      swap2\n      pop\n        /* \"#utility.yul\":7031:7124   */\n      tag_306\n        /* \"#utility.yul\":7120:7123   */\n      dup3\n        /* \"#utility.yul\":7031:7124   */\n      tag_207\n      jump\t// in\n    tag_306:\n        /* \"#utility.yul\":7149:7151   */\n      0x40\n        /* \"#utility.yul\":7144:7147   */\n      dup3\n        /* \"#utility.yul\":7140:7152   */\n      add\n        /* \"#utility.yul\":7133:7152   */\n      swap1\n      pop\n        /* \"#utility.yul\":6792:7158   */\n      swap2\n      swap1\n      pop\n      jump\t// out\n        /* \"#utility.yul\":7164:7583   */\n    tag_93:\n        /* \"#utility.yul\":7330:7334   */\n      0x00\n        /* \"#utility.yul\":7368:7370   */\n      0x20\n        /* \"#utility.yul\":7357:7366   */\n      dup3\n        /* \"#utility.yul\":7353:7371   */\n      add\n        /* \"#utility.yul\":7345:7371   */\n      swap1\n      pop\n        /* \"#utility.yul\":7417:7426   */\n      dup2\n        /* \"#utility.yul\":7411:7415   */\n      dup2\n        /* \"#utility.yul\":7407:7427   */\n      sub\n        /* \"#utility.yul\":7403:7404   */\n      0x00\n        /* \"#utility.yul\":7392:7401   */\n      dup4\n        /* \"#utility.yul\":7388:7405   */\n      add\n        /* \"#utility.yul\":7381:7428   */\n      mstore\n        /* \"#utility.yul\":7445:7576   */\n      tag_308\n        /* \"#utility.yul\":7571:7575   */\n      dup2\n        /* \"#utility.yul\":7445:7576   */\n      tag_208\n      jump\t// in\n    tag_308:\n        /* \"#utility.yul\":7437:7576   */\n      swap1\n      pop\n        /* \"#utility.yul\":7164:7583   */\n      swap2\n      swap1\n      pop\n      jump\t// out\n        /* \"#utility.yul\":7589:7764   */\n    tag_209:\n        /* \"#utility.yul\":7729:7756   */\n      0x566f74696e672068617320616c726561647920626567756e2100000000000000\n        /* \"#utility.yul\":7725:7726   */\n      0x00\n        /* \"#utility.yul\":7717:7723   */\n      dup3\n        /* \"#utility.yul\":7713:7727   */\n      add\n        /* \"#utility.yul\":7706:7757   */\n      mstore\n        /* \"#utility.yul\":7589:7764   */\n      pop\n      jump\t// out\n        /* \"#utility.yul\":7770:8136   */\n    tag_210:\n        /* \"#utility.yul\":7912:7915   */\n      0x00\n        /* \"#utility.yul\":7933:8000   */\n      tag_311\n        /* \"#utility.yul\":7997:7999   */\n      0x19\n        /* \"#utility.yul\":7992:7995   */\n      dup4\n        /* \"#utility.yul\":7933:8000   */\n      tag_206\n      jump\t// in\n    tag_311:\n        /* \"#utility.yul\":7926:8000   */\n      swap2\n      pop\n        /* \"#utility.yul\":8009:8102   */\n      tag_312\n        /* \"#utility.yul\":8098:8101   */\n      dup3\n        /* \"#utility.yul\":8009:8102   */\n      tag_209\n      jump\t// in\n    tag_312:\n        /* \"#utility.yul\":8127:8129   */\n      0x20\n        /* \"#utility.yul\":8122:8125   */\n      dup3\n        /* \"#utility.yul\":8118:8130   */\n      add\n        /* \"#utility.yul\":8111:8130   */\n      swap1\n      pop\n        /* \"#utility.yul\":7770:8136   */\n      swap2\n      swap1\n      pop\n      jump\t// out\n        /* \"#utility.yul\":8142:8561   */\n    tag_97:\n        /* \"#utility.yul\":8308:8312   */\n      0x00\n        /* \"#utility.yul\":8346:8348   */\n      0x20\n        /* \"#utility.yul\":8335:8344   */\n      dup3\n        /* \"#utility.yul\":8331:8349   */\n      add\n        /* \"#utility.yul\":8323:8349   */\n      swap1\n      pop\n        /* \"#utility.yul\":8395:8404   */\n      dup2\n        /* \"#utility.yul\":8389:8393   */\n      dup2\n        /* \"#utility.yul\":8385:8405   */\n      sub\n        /* \"#utility.yul\":8381:8382   */\n      0x00\n        /* \"#utility.yul\":8370:8379   */\n      dup4\n        /* \"#utility.yul\":8366:8383   */\n      add\n        /* \"#utility.yul\":8359:8406   */\n      mstore\n        /* \"#utility.yul\":8423:8554   */\n      tag_314\n        /* \"#utility.yul\":8549:8553   */\n      dup2\n        /* \"#utility.yul\":8423:8554   */\n      tag_210\n      jump\t// in\n    tag_314:\n        /* \"#utility.yul\":8415:8554   */\n      swap1\n      pop\n        /* \"#utility.yul\":8142:8561   */\n      swap2\n      swap1\n      pop\n      jump\t// out\n        /* \"#utility.yul\":8567:8739   */\n    tag_211:\n        /* \"#utility.yul\":8707:8731   */\n      0x566f74696e67206e6f7420737461727465642079657400000000000000000000\n        /* \"#utility.yul\":8703:8704   */\n      0x00\n        /* \"#utility.yul\":8695:8701   */\n      dup3\n        /* \"#utility.yul\":8691:8705   */\n      add\n        /* \"#utility.yul\":8684:8732   */\n      mstore\n        /* \"#utility.yul\":8567:8739   */\n      pop\n      jump\t// out\n        /* \"#utility.yul\":8745:9111   */\n    tag_212:\n        /* \"#utility.yul\":8887:8890   */\n      0x00\n        /* \"#utility.yul\":8908:8975   */\n      tag_317\n        /* \"#utility.yul\":8972:8974   */\n      0x16\n        /* \"#utility.yul\":8967:8970   */\n      dup4\n        /* \"#utility.yul\":8908:8975   */\n      tag_206\n      jump\t// in\n    tag_317:\n        /* \"#utility.yul\":8901:8975   */\n      swap2\n      pop\n        /* \"#utility.yul\":8984:9077   */\n      tag_318\n        /* \"#utility.yul\":9073:9076   */\n      dup3\n        /* \"#utility.yul\":8984:9077   */\n      tag_211\n      jump\t// in\n    tag_318:\n        /* \"#utility.yul\":9102:9104   */\n      0x20\n        /* \"#utility.yul\":9097:9100   */\n      dup3\n        /* \"#utility.yul\":9093:9105   */\n      add\n        /* \"#utility.yul\":9086:9105   */\n      swap1\n      pop\n        /* \"#utility.yul\":8745:9111   */\n      swap2\n      swap1\n      pop\n      jump\t// out\n        /* \"#utility.yul\":9117:9536   */\n    tag_121:\n        /* \"#utility.yul\":9283:9287   */\n      0x00\n        /* \"#utility.yul\":9321:9323   */\n      0x20\n        /* \"#utility.yul\":9310:9319   */\n      dup3\n        /* \"#utility.yul\":9306:9324   */\n      add\n        /* \"#utility.yul\":9298:9324   */\n      swap1\n      pop\n        /* \"#utility.yul\":9370:9379   */\n      dup2\n        /* \"#utility.yul\":9364:9368   */\n      dup2\n        /* \"#utility.yul\":9360:9380   */\n      sub\n        /* \"#utility.yul\":9356:9357   */\n      0x00\n        /* \"#utility.yul\":9345:9354   */\n      dup4\n        /* \"#utility.yul\":9341:9358   */\n      add\n        /* \"#utility.yul\":9334:9381   */\n      mstore\n        /* \"#utility.yul\":9398:9529   */\n      tag_320\n        /* \"#utility.yul\":9524:9528   */\n      dup2\n        /* \"#utility.yul\":9398:9529   */\n      tag_212\n      jump\t// in\n    tag_320:\n        /* \"#utility.yul\":9390:9529   */\n      swap1\n      pop\n        /* \"#utility.yul\":9117:9536   */\n      swap2\n      swap1\n      pop\n      jump\t// out\n        /* \"#utility.yul\":9542:9722   */\n    tag_213:\n        /* \"#utility.yul\":9590:9667   */\n      0x4e487b7100000000000000000000000000000000000000000000000000000000\n        /* \"#utility.yul\":9587:9588   */\n      0x00\n        /* \"#utility.yul\":9580:9668   */\n      mstore\n        /* \"#utility.yul\":9687:9691   */\n      0x11\n        /* \"#utility.yul\":9684:9685   */\n      0x04\n        /* \"#utility.yul\":9677:9692   */\n      mstore\n        /* \"#utility.yul\":9711:9715   */\n      0x24\n        /* \"#utility.yul\":9708:9709   */\n      0x00\n        /* \"#utility.yul\":9701:9716   */\n      revert\n        /* \"#utility.yul\":9728:9919   */\n    tag_123:\n        /* \"#utility.yul\":9768:9771   */\n      0x00\n        /* \"#utility.yul\":9787:9807   */\n      tag_323\n        /* \"#utility.yul\":9805:9806   */\n      dup3\n        /* \"#utility.yul\":9787:9807   */\n      tag_186\n      jump\t// in\n    tag_323:\n        /* \"#utility.yul\":9782:9807   */\n      swap2\n      pop\n        /* \"#utility.yul\":9821:9841   */\n      tag_324\n        /* \"#utility.yul\":9839:9840   */\n      dup4\n        /* \"#utility.yul\":9821:9841   */\n      tag_186\n      jump\t// in\n    tag_324:\n        /* \"#utility.yul\":9816:9841   */\n      swap3\n      pop\n        /* \"#utility.yul\":9864:9865   */\n      dup3\n        /* \"#utility.yul\":9861:9862   */\n      dup3\n        /* \"#utility.yul\":9857:9866   */\n      add\n        /* \"#utility.yul\":9850:9866   */\n      swap1\n      pop\n        /* \"#utility.yul\":9885:9888   */\n      dup1\n        /* \"#utility.yul\":9882:9883   */\n      dup3\n        /* \"#utility.yul\":9879:9889   */\n      gt\n        /* \"#utility.yul\":9876:9912   */\n      iszero\n      tag_325\n      jumpi\n        /* \"#utility.yul\":9892:9910   */\n      tag_326\n      tag_213\n      jump\t// in\n    tag_326:\n        /* \"#utility.yul\":9876:9912   */\n    tag_325:\n        /* \"#utility.yul\":9728:9919   */\n      swap3\n      swap2\n      pop\n      pop\n      jump\t// out\n        /* \"#utility.yul\":9925:10098   */\n    tag_214:\n        /* \"#utility.yul\":10065:10090   */\n      0x566f74696e67206973206e6f74206f7665722079657421000000000000000000\n        /* \"#utility.yul\":10061:10062   */\n      0x00\n        /* \"#utility.yul\":10053:10059   */\n      dup3\n        /* \"#utility.yul\":10049:10063   */\n      add\n        /* \"#utility.yul\":10042:10091   */\n      mstore\n        /* \"#utility.yul\":9925:10098   */\n      pop\n      jump\t// out\n        /* \"#utility.yul\":10104:10470   */\n    tag_215:\n        /* \"#utility.yul\":10246:10249   */\n      0x00\n        /* \"#utility.yul\":10267:10334   */\n      tag_329\n        /* \"#utility.yul\":10331:10333   */\n      0x17\n        /* \"#utility.yul\":10326:10329   */\n      dup4\n        /* \"#utility.yul\":10267:10334   */\n      tag_206\n      jump\t// in\n    tag_329:\n        /* \"#utility.yul\":10260:10334   */\n      swap2\n      pop\n        /* \"#utility.yul\":10343:10436   */\n      tag_330\n        /* \"#utility.yul\":10432:10435   */\n      dup3\n        /* \"#utility.yul\":10343:10436   */\n      tag_214\n      jump\t// in\n    tag_330:\n        /* \"#utility.yul\":10461:10463   */\n      0x20\n        /* \"#utility.yul\":10456:10459   */\n      dup3\n        /* \"#utility.yul\":10452:10464   */\n      add\n        /* \"#utility.yul\":10445:10464   */\n      swap1\n      pop\n        /* \"#utility.yul\":10104:10470   */\n      swap2\n      swap1\n      pop\n      jump\t// out\n        /* \"#utility.yul\":10476:10895   */\n    tag_126:\n        /* \"#utility.yul\":10642:10646   */\n      0x00\n        /* \"#utility.yul\":10680:10682   */\n      0x20\n        /* \"#utility.yul\":10669:10678   */\n      dup3\n        /* \"#utility.yul\":10665:10683   */\n      add\n        /* \"#utility.yul\":10657:10683   */\n      swap1\n      pop\n        /* \"#utility.yul\":10729:10738   */\n      dup2\n        /* \"#utility.yul\":10723:10727   */\n      dup2\n        /* \"#utility.yul\":10719:10739   */\n      sub\n        /* \"#utility.yul\":10715:10716   */\n      0x00\n        /* \"#utility.yul\":10704:10713   */\n      dup4\n        /* \"#utility.yul\":10700:10717   */\n      add\n        /* \"#utility.yul\":10693:10740   */\n      mstore\n        /* \"#utility.yul\":10757:10888   */\n      tag_332\n        /* \"#utility.yul\":10883:10887   */\n      dup2\n        /* \"#utility.yul\":10757:10888   */\n      tag_215\n      jump\t// in\n    tag_332:\n        /* \"#utility.yul\":10749:10888   */\n      swap1\n      pop\n        /* \"#utility.yul\":10476:10895   */\n      swap2\n      swap1\n      pop\n      jump\t// out\n        /* \"#utility.yul\":10901:11072   */\n    tag_216:\n        /* \"#utility.yul\":11041:11064   */\n      0x596f7520617265206e6f7420612077696e6e6572210000000000000000000000\n        /* \"#utility.yul\":11037:11038   */\n      0x00\n        /* \"#utility.yul\":11029:11035   */\n      dup3\n        /* \"#utility.yul\":11025:11039   */\n      add\n        /* \"#utility.yul\":11018:11065   */\n      mstore\n        /* \"#utility.yul\":10901:11072   */\n      pop\n      jump\t// out\n        /* \"#utility.yul\":11078:11444   */\n    tag_217:\n        /* \"#utility.yul\":11220:11223   */\n      0x00\n        /* \"#utility.yul\":11241:11308   */\n      tag_335\n        /* \"#utility.yul\":11305:11307   */\n      0x15\n        /* \"#utility.yul\":11300:11303   */\n      dup4\n        /* \"#utility.yul\":11241:11308   */\n      tag_206\n      jump\t// in\n    tag_335:\n        /* \"#utility.yul\":11234:11308   */\n      swap2\n      pop\n        /* \"#utility.yul\":11317:11410   */\n      tag_336\n        /* \"#utility.yul\":11406:11409   */\n      dup3\n        /* \"#utility.yul\":11317:11410   */\n      tag_216\n      jump\t// in\n    tag_336:\n        /* \"#utility.yul\":11435:11437   */\n      0x20\n        /* \"#utility.yul\":11430:11433   */\n      dup3\n        /* \"#utility.yul\":11426:11438   */\n      add\n        /* \"#utility.yul\":11419:11438   */\n      swap1\n      pop\n        /* \"#utility.yul\":11078:11444   */\n      swap2\n      swap1\n      pop\n      jump\t// out\n        /* \"#utility.yul\":11450:11869   */\n    tag_129:\n        /* \"#utility.yul\":11616:11620   */\n      0x00\n        /* \"#utility.yul\":11654:11656   */\n      0x20\n        /* \"#utility.yul\":11643:11652   */\n      dup3\n        /* \"#utility.yul\":11639:11657   */\n      add\n        /* \"#utility.yul\":11631:11657   */\n      swap1\n      pop\n        /* \"#utility.yul\":11703:11712   */\n      dup2\n        /* \"#utility.yul\":11697:11701   */\n      dup2\n        /* \"#utility.yul\":11693:11713   */\n      sub\n        /* \"#utility.yul\":11689:11690   */\n      0x00\n        /* \"#utility.yul\":11678:11687   */\n      dup4\n        /* \"#utility.yul\":11674:11691   */\n      add\n        /* \"#utility.yul\":11667:11714   */\n      mstore\n        /* \"#utility.yul\":11731:11862   */\n      tag_338\n        /* \"#utility.yul\":11857:11861   */\n      dup2\n        /* \"#utility.yul\":11731:11862   */\n      tag_217\n      jump\t// in\n    tag_338:\n        /* \"#utility.yul\":11723:11862   */\n      swap1\n      pop\n        /* \"#utility.yul\":11450:11869   */\n      swap2\n      swap1\n      pop\n      jump\t// out\n        /* \"#utility.yul\":11875:12099   */\n    tag_218:\n        /* \"#utility.yul\":12015:12049   */\n      0x596f75206861766520616c726561647920726563656976656420796f75722070\n        /* \"#utility.yul\":12011:12012   */\n      0x00\n        /* \"#utility.yul\":12003:12009   */\n      dup3\n        /* \"#utility.yul\":11999:12013   */\n      add\n        /* \"#utility.yul\":11992:12050   */\n      mstore\n        /* \"#utility.yul\":12084:12091   */\n      0x72697a6521000000000000000000000000000000000000000000000000000000\n        /* \"#utility.yul\":12079:12081   */\n      0x20\n        /* \"#utility.yul\":12071:12077   */\n      dup3\n        /* \"#utility.yul\":12067:12082   */\n      add\n        /* \"#utility.yul\":12060:12092   */\n      mstore\n        /* \"#utility.yul\":11875:12099   */\n      pop\n      jump\t// out\n        /* \"#utility.yul\":12105:12471   */\n    tag_219:\n        /* \"#utility.yul\":12247:12250   */\n      0x00\n        /* \"#utility.yul\":12268:12335   */\n      tag_341\n        /* \"#utility.yul\":12332:12334   */\n      0x25\n        /* \"#utility.yul\":12327:12330   */\n      dup4\n        /* \"#utility.yul\":12268:12335   */\n      tag_206\n      jump\t// in\n    tag_341:\n        /* \"#utility.yul\":12261:12335   */\n      swap2\n      pop\n        /* \"#utility.yul\":12344:12437   */\n      tag_342\n        /* \"#utility.yul\":12433:12436   */\n      dup3\n        /* \"#utility.yul\":12344:12437   */\n      tag_218\n      jump\t// in\n    tag_342:\n        /* \"#utility.yul\":12462:12464   */\n      0x40\n        /* \"#utility.yul\":12457:12460   */\n      dup3\n        /* \"#utility.yul\":12453:12465   */\n      add\n        /* \"#utility.yul\":12446:12465   */\n      swap1\n      pop\n        /* \"#utility.yul\":12105:12471   */\n      swap2\n      swap1\n      pop\n      jump\t// out\n        /* \"#utility.yul\":12477:12896   */\n    tag_132:\n        /* \"#utility.yul\":12643:12647   */\n      0x00\n        /* \"#utility.yul\":12681:12683   */\n      0x20\n        /* \"#utility.yul\":12670:12679   */\n      dup3\n        /* \"#utility.yul\":12666:12684   */\n      add\n        /* \"#utility.yul\":12658:12684   */\n      swap1\n      pop\n        /* \"#utility.yul\":12730:12739   */\n      dup2\n        /* \"#utility.yul\":12724:12728   */\n      dup2\n        /* \"#utility.yul\":12720:12740   */\n      sub\n        /* \"#utility.yul\":12716:12717   */\n      0x00\n        /* \"#utility.yul\":12705:12714   */\n      dup4\n        /* \"#utility.yul\":12701:12718   */\n      add\n        /* \"#utility.yul\":12694:12741   */\n      mstore\n        /* \"#utility.yul\":12758:12889   */\n      tag_344\n        /* \"#utility.yul\":12884:12888   */\n      dup2\n        /* \"#utility.yul\":12758:12889   */\n      tag_219\n      jump\t// in\n    tag_344:\n        /* \"#utility.yul\":12750:12889   */\n      swap1\n      pop\n        /* \"#utility.yul\":12477:12896   */\n      swap2\n      swap1\n      pop\n      jump\t// out\n        /* \"#utility.yul\":12902:13312   */\n    tag_134:\n        /* \"#utility.yul\":12942:12949   */\n      0x00\n        /* \"#utility.yul\":12965:12985   */\n      tag_346\n        /* \"#utility.yul\":12983:12984   */\n      dup3\n        /* \"#utility.yul\":12965:12985   */\n      tag_186\n      jump\t// in\n    tag_346:\n        /* \"#utility.yul\":12960:12985   */\n      swap2\n      pop\n        /* \"#utility.yul\":12999:13019   */\n      tag_347\n        /* \"#utility.yul\":13017:13018   */\n      dup4\n        /* \"#utility.yul\":12999:13019   */\n      tag_186\n      jump\t// in\n    tag_347:\n        /* \"#utility.yul\":12994:13019   */\n      swap3\n      pop\n        /* \"#utility.yul\":13054:13055   */\n      dup3\n        /* \"#utility.yul\":13051:13052   */\n      dup3\n        /* \"#utility.yul\":13047:13056   */\n      mul\n        /* \"#utility.yul\":13076:13106   */\n      tag_348\n        /* \"#utility.yul\":13094:13105   */\n      dup2\n        /* \"#utility.yul\":13076:13106   */\n      tag_186\n      jump\t// in\n    tag_348:\n        /* \"#utility.yul\":13065:13106   */\n      swap2\n      pop\n        /* \"#utility.yul\":13255:13256   */\n      dup3\n        /* \"#utility.yul\":13246:13253   */\n      dup3\n        /* \"#utility.yul\":13242:13257   */\n      div\n        /* \"#utility.yul\":13239:13240   */\n      dup5\n        /* \"#utility.yul\":13236:13258   */\n      eq\n        /* \"#utility.yul\":13216:13217   */\n      dup4\n        /* \"#utility.yul\":13209:13218   */\n      iszero\n        /* \"#utility.yul\":13189:13272   */\n      or\n        /* \"#utility.yul\":13166:13305   */\n      tag_349\n      jumpi\n        /* \"#utility.yul\":13285:13303   */\n      tag_350\n      tag_213\n      jump\t// in\n    tag_350:\n        /* \"#utility.yul\":13166:13305   */\n    tag_349:\n        /* \"#utility.yul\":12950:13312   */\n      pop\n        /* \"#utility.yul\":12902:13312   */\n      swap3\n      swap2\n      pop\n      pop\n      jump\t// out\n        /* \"#utility.yul\":13318:13498   */\n    tag_220:\n        /* \"#utility.yul\":13366:13443   */\n      0x4e487b7100000000000000000000000000000000000000000000000000000000\n        /* \"#utility.yul\":13363:13364   */\n      0x00\n        /* \"#utility.yul\":13356:13444   */\n      mstore\n        /* \"#utility.yul\":13463:13467   */\n      0x12\n        /* \"#utility.yul\":13460:13461   */\n      0x04\n        /* \"#utility.yul\":13453:13468   */\n      mstore\n        /* \"#utility.yul\":13487:13491   */\n      0x24\n        /* \"#utility.yul\":13484:13485   */\n      0x00\n        /* \"#utility.yul\":13477:13492   */\n      revert\n        /* \"#utility.yul\":13504:13689   */\n    tag_136:\n        /* \"#utility.yul\":13544:13545   */\n      0x00\n        /* \"#utility.yul\":13561:13581   */\n      tag_353\n        /* \"#utility.yul\":13579:13580   */\n      dup3\n        /* \"#utility.yul\":13561:13581   */\n      tag_186\n      jump\t// in\n    tag_353:\n        /* \"#utility.yul\":13556:13581   */\n      swap2\n      pop\n        /* \"#utility.yul\":13595:13615   */\n      tag_354\n        /* \"#utility.yul\":13613:13614   */\n      dup4\n        /* \"#utility.yul\":13595:13615   */\n      tag_186\n      jump\t// in\n    tag_354:\n        /* \"#utility.yul\":13590:13615   */\n      swap3\n      pop\n        /* \"#utility.yul\":13634:13635   */\n      dup3\n        /* \"#utility.yul\":13624:13659   */\n      tag_355\n      jumpi\n        /* \"#utility.yul\":13639:13657   */\n      tag_356\n      tag_220\n      jump\t// in\n    tag_356:\n        /* \"#utility.yul\":13624:13659   */\n    tag_355:\n        /* \"#utility.yul\":13681:13682   */\n      dup3\n        /* \"#utility.yul\":13678:13679   */\n      dup3\n        /* \"#utility.yul\":13674:13683   */\n      div\n        /* \"#utility.yul\":13669:13683   */\n      swap1\n      pop\n        /* \"#utility.yul\":13504:13689   */\n      swap3\n      swap2\n      pop\n      pop\n      jump\t// out\n        /* \"#utility.yul\":13695:13889   */\n    tag_138:\n        /* \"#utility.yul\":13735:13739   */\n      0x00\n        /* \"#utility.yul\":13755:13775   */\n      tag_358\n        /* \"#utility.yul\":13773:13774   */\n      dup3\n        /* \"#utility.yul\":13755:13775   */\n      tag_186\n      jump\t// in\n    tag_358:\n        /* \"#utility.yul\":13750:13775   */\n      swap2\n      pop\n        /* \"#utility.yul\":13789:13809   */\n      tag_359\n        /* \"#utility.yul\":13807:13808   */\n      dup4\n        /* \"#utility.yul\":13789:13809   */\n      tag_186\n      jump\t// in\n    tag_359:\n        /* \"#utility.yul\":13784:13809   */\n      swap3\n      pop\n        /* \"#utility.yul\":13833:13834   */\n      dup3\n        /* \"#utility.yul\":13830:13831   */\n      dup3\n        /* \"#utility.yul\":13826:13835   */\n      sub\n        /* \"#utility.yul\":13818:13835   */\n      swap1\n      pop\n        /* \"#utility.yul\":13857:13858   */\n      dup2\n        /* \"#utility.yul\":13851:13855   */\n      dup2\n        /* \"#utility.yul\":13848:13859   */\n      gt\n        /* \"#utility.yul\":13845:13882   */\n      iszero\n      tag_360\n      jumpi\n        /* \"#utility.yul\":13862:13880   */\n      tag_361\n      tag_213\n      jump\t// in\n    tag_361:\n        /* \"#utility.yul\":13845:13882   */\n    tag_360:\n        /* \"#utility.yul\":13695:13889   */\n      swap3\n      swap2\n      pop\n      pop\n      jump\t// out\n        /* \"#utility.yul\":13895:14065   */\n    tag_221:\n        /* \"#utility.yul\":14035:14057   */\n      0x546f6f206d616e792063616e6469646174657321000000000000000000000000\n        /* \"#utility.yul\":14031:14032   */\n      0x00\n        /* \"#utility.yul\":14023:14029   */\n      dup3\n        /* \"#utility.yul\":14019:14033   */\n      add\n        /* \"#utility.yul\":14012:14058   */\n      mstore\n        /* \"#utility.yul\":13895:14065   */\n      pop\n      jump\t// out\n        /* \"#utility.yul\":14071:14437   */\n    tag_222:\n        /* \"#utility.yul\":14213:14216   */\n      0x00\n        /* \"#utility.yul\":14234:14301   */\n      tag_364\n        /* \"#utility.yul\":14298:14300   */\n      0x14\n        /* \"#utility.yul\":14293:14296   */\n      dup4\n        /* \"#utility.yul\":14234:14301   */\n      tag_206\n      jump\t// in\n    tag_364:\n        /* \"#utility.yul\":14227:14301   */\n      swap2\n      pop\n        /* \"#utility.yul\":14310:14403   */\n      tag_365\n        /* \"#utility.yul\":14399:14402   */\n      dup3\n        /* \"#utility.yul\":14310:14403   */\n      tag_221\n      jump\t// in\n    tag_365:\n        /* \"#utility.yul\":14428:14430   */\n      0x20\n        /* \"#utility.yul\":14423:14426   */\n      dup3\n        /* \"#utility.yul\":14419:14431   */\n      add\n        /* \"#utility.yul\":14412:14431   */\n      swap1\n      pop\n        /* \"#utility.yul\":14071:14437   */\n      swap2\n      swap1\n      pop\n      jump\t// out\n        /* \"#utility.yul\":14443:14862   */\n    tag_155:\n        /* \"#utility.yul\":14609:14613   */\n      0x00\n        /* \"#utility.yul\":14647:14649   */\n      0x20\n        /* \"#utility.yul\":14636:14645   */\n      dup3\n        /* \"#utility.yul\":14632:14650   */\n      add\n        /* \"#utility.yul\":14624:14650   */\n      swap1\n      pop\n        /* \"#utility.yul\":14696:14705   */\n      dup2\n        /* \"#utility.yul\":14690:14694   */\n      dup2\n        /* \"#utility.yul\":14686:14706   */\n      sub\n        /* \"#utility.yul\":14682:14683   */\n      0x00\n        /* \"#utility.yul\":14671:14680   */\n      dup4\n        /* \"#utility.yul\":14667:14684   */\n      add\n        /* \"#utility.yul\":14660:14707   */\n      mstore\n        /* \"#utility.yul\":14724:14855   */\n      tag_367\n        /* \"#utility.yul\":14850:14854   */\n      dup2\n        /* \"#utility.yul\":14724:14855   */\n      tag_222\n      jump\t// in\n    tag_367:\n        /* \"#utility.yul\":14716:14855   */\n      swap1\n      pop\n        /* \"#utility.yul\":14443:14862   */\n      swap2\n      swap1\n      pop\n      jump\t// out\n        /* \"#utility.yul\":14868:15048   */\n    tag_162:\n        /* \"#utility.yul\":14916:14993   */\n      0x4e487b7100000000000000000000000000000000000000000000000000000000\n        /* \"#utility.yul\":14913:14914   */\n      0x00\n        /* \"#utility.yul\":14906:14994   */\n      mstore\n        /* \"#utility.yul\":15013:15017   */\n      0x32\n        /* \"#utility.yul\":15010:15011   */\n      0x04\n        /* \"#utility.yul\":15003:15018   */\n      mstore\n        /* \"#utility.yul\":15037:15041   */\n      0x24\n        /* \"#utility.yul\":15034:15035   */\n      0x00\n        /* \"#utility.yul\":15027:15042   */\n      revert\n        /* \"#utility.yul\":15054:15383   */\n    tag_164:\n        /* \"#utility.yul\":15113:15119   */\n      0x00\n        /* \"#utility.yul\":15162:15164   */\n      0x20\n        /* \"#utility.yul\":15150:15159   */\n      dup3\n        /* \"#utility.yul\":15141:15148   */\n      dup5\n        /* \"#utility.yul\":15137:15160   */\n      sub\n        /* \"#utility.yul\":15133:15165   */\n      slt\n        /* \"#utility.yul\":15130:15249   */\n      iszero\n      tag_370\n      jumpi\n        /* \"#utility.yul\":15168:15247   */\n      tag_371\n      tag_189\n      jump\t// in\n    tag_371:\n        /* \"#utility.yul\":15130:15249   */\n    tag_370:\n        /* \"#utility.yul\":15288:15289   */\n      0x00\n        /* \"#utility.yul\":15313:15366   */\n      tag_372\n        /* \"#utility.yul\":15358:15365   */\n      dup5\n        /* \"#utility.yul\":15349:15355   */\n      dup3\n        /* \"#utility.yul\":15338:15347   */\n      dup6\n        /* \"#utility.yul\":15334:15356   */\n      add\n        /* \"#utility.yul\":15313:15366   */\n      tag_196\n      jump\t// in\n    tag_372:\n        /* \"#utility.yul\":15303:15366   */\n      swap2\n      pop\n        /* \"#utility.yul\":15259:15376   */\n      pop\n        /* \"#utility.yul\":15054:15383   */\n      swap3\n      swap2\n      pop\n      pop\n      jump\t// out\n        /* \"#utility.yul\":15389:15622   */\n    tag_166:\n        /* \"#utility.yul\":15428:15431   */\n      0x00\n        /* \"#utility.yul\":15451:15475   */\n      tag_374\n        /* \"#utility.yul\":15469:15474   */\n      dup3\n        /* \"#utility.yul\":15451:15475   */\n      tag_186\n      jump\t// in\n    tag_374:\n        /* \"#utility.yul\":15442:15475   */\n      swap2\n      pop\n        /* \"#utility.yul\":15497:15563   */\n      0xffffffffffffffffffffffffffffffffffffffffffffffffffffffffffffffff\n        /* \"#utility.yul\":15490:15495   */\n      dup3\n        /* \"#utility.yul\":15487:15564   */\n      sub\n        /* \"#utility.yul\":15484:15587   */\n      tag_375\n      jumpi\n        /* \"#utility.yul\":15567:15585   */\n      tag_376\n      tag_213\n      jump\t// in\n    tag_376:\n        /* \"#utility.yul\":15484:15587   */\n    tag_375:\n        /* \"#utility.yul\":15614:15615   */\n      0x01\n        /* \"#utility.yul\":15607:15612   */\n      dup3\n        /* \"#utility.yul\":15603:15616   */\n      add\n        /* \"#utility.yul\":15596:15616   */\n      swap1\n      pop\n        /* \"#utility.yul\":15389:15622   */\n      swap2\n      swap1\n      pop\n      jump\t// out\n        /* \"#utility.yul\":15628:15850   */\n    tag_223:\n        /* \"#utility.yul\":15768:15802   */\n      0x566f74696e67206973206e6f742073746172746564206f72206e6f7420657869\n        /* \"#utility.yul\":15764:15765   */\n      0x00\n        /* \"#utility.yul\":15756:15762   */\n      dup3\n        /* \"#utility.yul\":15752:15766   */\n      add\n        /* \"#utility.yul\":15745:15803   */\n      mstore\n        /* \"#utility.yul\":15837:15842   */\n      0x73742e0000000000000000000000000000000000000000000000000000000000\n        /* \"#utility.yul\":15832:15834   */\n      0x20\n        /* \"#utility.yul\":15824:15830   */\n      dup3\n        /* \"#utility.yul\":15820:15835   */\n      add\n        /* \"#utility.yul\":15813:15843   */\n      mstore\n        /* \"#utility.yul\":15628:15850   */\n      pop\n      jump\t// out\n        /* \"#utility.yul\":15856:16222   */\n    tag_224:\n        /* \"#utility.yul\":15998:16001   */\n      0x00\n        /* \"#utility.yul\":16019:16086   */\n      tag_379\n        /* \"#utility.yul\":16083:16085   */\n      0x23\n        /* \"#utility.yul\":16078:16081   */\n      dup4\n        /* \"#utility.yul\":16019:16086   */\n      tag_206\n      jump\t// in\n    tag_379:\n        /* \"#utility.yul\":16012:16086   */\n      swap2\n      pop\n        /* \"#utility.yul\":16095:16188   */\n      tag_380\n        /* \"#utility.yul\":16184:16187   */\n      dup3\n        /* \"#utility.yul\":16095:16188   */\n      tag_223\n      jump\t// in\n    tag_380:\n        /* \"#utility.yul\":16213:16215   */\n      0x40\n        /* \"#utility.yul\":16208:16211   */\n      dup3\n        /* \"#utility.yul\":16204:16216   */\n      add\n        /* \"#utility.yul\":16197:16216   */\n      swap1\n      pop\n        /* \"#utility.yul\":15856:16222   */\n      swap2\n      swap1\n      pop\n      jump\t// out\n        /* \"#utility.yul\":16228:16647   */\n    tag_175:\n        /* \"#utility.yul\":16394:16398   */\n      0x00\n        /* \"#utility.yul\":16432:16434   */\n      0x20\n        /* \"#utility.yul\":16421:16430   */\n      dup3\n        /* \"#utility.yul\":16417:16435   */\n      add\n        /* \"#utility.yul\":16409:16435   */\n      swap1\n      pop\n        /* \"#utility.yul\":16481:16490   */\n      dup2\n        /* \"#utility.yul\":16475:16479   */\n      dup2\n        /* \"#utility.yul\":16471:16491   */\n      sub\n        /* \"#utility.yul\":16467:16468   */\n      0x00\n        /* \"#utility.yul\":16456:16465   */\n      dup4\n        /* \"#utility.yul\":16452:16469   */\n      add\n        /* \"#utility.yul\":16445:16492   */\n      mstore\n        /* \"#utility.yul\":16509:16640   */\n      tag_382\n        /* \"#utility.yul\":16635:16639   */\n      dup2\n        /* \"#utility.yul\":16509:16640   */\n      tag_224\n      jump\t// in\n    tag_382:\n        /* \"#utility.yul\":16501:16640   */\n      swap1\n      pop\n        /* \"#utility.yul\":16228:16647   */\n      swap2\n      swap1\n      pop\n      jump\t// out\n        /* \"#utility.yul\":16653:16819   */\n    tag_225:\n        /* \"#utility.yul\":16793:16811   */\n      0x566f74696e6720697320656e6465642e00000000000000000000000000000000\n        /* \"#utility.yul\":16789:16790   */\n      0x00\n        /* \"#utility.yul\":16781:16787   */\n      dup3\n        /* \"#utility.yul\":16777:16791   */\n      add\n        /* \"#utility.yul\":16770:16812   */\n      mstore\n        /* \"#utility.yul\":16653:16819   */\n      pop\n      jump\t// out\n        /* \"#utility.yul\":16825:17191   */\n    tag_226:\n        /* \"#utility.yul\":16967:16970   */\n      0x00\n        /* \"#utility.yul\":16988:17055   */\n      tag_385\n        /* \"#utility.yul\":17052:17054   */\n      0x10\n        /* \"#utility.yul\":17047:17050   */\n      dup4\n        /* \"#utility.yul\":16988:17055   */\n      tag_206\n      jump\t// in\n    tag_385:\n        /* \"#utility.yul\":16981:17055   */\n      swap2\n      pop\n        /* \"#utility.yul\":17064:17157   */\n      tag_386\n        /* \"#utility.yul\":17153:17156   */\n      dup3\n        /* \"#utility.yul\":17064:17157   */\n      tag_225\n      jump\t// in\n    tag_386:\n        /* \"#utility.yul\":17182:17184   */\n      0x20\n        /* \"#utility.yul\":17177:17180   */\n      dup3\n        /* \"#utility.yul\":17173:17185   */\n      add\n        /* \"#utility.yul\":17166:17185   */\n      swap1\n      pop\n        /* \"#utility.yul\":16825:17191   */\n      swap2\n      swap1\n      pop\n      jump\t// out\n        /* \"#utility.yul\":17197:17616   */\n    tag_179:\n        /* \"#utility.yul\":17363:17367   */\n      0x00\n        /* \"#utility.yul\":17401:17403   */\n      0x20\n        /* \"#utility.yul\":17390:17399   */\n      dup3\n        /* \"#utility.yul\":17386:17404   */\n      add\n        /* \"#utility.yul\":17378:17404   */\n      swap1\n      pop\n        /* \"#utility.yul\":17450:17459   */\n      dup2\n        /* \"#utility.yul\":17444:17448   */\n      dup2\n        /* \"#utility.yul\":17440:17460   */\n      sub\n        /* \"#utility.yul\":17436:17437   */\n      0x00\n        /* \"#utility.yul\":17425:17434   */\n      dup4\n        /* \"#utility.yul\":17421:17438   */\n      add\n        /* \"#utility.yul\":17414:17461   */\n      mstore\n        /* \"#utility.yul\":17478:17609   */\n      tag_388\n        /* \"#utility.yul\":17604:17608   */\n      dup2\n        /* \"#utility.yul\":17478:17609   */\n      tag_226\n      jump\t// in\n    tag_388:\n        /* \"#utility.yul\":17470:17609   */\n      swap1\n      pop\n        /* \"#utility.yul\":17197:17616   */\n      swap2\n      swap1\n      pop\n      jump\t// out\n        /* \"#utility.yul\":17622:17848   */\n    tag_227:\n        /* \"#utility.yul\":17762:17796   */\n      0x43616e64696461746520646f6573206e6f74206578697374206f6e2074686973\n        /* \"#utility.yul\":17758:17759   */\n      0x00\n        /* \"#utility.yul\":17750:17756   */\n      dup3\n        /* \"#utility.yul\":17746:17760   */\n      add\n        /* \"#utility.yul\":17739:17797   */\n      mstore\n        /* \"#utility.yul\":17831:17840   */\n      0x20766f74696e6700000000000000000000000000000000000000000000000000\n        /* \"#utility.yul\":17826:17828   */\n      0x20\n        /* \"#utility.yul\":17818:17824   */\n      dup3\n        /* \"#utility.yul\":17814:17829   */\n      add\n        /* \"#utility.yul\":17807:17841   */\n      mstore\n        /* \"#utility.yul\":17622:17848   */\n      pop\n      jump\t// out\n        /* \"#utility.yul\":17854:18220   */\n    tag_228:\n        /* \"#utility.yul\":17996:17999   */\n      0x00\n        /* \"#utility.yul\":18017:18084   */\n      tag_391\n        /* \"#utility.yul\":18081:18083   */\n      0x27\n        /* \"#utility.yul\":18076:18079   */\n      dup4\n        /* \"#utility.yul\":18017:18084   */\n      tag_206\n      jump\t// in\n    tag_391:\n        /* \"#utility.yul\":18010:18084   */\n      swap2\n      pop\n        /* \"#utility.yul\":18093:18186   */\n      tag_392\n        /* \"#utility.yul\":18182:18185   */\n      dup3\n        /* \"#utility.yul\":18093:18186   */\n      tag_227\n      jump\t// in\n    tag_392:\n        /* \"#utility.yul\":18211:18213   */\n      0x40\n        /* \"#utility.yul\":18206:18209   */\n      dup3\n        /* \"#utility.yul\":18202:18214   */\n      add\n        /* \"#utility.yul\":18195:18214   */\n      swap1\n      pop\n        /* \"#utility.yul\":17854:18220   */\n      swap2\n      swap1\n      pop\n      jump\t// out\n        /* \"#utility.yul\":18226:18645   */\n    tag_183:\n        /* \"#utility.yul\":18392:18396   */\n      0x00\n        /* \"#utility.yul\":18430:18432   */\n      0x20\n        /* \"#utility.yul\":18419:18428   */\n      dup3\n        /* \"#utility.yul\":18415:18433   */\n      add\n        /* \"#utility.yul\":18407:18433   */\n      swap1\n      pop\n        /* \"#utility.yul\":18479:18488   */\n      dup2\n        /* \"#utility.yul\":18473:18477   */\n      dup2\n        /* \"#utility.yul\":18469:18489   */\n      sub\n        /* \"#utility.yul\":18465:18466   */\n      0x00\n        /* \"#utility.yul\":18454:18463   */\n      dup4\n        /* \"#utility.yul\":18450:18467   */\n      add\n        /* \"#utility.yul\":18443:18490   */\n      mstore\n        /* \"#utility.yul\":18507:18638   */\n      tag_394\n        /* \"#utility.yul\":18633:18637   */\n      dup2\n        /* \"#utility.yul\":18507:18638   */\n      tag_228\n      jump\t// in\n    tag_394:\n        /* \"#utility.yul\":18499:18638   */\n      swap1\n      pop\n        /* \"#utility.yul\":18226:18645   */\n      swap2\n      swap1\n      pop\n      jump\t// out\n\n    auxdata: 0xa264697066735822122013f71a57ab3dcbe20dc3dd209db8f8770a3c2053369a306131093fbd135f33dc64736f6c63430008120033\n}\n",
				"bytecode": {
					"linkReferences": {},
					"object": "60a06040523480156200001157600080fd5b5060405162001f0c38038062001f0c8339818101604052810190620000379190620000d7565b8060ff1660808160ff1681525050336000806101000a81548173ffffffffffffffffffffffffffffffffffffffff021916908373ffffffffffffffffffffffffffffffffffffffff16021790555060056001819055505062000109565b600080fd5b600060ff82169050919050565b620000b18162000099565b8114620000bd57600080fd5b50565b600081519050620000d181620000a6565b92915050565b600060208284031215620000f057620000ef62000094565b5b60006200010084828501620000c0565b91505092915050565b608051611de06200012c60003960008181610bde0152610ea30152611de06000f3fe6080604052600436106100e85760003560e01c80637f74ac151161008a578063b95edbf911610059578063b95edbf9146102e2578063d6e20a651461030d578063dab9d0fa14610336578063ed7428791461035f576100e8565b80637f74ac1514610226578063870f0d74146102515780638ab9b9d01461027c57806399fafb32146102b9576100e8565b8063248a0634116100c6578063248a06341461016a57806333c57ccd146101ab5780633d2f5bda146101d4578063590e4e5a146101fd576100e8565b80630f84af30146100ed578063178b519b146101185780631ae57ce314610141575b600080fd5b3480156100f957600080fd5b5061010261037b565b60405161010f91906113e1565b60405180910390f35b34801561012457600080fd5b5061013f600480360381019061013a9190611432565b610381565b005b34801561014d57600080fd5b50610168600480360381019061016391906114d0565b610498565b005b34801561017657600080fd5b50610191600480360381019061018c9190611510565b610653565b6040516101a2959493929190611567565b60405180910390f35b3480156101b757600080fd5b506101d260048036038101906101cd91906114d0565b61070e565b005b3480156101e057600080fd5b506101fb60048036038101906101f69190611510565b6108c9565b005b34801561020957600080fd5b50610224600480360381019061021f9190611510565b6109dc565b005b34801561023257600080fd5b5061023b610cf6565b60405161024891906115ba565b60405180910390f35b34801561025d57600080fd5b50610266610d1a565b60405161027391906113e1565b60405180910390f35b34801561028857600080fd5b506102a3600480360381019061029e91906114d0565b610d20565b6040516102b091906115d5565b60405180910390f35b3480156102c557600080fd5b506102e060048036038101906102db9190611510565b610d8e565b005b3480156102ee57600080fd5b506102f7610ea1565b604051610304919061160c565b60405180910390f35b34801561031957600080fd5b50610334600480360381019061032f919061168c565b610ec5565b005b34801561034257600080fd5b5061035d60048036038101906103589190611510565b611058565b005b610379600480360381019061037491906114d0565b6110f0565b005b60025481565b60008054906101000a900473ffffffffffffffffffffffffffffffffffffffff1673ffffffffffffffffffffffffffffffffffffffff163373ffffffffffffffffffffffffffffffffffffffff161461040f576040517f08c379a00000000000000000000000000000000000000000000000000000000081526004016104069061176f565b60405180910390fd5b600015156003600084815260200190815260200160002060000160009054906101000a900460ff16151514610479576040517f08c379a0000000000000000000000000000000000000000000000000000000008152600401610470906117db565b60405180910390fd5b8060036000848152602001908152602001600020600201819055505050565b60008054906101000a900473ffffffffffffffffffffffffffffffffffffffff1673ffffffffffffffffffffffffffffffffffffffff163373ffffffffffffffffffffffffffffffffffffffff1614610526576040517f08c379a000000000000000000000000000000000000000000000000000000000815260040161051d9061176f565b60405180910390fd5b600015156003600084815260200190815260200160002060000160009054906101000a900460ff16151514610590576040517f08c379a0000000000000000000000000000000000000000000000000000000008152600401610587906117db565b60405180910390fd5b60006003600084815260200190815260200160002060050160008373ffffffffffffffffffffffffffffffffffffffff1673ffffffffffffffffffffffffffffffffffffffff16815260200190815260200160002060000160006101000a81548160ff0219169083151502179055508073ffffffffffffffffffffffffffffffffffffffff16827f0d7a9ec927774dd3a7db78abe1a8634c4e4509290232ebe5bcd8e656d6946433600060405161064791906115d5565b60405180910390a35050565b60008060008060006003600087815260200190815260200160002060000160009054906101000a900460ff166003600088815260200190815260200160002060000160019054906101000a900473ffffffffffffffffffffffffffffffffffffffff166003600089815260200190815260200160002060010154600360008a815260200190815260200160002060030154600360008b8152602001908152602001600020600401549450945094509450945091939590929450565b60008054906101000a900473ffffffffffffffffffffffffffffffffffffffff1673ffffffffffffffffffffffffffffffffffffffff163373ffffffffffffffffffffffffffffffffffffffff161461079c576040517f08c379a00000000000000000000000000000000000000000000000000000000081526004016107939061176f565b60405180910390fd5b600015156003600084815260200190815260200160002060000160009054906101000a900460ff16151514610806576040517f08c379a00000000000000000000000000000000000000000000000000000000081526004016107fd906117db565b60405180910390fd5b60016003600084815260200190815260200160002060050160008373ffffffffffffffffffffffffffffffffffffffff1673ffffffffffffffffffffffffffffffffffffffff16815260200190815260200160002060000160006101000a81548160ff0219169083151502179055508073ffffffffffffffffffffffffffffffffffffffff16827f0d7a9ec927774dd3a7db78abe1a8634c4e4509290232ebe5bcd8e656d694643360016040516108bd91906115d5565b60405180910390a35050565b60008054906101000a900473ffffffffffffffffffffffffffffffffffffffff1673ffffffffffffffffffffffffffffffffffffffff163373ffffffffffffffffffffffffffffffffffffffff1614610957576040517f08c379a000000000000000000000000000000000000000000000000000000000815260040161094e9061176f565b60405180910390fd5b60016003600083815260200190815260200160002060000160006101000a81548160ff021916908315150217905550426003600083815260200190815260200160002060010181905550807f0377dfbd6e4aa0688c840ef165b5c872f7eabf72f5ccfd60c13c18e67d9ea581426040516109d191906113e1565b60405180910390a250565b600115156003600083815260200190815260200160002060000160009054906101000a900460ff16151514610a46576040517f08c379a0000000000000000000000000000000000000000000000000000000008152600401610a3d90611847565b60405180910390fd5b4260036000838152602001908152602001600020600201546003600084815260200190815260200160002060010154610a7f9190611896565b10610abf576040517f08c379a0000000000000000000000000000000000000000000000000000000008152600401610ab690611916565b60405180910390fd5b6003600082815260200190815260200160002060000160019054906101000a900473ffffffffffffffffffffffffffffffffffffffff1673ffffffffffffffffffffffffffffffffffffffff163373ffffffffffffffffffffffffffffffffffffffff1614610b63576040517f08c379a0000000000000000000000000000000000000000000000000000000008152600401610b5a90611982565b60405180910390fd5b6000600360008381526020019081526020016000206004015411610bbc576040517f08c379a0000000000000000000000000000000000000000000000000000000008152600401610bb390611a14565b60405180910390fd5b60006003600083815260200190815260200160002060040154905060006064827f000000000000000000000000000000000000000000000000000000000000000060ff16610c0a9190611a34565b610c149190611aa5565b905060008183610c249190611ad6565b90506000600360008681526020019081526020016000206004018190555060008054906101000a900473ffffffffffffffffffffffffffffffffffffffff1673ffffffffffffffffffffffffffffffffffffffff166108fc839081150290604051600060405180830381858888f19350505050158015610ca8573d6000803e3d6000fd5b503373ffffffffffffffffffffffffffffffffffffffff166108fc829081150290604051600060405180830381858888f19350505050158015610cef573d6000803e3d6000fd5b5050505050565b60008054906101000a900473ffffffffffffffffffffffffffffffffffffffff1681565b60015481565b60006003600084815260200190815260200160002060050160008373ffffffffffffffffffffffffffffffffffffffff1673ffffffffffffffffffffffffffffffffffffffff16815260200190815260200160002060000160009054906101000a900460ff16905092915050565b60008054906101000a900473ffffffffffffffffffffffffffffffffffffffff1673ffffffffffffffffffffffffffffffffffffffff163373ffffffffffffffffffffffffffffffffffffffff1614610e1c576040517f08c379a0000000000000000000000000000000000000000000000000000000008152600401610e139061176f565b60405180910390fd5b60016003600083815260200190815260200160002060000160006101000a81548160ff021916908315150217905550426003600083815260200190815260200160002060010181905550807f0377dfbd6e4aa0688c840ef165b5c872f7eabf72f5ccfd60c13c18e67d9ea58142604051610e9691906113e1565b60405180910390a250565b7f000000000000000000000000000000000000000000000000000000000000000081565b60008054906101000a900473ffffffffffffffffffffffffffffffffffffffff1673ffffffffffffffffffffffffffffffffffffffff163373ffffffffffffffffffffffffffffffffffffffff1614610f53576040517f08c379a0000000000000000000000000000000000000000000000000000000008152600401610f4a9061176f565b60405180910390fd5b6001548282905010610f9a576040517f08c379a0000000000000000000000000000000000000000000000000000000008152600401610f9190611b56565b60405180910390fd5b826003600060025481526020019081526020016000206002018190555060005b8282905081101561100b57610ff8600254848484818110610fde57610fdd611b76565b5b9050602002016020810190610ff39190611ba5565b61070e565b808061100390611bd2565b915050610fba565b506002547fba2f0756cdf8791d4ba21de0481bb93b90ab1a268d3e1cdf8aa1c3f856bb68b960405160405180910390a26002600081548092919061104e90611bd2565b9190505550505050565b60008054906101000a900473ffffffffffffffffffffffffffffffffffffffff1673ffffffffffffffffffffffffffffffffffffffff163373ffffffffffffffffffffffffffffffffffffffff16146110e6576040517f08c379a00000000000000000000000000000000000000000000000000000000081526004016110dd9061176f565b60405180910390fd5b8060018190555050565b600115156003600084815260200190815260200160002060000160009054906101000a900460ff1615151461115a576040517f08c379a000000000000000000000000000000000000000000000000000000000815260040161115190611c8c565b60405180910390fd5b42600360008481526020019081526020016000206002015460036000858152602001908152602001600020600101546111939190611896565b116111d3576040517f08c379a00000000000000000000000000000000000000000000000000000000081526004016111ca90611cf8565b60405180910390fd5b6111dd8282610d20565b61121c576040517f08c379a000000000000000000000000000000000000000000000000000000000815260040161121390611d8a565b60405180910390fd5b346003600084815260200190815260200160002060050160008373ffffffffffffffffffffffffffffffffffffffff1673ffffffffffffffffffffffffffffffffffffffff16815260200190815260200160002060010160008282546112829190611896565b9250508190555060036000838152602001908152602001600020600301546003600084815260200190815260200160002060050160008373ffffffffffffffffffffffffffffffffffffffff1673ffffffffffffffffffffffffffffffffffffffff1681526020019081526020016000206001015411156113c457806003600084815260200190815260200160002060000160016101000a81548173ffffffffffffffffffffffffffffffffffffffff021916908373ffffffffffffffffffffffffffffffffffffffff1602179055506003600083815260200190815260200160002060050160008273ffffffffffffffffffffffffffffffffffffffff1673ffffffffffffffffffffffffffffffffffffffff1681526020019081526020016000206001015460036000848152602001908152602001600020600301819055505b5050565b6000819050919050565b6113db816113c8565b82525050565b60006020820190506113f660008301846113d2565b92915050565b600080fd5b600080fd5b61140f816113c8565b811461141a57600080fd5b50565b60008135905061142c81611406565b92915050565b60008060408385031215611449576114486113fc565b5b60006114578582860161141d565b92505060206114688582860161141d565b9150509250929050565b600073ffffffffffffffffffffffffffffffffffffffff82169050919050565b600061149d82611472565b9050919050565b6114ad81611492565b81146114b857600080fd5b50565b6000813590506114ca816114a4565b92915050565b600080604083850312156114e7576114e66113fc565b5b60006114f58582860161141d565b9250506020611506858286016114bb565b9150509250929050565b600060208284031215611526576115256113fc565b5b60006115348482850161141d565b91505092915050565b60008115159050919050565b6115528161153d565b82525050565b61156181611492565b82525050565b600060a08201905061157c6000830188611549565b6115896020830187611558565b61159660408301866113d2565b6115a360608301856113d2565b6115b060808301846113d2565b9695505050505050565b60006020820190506115cf6000830184611558565b92915050565b60006020820190506115ea6000830184611549565b92915050565b600060ff82169050919050565b611606816115f0565b82525050565b600060208201905061162160008301846115fd565b92915050565b600080fd5b600080fd5b600080fd5b60008083601f84011261164c5761164b611627565b5b8235905067ffffffffffffffff8111156116695761166861162c565b5b60208301915083602082028301111561168557611684611631565b5b9250929050565b6000806000604084860312156116a5576116a46113fc565b5b60006116b38682870161141d565b935050602084013567ffffffffffffffff8111156116d4576116d3611401565b5b6116e086828701611636565b92509250509250925092565b600082825260208201905092915050565b7f4572726f722120596f75277265206e6f742074686520736d61727420636f6e7460008201527f72616374206f776e657221000000000000000000000000000000000000000000602082015250565b6000611759602b836116ec565b9150611764826116fd565b604082019050919050565b600060208201905081810360008301526117888161174c565b9050919050565b7f566f74696e672068617320616c726561647920626567756e2100000000000000600082015250565b60006117c56019836116ec565b91506117d08261178f565b602082019050919050565b600060208201905081810360008301526117f4816117b8565b9050919050565b7f566f74696e67206e6f7420737461727465642079657400000000000000000000600082015250565b60006118316016836116ec565b915061183c826117fb565b602082019050919050565b6000602082019050818103600083015261186081611824565b9050919050565b7f4e487b7100000000000000000000000000000000000000000000000000000000600052601160045260246000fd5b60006118a1826113c8565b91506118ac836113c8565b92508282019050808211156118c4576118c3611867565b5b92915050565b7f566f74696e67206973206e6f74206f7665722079657421000000000000000000600082015250565b60006119006017836116ec565b915061190b826118ca565b602082019050919050565b6000602082019050818103600083015261192f816118f3565b9050919050565b7f596f7520617265206e6f7420612077696e6e6572210000000000000000000000600082015250565b600061196c6015836116ec565b915061197782611936565b602082019050919050565b6000602082019050818103600083015261199b8161195f565b9050919050565b7f596f75206861766520616c726561647920726563656976656420796f7572207060008201527f72697a6521000000000000000000000000000000000000000000000000000000602082015250565b60006119fe6025836116ec565b9150611a09826119a2565b604082019050919050565b60006020820190508181036000830152611a2d816119f1565b9050919050565b6000611a3f826113c8565b9150611a4a836113c8565b9250828202611a58816113c8565b91508282048414831517611a6f57611a6e611867565b5b5092915050565b7f4e487b7100000000000000000000000000000000000000000000000000000000600052601260045260246000fd5b6000611ab0826113c8565b9150611abb836113c8565b925082611acb57611aca611a76565b5b828204905092915050565b6000611ae1826113c8565b9150611aec836113c8565b9250828203905081811115611b0457611b03611867565b5b92915050565b7f546f6f206d616e792063616e6469646174657321000000000000000000000000600082015250565b6000611b406014836116ec565b9150611b4b82611b0a565b602082019050919050565b60006020820190508181036000830152611b6f81611b33565b9050919050565b7f4e487b7100000000000000000000000000000000000000000000000000000000600052603260045260246000fd5b600060208284031215611bbb57611bba6113fc565b5b6000611bc9848285016114bb565b91505092915050565b6000611bdd826113c8565b91507fffffffffffffffffffffffffffffffffffffffffffffffffffffffffffffffff8203611c0f57611c0e611867565b5b600182019050919050565b7f566f74696e67206973206e6f742073746172746564206f72206e6f742065786960008201527f73742e0000000000000000000000000000000000000000000000000000000000602082015250565b6000611c766023836116ec565b9150611c8182611c1a565b604082019050919050565b60006020820190508181036000830152611ca581611c69565b9050919050565b7f566f74696e6720697320656e6465642e00000000000000000000000000000000600082015250565b6000611ce26010836116ec565b9150611ced82611cac565b602082019050919050565b60006020820190508181036000830152611d1181611cd5565b9050919050565b7f43616e64696461746520646f6573206e6f74206578697374206f6e207468697360008201527f20766f74696e6700000000000000000000000000000000000000000000000000602082015250565b6000611d746027836116ec565b9150611d7f82611d18565b604082019050919050565b60006020820190508181036000830152611da381611d67565b905091905056fea264697066735822122013f71a57ab3dcbe20dc3dd209db8f8770a3c2053369a306131093fbd135f33dc64736f6c63430008120033",
					"opcodes": "PUSH1 0xA0 PUSH1 0x40 MSTORE CALLVALUE DUP1 ISZERO PUSH3 0x11 JUMPI PUSH1 0x0 DUP1 REVERT JUMPDEST POP PUSH1 0x40 MLOAD PUSH3 0x1F0C CODESIZE SUB DUP1 PUSH3 0x1F0C DUP4 CODECOPY DUP2 DUP2 ADD PUSH1 0x40 MSTORE DUP2 ADD SWAP1 PUSH3 0x37 SWAP2 SWAP1 PUSH3 0xD7 JUMP JUMPDEST DUP1 PUSH1 0xFF AND PUSH1 0x80 DUP2 PUSH1 0xFF AND DUP2 MSTORE POP POP CALLER PUSH1 0x0 DUP1 PUSH2 0x100 EXP DUP2 SLOAD DUP2 PUSH20 0xFFFFFFFFFFFFFFFFFFFFFFFFFFFFFFFFFFFFFFFF MUL NOT AND SWAP1 DUP4 PUSH20 0xFFFFFFFFFFFFFFFFFFFFFFFFFFFFFFFFFFFFFFFF AND MUL OR SWAP1 SSTORE POP PUSH1 0x5 PUSH1 0x1 DUP2 SWAP1 SSTORE POP POP PUSH3 0x109 JUMP JUMPDEST PUSH1 0x0 DUP1 REVERT JUMPDEST PUSH1 0x0 PUSH1 0xFF DUP3 AND SWAP1 POP SWAP2 SWAP1 POP JUMP JUMPDEST PUSH3 0xB1 DUP2 PUSH3 0x99 JUMP JUMPDEST DUP2 EQ PUSH3 0xBD JUMPI PUSH1 0x0 DUP1 REVERT JUMPDEST POP JUMP JUMPDEST PUSH1 0x0 DUP2 MLOAD SWAP1 POP PUSH3 0xD1 DUP2 PUSH3 0xA6 JUMP JUMPDEST SWAP3 SWAP2 POP POP JUMP JUMPDEST PUSH1 0x0 PUSH1 0x20 DUP3 DUP5 SUB SLT ISZERO PUSH3 0xF0 JUMPI PUSH3 0xEF PUSH3 0x94 JUMP JUMPDEST JUMPDEST PUSH1 0x0 PUSH3 0x100 DUP5 DUP3 DUP6 ADD PUSH3 0xC0 JUMP JUMPDEST SWAP2 POP POP SWAP3 SWAP2 POP POP JUMP JUMPDEST PUSH1 0x80 MLOAD PUSH2 0x1DE0 PUSH3 0x12C PUSH1 0x0 CODECOPY PUSH1 0x0 DUP2 DUP2 PUSH2 0xBDE ADD MSTORE PUSH2 0xEA3 ADD MSTORE PUSH2 0x1DE0 PUSH1 0x0 RETURN INVALID PUSH1 0x80 PUSH1 0x40 MSTORE PUSH1 0x4 CALLDATASIZE LT PUSH2 0xE8 JUMPI PUSH1 0x0 CALLDATALOAD PUSH1 0xE0 SHR DUP1 PUSH4 0x7F74AC15 GT PUSH2 0x8A JUMPI DUP1 PUSH4 0xB95EDBF9 GT PUSH2 0x59 JUMPI DUP1 PUSH4 0xB95EDBF9 EQ PUSH2 0x2E2 JUMPI DUP1 PUSH4 0xD6E20A65 EQ PUSH2 0x30D JUMPI DUP1 PUSH4 0xDAB9D0FA EQ PUSH2 0x336 JUMPI DUP1 PUSH4 0xED742879 EQ PUSH2 0x35F JUMPI PUSH2 0xE8 JUMP JUMPDEST DUP1 PUSH4 0x7F74AC15 EQ PUSH2 0x226 JUMPI DUP1 PUSH4 0x870F0D74 EQ PUSH2 0x251 JUMPI DUP1 PUSH4 0x8AB9B9D0 EQ PUSH2 0x27C JUMPI DUP1 PUSH4 0x99FAFB32 EQ PUSH2 0x2B9 JUMPI PUSH2 0xE8 JUMP JUMPDEST DUP1 PUSH4 0x248A0634 GT PUSH2 0xC6 JUMPI DUP1 PUSH4 0x248A0634 EQ PUSH2 0x16A JUMPI DUP1 PUSH4 0x33C57CCD EQ PUSH2 0x1AB JUMPI DUP1 PUSH4 0x3D2F5BDA EQ PUSH2 0x1D4 JUMPI DUP1 PUSH4 0x590E4E5A EQ PUSH2 0x1FD JUMPI PUSH2 0xE8 JUMP JUMPDEST DUP1 PUSH4 0xF84AF30 EQ PUSH2 0xED JUMPI DUP1 PUSH4 0x178B519B EQ PUSH2 0x118 JUMPI DUP1 PUSH4 0x1AE57CE3 EQ PUSH2 0x141 JUMPI JUMPDEST PUSH1 0x0 DUP1 REVERT JUMPDEST CALLVALUE DUP1 ISZERO PUSH2 0xF9 JUMPI PUSH1 0x0 DUP1 REVERT JUMPDEST POP PUSH2 0x102 PUSH2 0x37B JUMP JUMPDEST PUSH1 0x40 MLOAD PUSH2 0x10F SWAP2 SWAP1 PUSH2 0x13E1 JUMP JUMPDEST PUSH1 0x40 MLOAD DUP1 SWAP2 SUB SWAP1 RETURN JUMPDEST CALLVALUE DUP1 ISZERO PUSH2 0x124 JUMPI PUSH1 0x0 DUP1 REVERT JUMPDEST POP PUSH2 0x13F PUSH1 0x4 DUP1 CALLDATASIZE SUB DUP2 ADD SWAP1 PUSH2 0x13A SWAP2 SWAP1 PUSH2 0x1432 JUMP JUMPDEST PUSH2 0x381 JUMP JUMPDEST STOP JUMPDEST CALLVALUE DUP1 ISZERO PUSH2 0x14D JUMPI PUSH1 0x0 DUP1 REVERT JUMPDEST POP PUSH2 0x168 PUSH1 0x4 DUP1 CALLDATASIZE SUB DUP2 ADD SWAP1 PUSH2 0x163 SWAP2 SWAP1 PUSH2 0x14D0 JUMP JUMPDEST PUSH2 0x498 JUMP JUMPDEST STOP JUMPDEST CALLVALUE DUP1 ISZERO PUSH2 0x176 JUMPI PUSH1 0x0 DUP1 REVERT JUMPDEST POP PUSH2 0x191 PUSH1 0x4 DUP1 CALLDATASIZE SUB DUP2 ADD SWAP1 PUSH2 0x18C SWAP2 SWAP1 PUSH2 0x1510 JUMP JUMPDEST PUSH2 0x653 JUMP JUMPDEST PUSH1 0x40 MLOAD PUSH2 0x1A2 SWAP6 SWAP5 SWAP4 SWAP3 SWAP2 SWAP1 PUSH2 0x1567 JUMP JUMPDEST PUSH1 0x40 MLOAD DUP1 SWAP2 SUB SWAP1 RETURN JUMPDEST CALLVALUE DUP1 ISZERO PUSH2 0x1B7 JUMPI PUSH1 0x0 DUP1 REVERT JUMPDEST POP PUSH2 0x1D2 PUSH1 0x4 DUP1 CALLDATASIZE SUB DUP2 ADD SWAP1 PUSH2 0x1CD SWAP2 SWAP1 PUSH2 0x14D0 JUMP JUMPDEST PUSH2 0x70E JUMP JUMPDEST STOP JUMPDEST CALLVALUE DUP1 ISZERO PUSH2 0x1E0 JUMPI PUSH1 0x0 DUP1 REVERT JUMPDEST POP PUSH2 0x1FB PUSH1 0x4 DUP1 CALLDATASIZE SUB DUP2 ADD SWAP1 PUSH2 0x1F6 SWAP2 SWAP1 PUSH2 0x1510 JUMP JUMPDEST PUSH2 0x8C9 JUMP JUMPDEST STOP JUMPDEST CALLVALUE DUP1 ISZERO PUSH2 0x209 JUMPI PUSH1 0x0 DUP1 REVERT JUMPDEST POP PUSH2 0x224 PUSH1 0x4 DUP1 CALLDATASIZE SUB DUP2 ADD SWAP1 PUSH2 0x21F SWAP2 SWAP1 PUSH2 0x1510 JUMP JUMPDEST PUSH2 0x9DC JUMP JUMPDEST STOP JUMPDEST CALLVALUE DUP1 ISZERO PUSH2 0x232 JUMPI PUSH1 0x0 DUP1 REVERT JUMPDEST POP PUSH2 0x23B PUSH2 0xCF6 JUMP JUMPDEST PUSH1 0x40 MLOAD PUSH2 0x248 SWAP2 SWAP1 PUSH2 0x15BA JUMP JUMPDEST PUSH1 0x40 MLOAD DUP1 SWAP2 SUB SWAP1 RETURN JUMPDEST CALLVALUE DUP1 ISZERO PUSH2 0x25D JUMPI PUSH1 0x0 DUP1 REVERT JUMPDEST POP PUSH2 0x266 PUSH2 0xD1A JUMP JUMPDEST PUSH1 0x40 MLOAD PUSH2 0x273 SWAP2 SWAP1 PUSH2 0x13E1 JUMP JUMPDEST PUSH1 0x40 MLOAD DUP1 SWAP2 SUB SWAP1 RETURN JUMPDEST CALLVALUE DUP1 ISZERO PUSH2 0x288 JUMPI PUSH1 0x0 DUP1 REVERT JUMPDEST POP PUSH2 0x2A3 PUSH1 0x4 DUP1 CALLDATASIZE SUB DUP2 ADD SWAP1 PUSH2 0x29E SWAP2 SWAP1 PUSH2 0x14D0 JUMP JUMPDEST PUSH2 0xD20 JUMP JUMPDEST PUSH1 0x40 MLOAD PUSH2 0x2B0 SWAP2 SWAP1 PUSH2 0x15D5 JUMP JUMPDEST PUSH1 0x40 MLOAD DUP1 SWAP2 SUB SWAP1 RETURN JUMPDEST CALLVALUE DUP1 ISZERO PUSH2 0x2C5 JUMPI PUSH1 0x0 DUP1 REVERT JUMPDEST POP PUSH2 0x2E0 PUSH1 0x4 DUP1 CALLDATASIZE SUB DUP2 ADD SWAP1 PUSH2 0x2DB SWAP2 SWAP1 PUSH2 0x1510 JUMP JUMPDEST PUSH2 0xD8E JUMP JUMPDEST STOP JUMPDEST CALLVALUE DUP1 ISZERO PUSH2 0x2EE JUMPI PUSH1 0x0 DUP1 REVERT JUMPDEST POP PUSH2 0x2F7 PUSH2 0xEA1 JUMP JUMPDEST PUSH1 0x40 MLOAD PUSH2 0x304 SWAP2 SWAP1 PUSH2 0x160C JUMP JUMPDEST PUSH1 0x40 MLOAD DUP1 SWAP2 SUB SWAP1 RETURN JUMPDEST CALLVALUE DUP1 ISZERO PUSH2 0x319 JUMPI PUSH1 0x0 DUP1 REVERT JUMPDEST POP PUSH2 0x334 PUSH1 0x4 DUP1 CALLDATASIZE SUB DUP2 ADD SWAP1 PUSH2 0x32F SWAP2 SWAP1 PUSH2 0x168C JUMP JUMPDEST PUSH2 0xEC5 JUMP JUMPDEST STOP JUMPDEST CALLVALUE DUP1 ISZERO PUSH2 0x342 JUMPI PUSH1 0x0 DUP1 REVERT JUMPDEST POP PUSH2 0x35D PUSH1 0x4 DUP1 CALLDATASIZE SUB DUP2 ADD SWAP1 PUSH2 0x358 SWAP2 SWAP1 PUSH2 0x1510 JUMP JUMPDEST PUSH2 0x1058 JUMP JUMPDEST STOP JUMPDEST PUSH2 0x379 PUSH1 0x4 DUP1 CALLDATASIZE SUB DUP2 ADD SWAP1 PUSH2 0x374 SWAP2 SWAP1 PUSH2 0x14D0 JUMP JUMPDEST PUSH2 0x10F0 JUMP JUMPDEST STOP JUMPDEST PUSH1 0x2 SLOAD DUP2 JUMP JUMPDEST PUSH1 0x0 DUP1 SLOAD SWAP1 PUSH2 0x100 EXP SWAP1 DIV PUSH20 0xFFFFFFFFFFFFFFFFFFFFFFFFFFFFFFFFFFFFFFFF AND PUSH20 0xFFFFFFFFFFFFFFFFFFFFFFFFFFFFFFFFFFFFFFFF AND CALLER PUSH20 0xFFFFFFFFFFFFFFFFFFFFFFFFFFFFFFFFFFFFFFFF AND EQ PUSH2 0x40F JUMPI PUSH1 0x40 MLOAD PUSH32 0x8C379A000000000000000000000000000000000000000000000000000000000 DUP2 MSTORE PUSH1 0x4 ADD PUSH2 0x406 SWAP1 PUSH2 0x176F JUMP JUMPDEST PUSH1 0x40 MLOAD DUP1 SWAP2 SUB SWAP1 REVERT JUMPDEST PUSH1 0x0 ISZERO ISZERO PUSH1 0x3 PUSH1 0x0 DUP5 DUP2 MSTORE PUSH1 0x20 ADD SWAP1 DUP2 MSTORE PUSH1 0x20 ADD PUSH1 0x0 KECCAK256 PUSH1 0x0 ADD PUSH1 0x0 SWAP1 SLOAD SWAP1 PUSH2 0x100 EXP SWAP1 DIV PUSH1 0xFF AND ISZERO ISZERO EQ PUSH2 0x479 JUMPI PUSH1 0x40 MLOAD PUSH32 0x8C379A000000000000000000000000000000000000000000000000000000000 DUP2 MSTORE PUSH1 0x4 ADD PUSH2 0x470 SWAP1 PUSH2 0x17DB JUMP JUMPDEST PUSH1 0x40 MLOAD DUP1 SWAP2 SUB SWAP1 REVERT JUMPDEST DUP1 PUSH1 0x3 PUSH1 0x0 DUP5 DUP2 MSTORE PUSH1 0x20 ADD SWAP1 DUP2 MSTORE PUSH1 0x20 ADD PUSH1 0x0 KECCAK256 PUSH1 0x2 ADD DUP2 SWAP1 SSTORE POP POP POP JUMP JUMPDEST PUSH1 0x0 DUP1 SLOAD SWAP1 PUSH2 0x100 EXP SWAP1 DIV PUSH20 0xFFFFFFFFFFFFFFFFFFFFFFFFFFFFFFFFFFFFFFFF AND PUSH20 0xFFFFFFFFFFFFFFFFFFFFFFFFFFFFFFFFFFFFFFFF AND CALLER PUSH20 0xFFFFFFFFFFFFFFFFFFFFFFFFFFFFFFFFFFFFFFFF AND EQ PUSH2 0x526 JUMPI PUSH1 0x40 MLOAD PUSH32 0x8C379A000000000000000000000000000000000000000000000000000000000 DUP2 MSTORE PUSH1 0x4 ADD PUSH2 0x51D SWAP1 PUSH2 0x176F JUMP JUMPDEST PUSH1 0x40 MLOAD DUP1 SWAP2 SUB SWAP1 REVERT JUMPDEST PUSH1 0x0 ISZERO ISZERO PUSH1 0x3 PUSH1 0x0 DUP5 DUP2 MSTORE PUSH1 0x20 ADD SWAP1 DUP2 MSTORE PUSH1 0x20 ADD PUSH1 0x0 KECCAK256 PUSH1 0x0 ADD PUSH1 0x0 SWAP1 SLOAD SWAP1 PUSH2 0x100 EXP SWAP1 DIV PUSH1 0xFF AND ISZERO ISZERO EQ PUSH2 0x590 JUMPI PUSH1 0x40 MLOAD PUSH32 0x8C379A000000000000000000000000000000000000000000000000000000000 DUP2 MSTORE PUSH1 0x4 ADD PUSH2 0x587 SWAP1 PUSH2 0x17DB JUMP JUMPDEST PUSH1 0x40 MLOAD DUP1 SWAP2 SUB SWAP1 REVERT JUMPDEST PUSH1 0x0 PUSH1 0x3 PUSH1 0x0 DUP5 DUP2 MSTORE PUSH1 0x20 ADD SWAP1 DUP2 MSTORE PUSH1 0x20 ADD PUSH1 0x0 KECCAK256 PUSH1 0x5 ADD PUSH1 0x0 DUP4 PUSH20 0xFFFFFFFFFFFFFFFFFFFFFFFFFFFFFFFFFFFFFFFF AND PUSH20 0xFFFFFFFFFFFFFFFFFFFFFFFFFFFFFFFFFFFFFFFF AND DUP2 MSTORE PUSH1 0x20 ADD SWAP1 DUP2 MSTORE PUSH1 0x20 ADD PUSH1 0x0 KECCAK256 PUSH1 0x0 ADD PUSH1 0x0 PUSH2 0x100 EXP DUP2 SLOAD DUP2 PUSH1 0xFF MUL NOT AND SWAP1 DUP4 ISZERO ISZERO MUL OR SWAP1 SSTORE POP DUP1 PUSH20 0xFFFFFFFFFFFFFFFFFFFFFFFFFFFFFFFFFFFFFFFF AND DUP3 PUSH32 0xD7A9EC927774DD3A7DB78ABE1A8634C4E4509290232EBE5BCD8E656D6946433 PUSH1 0x0 PUSH1 0x40 MLOAD PUSH2 0x647 SWAP2 SWAP1 PUSH2 0x15D5 JUMP JUMPDEST PUSH1 0x40 MLOAD DUP1 SWAP2 SUB SWAP1 LOG3 POP POP JUMP JUMPDEST PUSH1 0x0 DUP1 PUSH1 0x0 DUP1 PUSH1 0x0 PUSH1 0x3 PUSH1 0x0 DUP8 DUP2 MSTORE PUSH1 0x20 ADD SWAP1 DUP2 MSTORE PUSH1 0x20 ADD PUSH1 0x0 KECCAK256 PUSH1 0x0 ADD PUSH1 0x0 SWAP1 SLOAD SWAP1 PUSH2 0x100 EXP SWAP1 DIV PUSH1 0xFF AND PUSH1 0x3 PUSH1 0x0 DUP9 DUP2 MSTORE PUSH1 0x20 ADD SWAP1 DUP2 MSTORE PUSH1 0x20 ADD PUSH1 0x0 KECCAK256 PUSH1 0x0 ADD PUSH1 0x1 SWAP1 SLOAD SWAP1 PUSH2 0x100 EXP SWAP1 DIV PUSH20 0xFFFFFFFFFFFFFFFFFFFFFFFFFFFFFFFFFFFFFFFF AND PUSH1 0x3 PUSH1 0x0 DUP10 DUP2 MSTORE PUSH1 0x20 ADD SWAP1 DUP2 MSTORE PUSH1 0x20 ADD PUSH1 0x0 KECCAK256 PUSH1 0x1 ADD SLOAD PUSH1 0x3 PUSH1 0x0 DUP11 DUP2 MSTORE PUSH1 0x20 ADD SWAP1 DUP2 MSTORE PUSH1 0x20 ADD PUSH1 0x0 KECCAK256 PUSH1 0x3 ADD SLOAD PUSH1 0x3 PUSH1 0x0 DUP12 DUP2 MSTORE PUSH1 0x20 ADD SWAP1 DUP2 MSTORE PUSH1 0x20 ADD PUSH1 0x0 KECCAK256 PUSH1 0x4 ADD SLOAD SWAP5 POP SWAP5 POP SWAP5 POP SWAP5 POP SWAP5 POP SWAP2 SWAP4 SWAP6 SWAP1 SWAP3 SWAP5 POP JUMP JUMPDEST PUSH1 0x0 DUP1 SLOAD SWAP1 PUSH2 0x100 EXP SWAP1 DIV PUSH20 0xFFFFFFFFFFFFFFFFFFFFFFFFFFFFFFFFFFFFFFFF AND PUSH20 0xFFFFFFFFFFFFFFFFFFFFFFFFFFFFFFFFFFFFFFFF AND CALLER PUSH20 0xFFFFFFFFFFFFFFFFFFFFFFFFFFFFFFFFFFFFFFFF AND EQ PUSH2 0x79C JUMPI PUSH1 0x40 MLOAD PUSH32 0x8C379A000000000000000000000000000000000000000000000000000000000 DUP2 MSTORE PUSH1 0x4 ADD PUSH2 0x793 SWAP1 PUSH2 0x176F JUMP JUMPDEST PUSH1 0x40 MLOAD DUP1 SWAP2 SUB SWAP1 REVERT JUMPDEST PUSH1 0x0 ISZERO ISZERO PUSH1 0x3 PUSH1 0x0 DUP5 DUP2 MSTORE PUSH1 0x20 ADD SWAP1 DUP2 MSTORE PUSH1 0x20 ADD PUSH1 0x0 KECCAK256 PUSH1 0x0 ADD PUSH1 0x0 SWAP1 SLOAD SWAP1 PUSH2 0x100 EXP SWAP1 DIV PUSH1 0xFF AND ISZERO ISZERO EQ PUSH2 0x806 JUMPI PUSH1 0x40 MLOAD PUSH32 0x8C379A000000000000000000000000000000000000000000000000000000000 DUP2 MSTORE PUSH1 0x4 ADD PUSH2 0x7FD SWAP1 PUSH2 0x17DB JUMP JUMPDEST PUSH1 0x40 MLOAD DUP1 SWAP2 SUB SWAP1 REVERT JUMPDEST PUSH1 0x1 PUSH1 0x3 PUSH1 0x0 DUP5 DUP2 MSTORE PUSH1 0x20 ADD SWAP1 DUP2 MSTORE PUSH1 0x20 ADD PUSH1 0x0 KECCAK256 PUSH1 0x5 ADD PUSH1 0x0 DUP4 PUSH20 0xFFFFFFFFFFFFFFFFFFFFFFFFFFFFFFFFFFFFFFFF AND PUSH20 0xFFFFFFFFFFFFFFFFFFFFFFFFFFFFFFFFFFFFFFFF AND DUP2 MSTORE PUSH1 0x20 ADD SWAP1 DUP2 MSTORE PUSH1 0x20 ADD PUSH1 0x0 KECCAK256 PUSH1 0x0 ADD PUSH1 0x0 PUSH2 0x100 EXP DUP2 SLOAD DUP2 PUSH1 0xFF MUL NOT AND SWAP1 DUP4 ISZERO ISZERO MUL OR SWAP1 SSTORE POP DUP1 PUSH20 0xFFFFFFFFFFFFFFFFFFFFFFFFFFFFFFFFFFFFFFFF AND DUP3 PUSH32 0xD7A9EC927774DD3A7DB78ABE1A8634C4E4509290232EBE5BCD8E656D6946433 PUSH1 0x1 PUSH1 0x40 MLOAD PUSH2 0x8BD SWAP2 SWAP1 PUSH2 0x15D5 JUMP JUMPDEST PUSH1 0x40 MLOAD DUP1 SWAP2 SUB SWAP1 LOG3 POP POP JUMP JUMPDEST PUSH1 0x0 DUP1 SLOAD SWAP1 PUSH2 0x100 EXP SWAP1 DIV PUSH20 0xFFFFFFFFFFFFFFFFFFFFFFFFFFFFFFFFFFFFFFFF AND PUSH20 0xFFFFFFFFFFFFFFFFFFFFFFFFFFFFFFFFFFFFFFFF AND CALLER PUSH20 0xFFFFFFFFFFFFFFFFFFFFFFFFFFFFFFFFFFFFFFFF AND EQ PUSH2 0x957 JUMPI PUSH1 0x40 MLOAD PUSH32 0x8C379A000000000000000000000000000000000000000000000000000000000 DUP2 MSTORE PUSH1 0x4 ADD PUSH2 0x94E SWAP1 PUSH2 0x176F JUMP JUMPDEST PUSH1 0x40 MLOAD DUP1 SWAP2 SUB SWAP1 REVERT JUMPDEST PUSH1 0x1 PUSH1 0x3 PUSH1 0x0 DUP4 DUP2 MSTORE PUSH1 0x20 ADD SWAP1 DUP2 MSTORE PUSH1 0x20 ADD PUSH1 0x0 KECCAK256 PUSH1 0x0 ADD PUSH1 0x0 PUSH2 0x100 EXP DUP2 SLOAD DUP2 PUSH1 0xFF MUL NOT AND SWAP1 DUP4 ISZERO ISZERO MUL OR SWAP1 SSTORE POP TIMESTAMP PUSH1 0x3 PUSH1 0x0 DUP4 DUP2 MSTORE PUSH1 0x20 ADD SWAP1 DUP2 MSTORE PUSH1 0x20 ADD PUSH1 0x0 KECCAK256 PUSH1 0x1 ADD DUP2 SWAP1 SSTORE POP DUP1 PUSH32 0x377DFBD6E4AA0688C840EF165B5C872F7EABF72F5CCFD60C13C18E67D9EA581 TIMESTAMP PUSH1 0x40 MLOAD PUSH2 0x9D1 SWAP2 SWAP1 PUSH2 0x13E1 JUMP JUMPDEST PUSH1 0x40 MLOAD DUP1 SWAP2 SUB SWAP1 LOG2 POP JUMP JUMPDEST PUSH1 0x1 ISZERO ISZERO PUSH1 0x3 PUSH1 0x0 DUP4 DUP2 MSTORE PUSH1 0x20 ADD SWAP1 DUP2 MSTORE PUSH1 0x20 ADD PUSH1 0x0 KECCAK256 PUSH1 0x0 ADD PUSH1 0x0 SWAP1 SLOAD SWAP1 PUSH2 0x100 EXP SWAP1 DIV PUSH1 0xFF AND ISZERO ISZERO EQ PUSH2 0xA46 JUMPI PUSH1 0x40 MLOAD PUSH32 0x8C379A000000000000000000000000000000000000000000000000000000000 DUP2 MSTORE PUSH1 0x4 ADD PUSH2 0xA3D SWAP1 PUSH2 0x1847 JUMP JUMPDEST PUSH1 0x40 MLOAD DUP1 SWAP2 SUB SWAP1 REVERT JUMPDEST TIMESTAMP PUSH1 0x3 PUSH1 0x0 DUP4 DUP2 MSTORE PUSH1 0x20 ADD SWAP1 DUP2 MSTORE PUSH1 0x20 ADD PUSH1 0x0 KECCAK256 PUSH1 0x2 ADD SLOAD PUSH1 0x3 PUSH1 0x0 DUP5 DUP2 MSTORE PUSH1 0x20 ADD SWAP1 DUP2 MSTORE PUSH1 0x20 ADD PUSH1 0x0 KECCAK256 PUSH1 0x1 ADD SLOAD PUSH2 0xA7F SWAP2 SWAP1 PUSH2 0x1896 JUMP JUMPDEST LT PUSH2 0xABF JUMPI PUSH1 0x40 MLOAD PUSH32 0x8C379A000000000000000000000000000000000000000000000000000000000 DUP2 MSTORE PUSH1 0x4 ADD PUSH2 0xAB6 SWAP1 PUSH2 0x1916 JUMP JUMPDEST PUSH1 0x40 MLOAD DUP1 SWAP2 SUB SWAP1 REVERT JUMPDEST PUSH1 0x3 PUSH1 0x0 DUP3 DUP2 MSTORE PUSH1 0x20 ADD SWAP1 DUP2 MSTORE PUSH1 0x20 ADD PUSH1 0x0 KECCAK256 PUSH1 0x0 ADD PUSH1 0x1 SWAP1 SLOAD SWAP1 PUSH2 0x100 EXP SWAP1 DIV PUSH20 0xFFFFFFFFFFFFFFFFFFFFFFFFFFFFFFFFFFFFFFFF AND PUSH20 0xFFFFFFFFFFFFFFFFFFFFFFFFFFFFFFFFFFFFFFFF AND CALLER PUSH20 0xFFFFFFFFFFFFFFFFFFFFFFFFFFFFFFFFFFFFFFFF AND EQ PUSH2 0xB63 JUMPI PUSH1 0x40 MLOAD PUSH32 0x8C379A000000000000000000000000000000000000000000000000000000000 DUP2 MSTORE PUSH1 0x4 ADD PUSH2 0xB5A SWAP1 PUSH2 0x1982 JUMP JUMPDEST PUSH1 0x40 MLOAD DUP1 SWAP2 SUB SWAP1 REVERT JUMPDEST PUSH1 0x0 PUSH1 0x3 PUSH1 0x0 DUP4 DUP2 MSTORE PUSH1 0x20 ADD SWAP1 DUP2 MSTORE PUSH1 0x20 ADD PUSH1 0x0 KECCAK256 PUSH1 0x4 ADD SLOAD GT PUSH2 0xBBC JUMPI PUSH1 0x40 MLOAD PUSH32 0x8C379A000000000000000000000000000000000000000000000000000000000 DUP2 MSTORE PUSH1 0x4 ADD PUSH2 0xBB3 SWAP1 PUSH2 0x1A14 JUMP JUMPDEST PUSH1 0x40 MLOAD DUP1 SWAP2 SUB SWAP1 REVERT JUMPDEST PUSH1 0x0 PUSH1 0x3 PUSH1 0x0 DUP4 DUP2 MSTORE PUSH1 0x20 ADD SWAP1 DUP2 MSTORE PUSH1 0x20 ADD PUSH1 0x0 KECCAK256 PUSH1 0x4 ADD SLOAD SWAP1 POP PUSH1 0x0 PUSH1 0x64 DUP3 PUSH32 0x0 PUSH1 0xFF AND PUSH2 0xC0A SWAP2 SWAP1 PUSH2 0x1A34 JUMP JUMPDEST PUSH2 0xC14 SWAP2 SWAP1 PUSH2 0x1AA5 JUMP JUMPDEST SWAP1 POP PUSH1 0x0 DUP2 DUP4 PUSH2 0xC24 SWAP2 SWAP1 PUSH2 0x1AD6 JUMP JUMPDEST SWAP1 POP PUSH1 0x0 PUSH1 0x3 PUSH1 0x0 DUP7 DUP2 MSTORE PUSH1 0x20 ADD SWAP1 DUP2 MSTORE PUSH1 0x20 ADD PUSH1 0x0 KECCAK256 PUSH1 0x4 ADD DUP2 SWAP1 SSTORE POP PUSH1 0x0 DUP1 SLOAD SWAP1 PUSH2 0x100 EXP SWAP1 DIV PUSH20 0xFFFFFFFFFFFFFFFFFFFFFFFFFFFFFFFFFFFFFFFF AND PUSH20 0xFFFFFFFFFFFFFFFFFFFFFFFFFFFFFFFFFFFFFFFF AND PUSH2 0x8FC DUP4 SWAP1 DUP2 ISZERO MUL SWAP1 PUSH1 0x40 MLOAD PUSH1 0x0 PUSH1 0x40 MLOAD DUP1 DUP4 SUB DUP2 DUP6 DUP9 DUP9 CALL SWAP4 POP POP POP POP ISZERO DUP1 ISZERO PUSH2 0xCA8 JUMPI RETURNDATASIZE PUSH1 0x0 DUP1 RETURNDATACOPY RETURNDATASIZE PUSH1 0x0 REVERT JUMPDEST POP CALLER PUSH20 0xFFFFFFFFFFFFFFFFFFFFFFFFFFFFFFFFFFFFFFFF AND PUSH2 0x8FC DUP3 SWAP1 DUP2 ISZERO MUL SWAP1 PUSH1 0x40 MLOAD PUSH1 0x0 PUSH1 0x40 MLOAD DUP1 DUP4 SUB DUP2 DUP6 DUP9 DUP9 CALL SWAP4 POP POP POP POP ISZERO DUP1 ISZERO PUSH2 0xCEF JUMPI RETURNDATASIZE PUSH1 0x0 DUP1 RETURNDATACOPY RETURNDATASIZE PUSH1 0x0 REVERT JUMPDEST POP POP POP POP POP JUMP JUMPDEST PUSH1 0x0 DUP1 SLOAD SWAP1 PUSH2 0x100 EXP SWAP1 DIV PUSH20 0xFFFFFFFFFFFFFFFFFFFFFFFFFFFFFFFFFFFFFFFF AND DUP2 JUMP JUMPDEST PUSH1 0x1 SLOAD DUP2 JUMP JUMPDEST PUSH1 0x0 PUSH1 0x3 PUSH1 0x0 DUP5 DUP2 MSTORE PUSH1 0x20 ADD SWAP1 DUP2 MSTORE PUSH1 0x20 ADD PUSH1 0x0 KECCAK256 PUSH1 0x5 ADD PUSH1 0x0 DUP4 PUSH20 0xFFFFFFFFFFFFFFFFFFFFFFFFFFFFFFFFFFFFFFFF AND PUSH20 0xFFFFFFFFFFFFFFFFFFFFFFFFFFFFFFFFFFFFFFFF AND DUP2 MSTORE PUSH1 0x20 ADD SWAP1 DUP2 MSTORE PUSH1 0x20 ADD PUSH1 0x0 KECCAK256 PUSH1 0x0 ADD PUSH1 0x0 SWAP1 SLOAD SWAP1 PUSH2 0x100 EXP SWAP1 DIV PUSH1 0xFF AND SWAP1 POP SWAP3 SWAP2 POP POP JUMP JUMPDEST PUSH1 0x0 DUP1 SLOAD SWAP1 PUSH2 0x100 EXP SWAP1 DIV PUSH20 0xFFFFFFFFFFFFFFFFFFFFFFFFFFFFFFFFFFFFFFFF AND PUSH20 0xFFFFFFFFFFFFFFFFFFFFFFFFFFFFFFFFFFFFFFFF AND CALLER PUSH20 0xFFFFFFFFFFFFFFFFFFFFFFFFFFFFFFFFFFFFFFFF AND EQ PUSH2 0xE1C JUMPI PUSH1 0x40 MLOAD PUSH32 0x8C379A000000000000000000000000000000000000000000000000000000000 DUP2 MSTORE PUSH1 0x4 ADD PUSH2 0xE13 SWAP1 PUSH2 0x176F JUMP JUMPDEST PUSH1 0x40 MLOAD DUP1 SWAP2 SUB SWAP1 REVERT JUMPDEST PUSH1 0x1 PUSH1 0x3 PUSH1 0x0 DUP4 DUP2 MSTORE PUSH1 0x20 ADD SWAP1 DUP2 MSTORE PUSH1 0x20 ADD PUSH1 0x0 KECCAK256 PUSH1 0x0 ADD PUSH1 0x0 PUSH2 0x100 EXP DUP2 SLOAD DUP2 PUSH1 0xFF MUL NOT AND SWAP1 DUP4 ISZERO ISZERO MUL OR SWAP1 SSTORE POP TIMESTAMP PUSH1 0x3 PUSH1 0x0 DUP4 DUP2 MSTORE PUSH1 0x20 ADD SWAP1 DUP2 MSTORE PUSH1 0x20 ADD PUSH1 0x0 KECCAK256 PUSH1 0x1 ADD DUP2 SWAP1 SSTORE POP DUP1 PUSH32 0x377DFBD6E4AA0688C840EF165B5C872F7EABF72F5CCFD60C13C18E67D9EA581 TIMESTAMP PUSH1 0x40 MLOAD PUSH2 0xE96 SWAP2 SWAP1 PUSH2 0x13E1 JUMP JUMPDEST PUSH1 0x40 MLOAD DUP1 SWAP2 SUB SWAP1 LOG2 POP JUMP JUMPDEST PUSH32 0x0 DUP2 JUMP JUMPDEST PUSH1 0x0 DUP1 SLOAD SWAP1 PUSH2 0x100 EXP SWAP1 DIV PUSH20 0xFFFFFFFFFFFFFFFFFFFFFFFFFFFFFFFFFFFFFFFF AND PUSH20 0xFFFFFFFFFFFFFFFFFFFFFFFFFFFFFFFFFFFFFFFF AND CALLER PUSH20 0xFFFFFFFFFFFFFFFFFFFFFFFFFFFFFFFFFFFFFFFF AND EQ PUSH2 0xF53 JUMPI PUSH1 0x40 MLOAD PUSH32 0x8C379A000000000000000000000000000000000000000000000000000000000 DUP2 MSTORE PUSH1 0x4 ADD PUSH2 0xF4A SWAP1 PUSH2 0x176F JUMP JUMPDEST PUSH1 0x40 MLOAD DUP1 SWAP2 SUB SWAP1 REVERT JUMPDEST PUSH1 0x1 SLOAD DUP3 DUP3 SWAP1 POP LT PUSH2 0xF9A JUMPI PUSH1 0x40 MLOAD PUSH32 0x8C379A000000000000000000000000000000000000000000000000000000000 DUP2 MSTORE PUSH1 0x4 ADD PUSH2 0xF91 SWAP1 PUSH2 0x1B56 JUMP JUMPDEST PUSH1 0x40 MLOAD DUP1 SWAP2 SUB SWAP1 REVERT JUMPDEST DUP3 PUSH1 0x3 PUSH1 0x0 PUSH1 0x2 SLOAD DUP2 MSTORE PUSH1 0x20 ADD SWAP1 DUP2 MSTORE PUSH1 0x20 ADD PUSH1 0x0 KECCAK256 PUSH1 0x2 ADD DUP2 SWAP1 SSTORE POP PUSH1 0x0 JUMPDEST DUP3 DUP3 SWAP1 POP DUP2 LT ISZERO PUSH2 0x100B JUMPI PUSH2 0xFF8 PUSH1 0x2 SLOAD DUP5 DUP5 DUP5 DUP2 DUP2 LT PUSH2 0xFDE JUMPI PUSH2 0xFDD PUSH2 0x1B76 JUMP JUMPDEST JUMPDEST SWAP1 POP PUSH1 0x20 MUL ADD PUSH1 0x20 DUP2 ADD SWAP1 PUSH2 0xFF3 SWAP2 SWAP1 PUSH2 0x1BA5 JUMP JUMPDEST PUSH2 0x70E JUMP JUMPDEST DUP1 DUP1 PUSH2 0x1003 SWAP1 PUSH2 0x1BD2 JUMP JUMPDEST SWAP2 POP POP PUSH2 0xFBA JUMP JUMPDEST POP PUSH1 0x2 SLOAD PUSH32 0xBA2F0756CDF8791D4BA21DE0481BB93B90AB1A268D3E1CDF8AA1C3F856BB68B9 PUSH1 0x40 MLOAD PUSH1 0x40 MLOAD DUP1 SWAP2 SUB SWAP1 LOG2 PUSH1 0x2 PUSH1 0x0 DUP2 SLOAD DUP1 SWAP3 SWAP2 SWAP1 PUSH2 0x104E SWAP1 PUSH2 0x1BD2 JUMP JUMPDEST SWAP2 SWAP1 POP SSTORE POP POP POP POP JUMP JUMPDEST PUSH1 0x0 DUP1 SLOAD SWAP1 PUSH2 0x100 EXP SWAP1 DIV PUSH20 0xFFFFFFFFFFFFFFFFFFFFFFFFFFFFFFFFFFFFFFFF AND PUSH20 0xFFFFFFFFFFFFFFFFFFFFFFFFFFFFFFFFFFFFFFFF AND CALLER PUSH20 0xFFFFFFFFFFFFFFFFFFFFFFFFFFFFFFFFFFFFFFFF AND EQ PUSH2 0x10E6 JUMPI PUSH1 0x40 MLOAD PUSH32 0x8C379A000000000000000000000000000000000000000000000000000000000 DUP2 MSTORE PUSH1 0x4 ADD PUSH2 0x10DD SWAP1 PUSH2 0x176F JUMP JUMPDEST PUSH1 0x40 MLOAD DUP1 SWAP2 SUB SWAP1 REVERT JUMPDEST DUP1 PUSH1 0x1 DUP2 SWAP1 SSTORE POP POP JUMP JUMPDEST PUSH1 0x1 ISZERO ISZERO PUSH1 0x3 PUSH1 0x0 DUP5 DUP2 MSTORE PUSH1 0x20 ADD SWAP1 DUP2 MSTORE PUSH1 0x20 ADD PUSH1 0x0 KECCAK256 PUSH1 0x0 ADD PUSH1 0x0 SWAP1 SLOAD SWAP1 PUSH2 0x100 EXP SWAP1 DIV PUSH1 0xFF AND ISZERO ISZERO EQ PUSH2 0x115A JUMPI PUSH1 0x40 MLOAD PUSH32 0x8C379A000000000000000000000000000000000000000000000000000000000 DUP2 MSTORE PUSH1 0x4 ADD PUSH2 0x1151 SWAP1 PUSH2 0x1C8C JUMP JUMPDEST PUSH1 0x40 MLOAD DUP1 SWAP2 SUB SWAP1 REVERT JUMPDEST TIMESTAMP PUSH1 0x3 PUSH1 0x0 DUP5 DUP2 MSTORE PUSH1 0x20 ADD SWAP1 DUP2 MSTORE PUSH1 0x20 ADD PUSH1 0x0 KECCAK256 PUSH1 0x2 ADD SLOAD PUSH1 0x3 PUSH1 0x0 DUP6 DUP2 MSTORE PUSH1 0x20 ADD SWAP1 DUP2 MSTORE PUSH1 0x20 ADD PUSH1 0x0 KECCAK256 PUSH1 0x1 ADD SLOAD PUSH2 0x1193 SWAP2 SWAP1 PUSH2 0x1896 JUMP JUMPDEST GT PUSH2 0x11D3 JUMPI PUSH1 0x40 MLOAD PUSH32 0x8C379A000000000000000000000000000000000000000000000000000000000 DUP2 MSTORE PUSH1 0x4 ADD PUSH2 0x11CA SWAP1 PUSH2 0x1CF8 JUMP JUMPDEST PUSH1 0x40 MLOAD DUP1 SWAP2 SUB SWAP1 REVERT JUMPDEST PUSH2 0x11DD DUP3 DUP3 PUSH2 0xD20 JUMP JUMPDEST PUSH2 0x121C JUMPI PUSH1 0x40 MLOAD PUSH32 0x8C379A000000000000000000000000000000000000000000000000000000000 DUP2 MSTORE PUSH1 0x4 ADD PUSH2 0x1213 SWAP1 PUSH2 0x1D8A JUMP JUMPDEST PUSH1 0x40 MLOAD DUP1 SWAP2 SUB SWAP1 REVERT JUMPDEST CALLVALUE PUSH1 0x3 PUSH1 0x0 DUP5 DUP2 MSTORE PUSH1 0x20 ADD SWAP1 DUP2 MSTORE PUSH1 0x20 ADD PUSH1 0x0 KECCAK256 PUSH1 0x5 ADD PUSH1 0x0 DUP4 PUSH20 0xFFFFFFFFFFFFFFFFFFFFFFFFFFFFFFFFFFFFFFFF AND PUSH20 0xFFFFFFFFFFFFFFFFFFFFFFFFFFFFFFFFFFFFFFFF AND DUP2 MSTORE PUSH1 0x20 ADD SWAP1 DUP2 MSTORE PUSH1 0x20 ADD PUSH1 0x0 KECCAK256 PUSH1 0x1 ADD PUSH1 0x0 DUP3 DUP3 SLOAD PUSH2 0x1282 SWAP2 SWAP1 PUSH2 0x1896 JUMP JUMPDEST SWAP3 POP POP DUP2 SWAP1 SSTORE POP PUSH1 0x3 PUSH1 0x0 DUP4 DUP2 MSTORE PUSH1 0x20 ADD SWAP1 DUP2 MSTORE PUSH1 0x20 ADD PUSH1 0x0 KECCAK256 PUSH1 0x3 ADD SLOAD PUSH1 0x3 PUSH1 0x0 DUP5 DUP2 MSTORE PUSH1 0x20 ADD SWAP1 DUP2 MSTORE PUSH1 0x20 ADD PUSH1 0x0 KECCAK256 PUSH1 0x5 ADD PUSH1 0x0 DUP4 PUSH20 0xFFFFFFFFFFFFFFFFFFFFFFFFFFFFFFFFFFFFFFFF AND PUSH20 0xFFFFFFFFFFFFFFFFFFFFFFFFFFFFFFFFFFFFFFFF AND DUP2 MSTORE PUSH1 0x20 ADD SWAP1 DUP2 MSTORE PUSH1 0x20 ADD PUSH1 0x0 KECCAK256 PUSH1 0x1 ADD SLOAD GT ISZERO PUSH2 0x13C4 JUMPI DUP1 PUSH1 0x3 PUSH1 0x0 DUP5 DUP2 MSTORE PUSH1 0x20 ADD SWAP1 DUP2 MSTORE PUSH1 0x20 ADD PUSH1 0x0 KECCAK256 PUSH1 0x0 ADD PUSH1 0x1 PUSH2 0x100 EXP DUP2 SLOAD DUP2 PUSH20 0xFFFFFFFFFFFFFFFFFFFFFFFFFFFFFFFFFFFFFFFF MUL NOT AND SWAP1 DUP4 PUSH20 0xFFFFFFFFFFFFFFFFFFFFFFFFFFFFFFFFFFFFFFFF AND MUL OR SWAP1 SSTORE POP PUSH1 0x3 PUSH1 0x0 DUP4 DUP2 MSTORE PUSH1 0x20 ADD SWAP1 DUP2 MSTORE PUSH1 0x20 ADD PUSH1 0x0 KECCAK256 PUSH1 0x5 ADD PUSH1 0x0 DUP3 PUSH20 0xFFFFFFFFFFFFFFFFFFFFFFFFFFFFFFFFFFFFFFFF AND PUSH20 0xFFFFFFFFFFFFFFFFFFFFFFFFFFFFFFFFFFFFFFFF AND DUP2 MSTORE PUSH1 0x20 ADD SWAP1 DUP2 MSTORE PUSH1 0x20 ADD PUSH1 0x0 KECCAK256 PUSH1 0x1 ADD SLOAD PUSH1 0x3 PUSH1 0x0 DUP5 DUP2 MSTORE PUSH1 0x20 ADD SWAP1 DUP2 MSTORE PUSH1 0x20 ADD PUSH1 0x0 KECCAK256 PUSH1 0x3 ADD DUP2 SWAP1 SSTORE POP JUMPDEST POP POP JUMP JUMPDEST PUSH1 0x0 DUP2 SWAP1 POP SWAP2 SWAP1 POP JUMP JUMPDEST PUSH2 0x13DB DUP2 PUSH2 0x13C8 JUMP JUMPDEST DUP3 MSTORE POP POP JUMP JUMPDEST PUSH1 0x0 PUSH1 0x20 DUP3 ADD SWAP1 POP PUSH2 0x13F6 PUSH1 0x0 DUP4 ADD DUP5 PUSH2 0x13D2 JUMP JUMPDEST SWAP3 SWAP2 POP POP JUMP JUMPDEST PUSH1 0x0 DUP1 REVERT JUMPDEST PUSH1 0x0 DUP1 REVERT JUMPDEST PUSH2 0x140F DUP2 PUSH2 0x13C8 JUMP JUMPDEST DUP2 EQ PUSH2 0x141A JUMPI PUSH1 0x0 DUP1 REVERT JUMPDEST POP JUMP JUMPDEST PUSH1 0x0 DUP2 CALLDATALOAD SWAP1 POP PUSH2 0x142C DUP2 PUSH2 0x1406 JUMP JUMPDEST SWAP3 SWAP2 POP POP JUMP JUMPDEST PUSH1 0x0 DUP1 PUSH1 0x40 DUP4 DUP6 SUB SLT ISZERO PUSH2 0x1449 JUMPI PUSH2 0x1448 PUSH2 0x13FC JUMP JUMPDEST JUMPDEST PUSH1 0x0 PUSH2 0x1457 DUP6 DUP3 DUP7 ADD PUSH2 0x141D JUMP JUMPDEST SWAP3 POP POP PUSH1 0x20 PUSH2 0x1468 DUP6 DUP3 DUP7 ADD PUSH2 0x141D JUMP JUMPDEST SWAP2 POP POP SWAP3 POP SWAP3 SWAP1 POP JUMP JUMPDEST PUSH1 0x0 PUSH20 0xFFFFFFFFFFFFFFFFFFFFFFFFFFFFFFFFFFFFFFFF DUP3 AND SWAP1 POP SWAP2 SWAP1 POP JUMP JUMPDEST PUSH1 0x0 PUSH2 0x149D DUP3 PUSH2 0x1472 JUMP JUMPDEST SWAP1 POP SWAP2 SWAP1 POP JUMP JUMPDEST PUSH2 0x14AD DUP2 PUSH2 0x1492 JUMP JUMPDEST DUP2 EQ PUSH2 0x14B8 JUMPI PUSH1 0x0 DUP1 REVERT JUMPDEST POP JUMP JUMPDEST PUSH1 0x0 DUP2 CALLDATALOAD SWAP1 POP PUSH2 0x14CA DUP2 PUSH2 0x14A4 JUMP JUMPDEST SWAP3 SWAP2 POP POP JUMP JUMPDEST PUSH1 0x0 DUP1 PUSH1 0x40 DUP4 DUP6 SUB SLT ISZERO PUSH2 0x14E7 JUMPI PUSH2 0x14E6 PUSH2 0x13FC JUMP JUMPDEST JUMPDEST PUSH1 0x0 PUSH2 0x14F5 DUP6 DUP3 DUP7 ADD PUSH2 0x141D JUMP JUMPDEST SWAP3 POP POP PUSH1 0x20 PUSH2 0x1506 DUP6 DUP3 DUP7 ADD PUSH2 0x14BB JUMP JUMPDEST SWAP2 POP POP SWAP3 POP SWAP3 SWAP1 POP JUMP JUMPDEST PUSH1 0x0 PUSH1 0x20 DUP3 DUP5 SUB SLT ISZERO PUSH2 0x1526 JUMPI PUSH2 0x1525 PUSH2 0x13FC JUMP JUMPDEST JUMPDEST PUSH1 0x0 PUSH2 0x1534 DUP5 DUP3 DUP6 ADD PUSH2 0x141D JUMP JUMPDEST SWAP2 POP POP SWAP3 SWAP2 POP POP JUMP JUMPDEST PUSH1 0x0 DUP2 ISZERO ISZERO SWAP1 POP SWAP2 SWAP1 POP JUMP JUMPDEST PUSH2 0x1552 DUP2 PUSH2 0x153D JUMP JUMPDEST DUP3 MSTORE POP POP JUMP JUMPDEST PUSH2 0x1561 DUP2 PUSH2 0x1492 JUMP JUMPDEST DUP3 MSTORE POP POP JUMP JUMPDEST PUSH1 0x0 PUSH1 0xA0 DUP3 ADD SWAP1 POP PUSH2 0x157C PUSH1 0x0 DUP4 ADD DUP9 PUSH2 0x1549 JUMP JUMPDEST PUSH2 0x1589 PUSH1 0x20 DUP4 ADD DUP8 PUSH2 0x1558 JUMP JUMPDEST PUSH2 0x1596 PUSH1 0x40 DUP4 ADD DUP7 PUSH2 0x13D2 JUMP JUMPDEST PUSH2 0x15A3 PUSH1 0x60 DUP4 ADD DUP6 PUSH2 0x13D2 JUMP JUMPDEST PUSH2 0x15B0 PUSH1 0x80 DUP4 ADD DUP5 PUSH2 0x13D2 JUMP JUMPDEST SWAP7 SWAP6 POP POP POP POP POP POP JUMP JUMPDEST PUSH1 0x0 PUSH1 0x20 DUP3 ADD SWAP1 POP PUSH2 0x15CF PUSH1 0x0 DUP4 ADD DUP5 PUSH2 0x1558 JUMP JUMPDEST SWAP3 SWAP2 POP POP JUMP JUMPDEST PUSH1 0x0 PUSH1 0x20 DUP3 ADD SWAP1 POP PUSH2 0x15EA PUSH1 0x0 DUP4 ADD DUP5 PUSH2 0x1549 JUMP JUMPDEST SWAP3 SWAP2 POP POP JUMP JUMPDEST PUSH1 0x0 PUSH1 0xFF DUP3 AND SWAP1 POP SWAP2 SWAP1 POP JUMP JUMPDEST PUSH2 0x1606 DUP2 PUSH2 0x15F0 JUMP JUMPDEST DUP3 MSTORE POP POP JUMP JUMPDEST PUSH1 0x0 PUSH1 0x20 DUP3 ADD SWAP1 POP PUSH2 0x1621 PUSH1 0x0 DUP4 ADD DUP5 PUSH2 0x15FD JUMP JUMPDEST SWAP3 SWAP2 POP POP JUMP JUMPDEST PUSH1 0x0 DUP1 REVERT JUMPDEST PUSH1 0x0 DUP1 REVERT JUMPDEST PUSH1 0x0 DUP1 REVERT JUMPDEST PUSH1 0x0 DUP1 DUP4 PUSH1 0x1F DUP5 ADD SLT PUSH2 0x164C JUMPI PUSH2 0x164B PUSH2 0x1627 JUMP JUMPDEST JUMPDEST DUP3 CALLDATALOAD SWAP1 POP PUSH8 0xFFFFFFFFFFFFFFFF DUP2 GT ISZERO PUSH2 0x1669 JUMPI PUSH2 0x1668 PUSH2 0x162C JUMP JUMPDEST JUMPDEST PUSH1 0x20 DUP4 ADD SWAP2 POP DUP4 PUSH1 0x20 DUP3 MUL DUP4 ADD GT ISZERO PUSH2 0x1685 JUMPI PUSH2 0x1684 PUSH2 0x1631 JUMP JUMPDEST JUMPDEST SWAP3 POP SWAP3 SWAP1 POP JUMP JUMPDEST PUSH1 0x0 DUP1 PUSH1 0x0 PUSH1 0x40 DUP5 DUP7 SUB SLT ISZERO PUSH2 0x16A5 JUMPI PUSH2 0x16A4 PUSH2 0x13FC JUMP JUMPDEST JUMPDEST PUSH1 0x0 PUSH2 0x16B3 DUP7 DUP3 DUP8 ADD PUSH2 0x141D JUMP JUMPDEST SWAP4 POP POP PUSH1 0x20 DUP5 ADD CALLDATALOAD PUSH8 0xFFFFFFFFFFFFFFFF DUP2 GT ISZERO PUSH2 0x16D4 JUMPI PUSH2 0x16D3 PUSH2 0x1401 JUMP JUMPDEST JUMPDEST PUSH2 0x16E0 DUP7 DUP3 DUP8 ADD PUSH2 0x1636 JUMP JUMPDEST SWAP3 POP SWAP3 POP POP SWAP3 POP SWAP3 POP SWAP3 JUMP JUMPDEST PUSH1 0x0 DUP3 DUP3 MSTORE PUSH1 0x20 DUP3 ADD SWAP1 POP SWAP3 SWAP2 POP POP JUMP JUMPDEST PUSH32 0x4572726F722120596F75277265206E6F742074686520736D61727420636F6E74 PUSH1 0x0 DUP3 ADD MSTORE PUSH32 0x72616374206F776E657221000000000000000000000000000000000000000000 PUSH1 0x20 DUP3 ADD MSTORE POP JUMP JUMPDEST PUSH1 0x0 PUSH2 0x1759 PUSH1 0x2B DUP4 PUSH2 0x16EC JUMP JUMPDEST SWAP2 POP PUSH2 0x1764 DUP3 PUSH2 0x16FD JUMP JUMPDEST PUSH1 0x40 DUP3 ADD SWAP1 POP SWAP2 SWAP1 POP JUMP JUMPDEST PUSH1 0x0 PUSH1 0x20 DUP3 ADD SWAP1 POP DUP2 DUP2 SUB PUSH1 0x0 DUP4 ADD MSTORE PUSH2 0x1788 DUP2 PUSH2 0x174C JUMP JUMPDEST SWAP1 POP SWAP2 SWAP1 POP JUMP JUMPDEST PUSH32 0x566F74696E672068617320616C726561647920626567756E2100000000000000 PUSH1 0x0 DUP3 ADD MSTORE POP JUMP JUMPDEST PUSH1 0x0 PUSH2 0x17C5 PUSH1 0x19 DUP4 PUSH2 0x16EC JUMP JUMPDEST SWAP2 POP PUSH2 0x17D0 DUP3 PUSH2 0x178F JUMP JUMPDEST PUSH1 0x20 DUP3 ADD SWAP1 POP SWAP2 SWAP1 POP JUMP JUMPDEST PUSH1 0x0 PUSH1 0x20 DUP3 ADD SWAP1 POP DUP2 DUP2 SUB PUSH1 0x0 DUP4 ADD MSTORE PUSH2 0x17F4 DUP2 PUSH2 0x17B8 JUMP JUMPDEST SWAP1 POP SWAP2 SWAP1 POP JUMP JUMPDEST PUSH32 0x566F74696E67206E6F7420737461727465642079657400000000000000000000 PUSH1 0x0 DUP3 ADD MSTORE POP JUMP JUMPDEST PUSH1 0x0 PUSH2 0x1831 PUSH1 0x16 DUP4 PUSH2 0x16EC JUMP JUMPDEST SWAP2 POP PUSH2 0x183C DUP3 PUSH2 0x17FB JUMP JUMPDEST PUSH1 0x20 DUP3 ADD SWAP1 POP SWAP2 SWAP1 POP JUMP JUMPDEST PUSH1 0x0 PUSH1 0x20 DUP3 ADD SWAP1 POP DUP2 DUP2 SUB PUSH1 0x0 DUP4 ADD MSTORE PUSH2 0x1860 DUP2 PUSH2 0x1824 JUMP JUMPDEST SWAP1 POP SWAP2 SWAP1 POP JUMP JUMPDEST PUSH32 0x4E487B7100000000000000000000000000000000000000000000000000000000 PUSH1 0x0 MSTORE PUSH1 0x11 PUSH1 0x4 MSTORE PUSH1 0x24 PUSH1 0x0 REVERT JUMPDEST PUSH1 0x0 PUSH2 0x18A1 DUP3 PUSH2 0x13C8 JUMP JUMPDEST SWAP2 POP PUSH2 0x18AC DUP4 PUSH2 0x13C8 JUMP JUMPDEST SWAP3 POP DUP3 DUP3 ADD SWAP1 POP DUP1 DUP3 GT ISZERO PUSH2 0x18C4 JUMPI PUSH2 0x18C3 PUSH2 0x1867 JUMP JUMPDEST JUMPDEST SWAP3 SWAP2 POP POP JUMP JUMPDEST PUSH32 0x566F74696E67206973206E6F74206F7665722079657421000000000000000000 PUSH1 0x0 DUP3 ADD MSTORE POP JUMP JUMPDEST PUSH1 0x0 PUSH2 0x1900 PUSH1 0x17 DUP4 PUSH2 0x16EC JUMP JUMPDEST SWAP2 POP PUSH2 0x190B DUP3 PUSH2 0x18CA JUMP JUMPDEST PUSH1 0x20 DUP3 ADD SWAP1 POP SWAP2 SWAP1 POP JUMP JUMPDEST PUSH1 0x0 PUSH1 0x20 DUP3 ADD SWAP1 POP DUP2 DUP2 SUB PUSH1 0x0 DUP4 ADD MSTORE PUSH2 0x192F DUP2 PUSH2 0x18F3 JUMP JUMPDEST SWAP1 POP SWAP2 SWAP1 POP JUMP JUMPDEST PUSH32 0x596F7520617265206E6F7420612077696E6E6572210000000000000000000000 PUSH1 0x0 DUP3 ADD MSTORE POP JUMP JUMPDEST PUSH1 0x0 PUSH2 0x196C PUSH1 0x15 DUP4 PUSH2 0x16EC JUMP JUMPDEST SWAP2 POP PUSH2 0x1977 DUP3 PUSH2 0x1936 JUMP JUMPDEST PUSH1 0x20 DUP3 ADD SWAP1 POP SWAP2 SWAP1 POP JUMP JUMPDEST PUSH1 0x0 PUSH1 0x20 DUP3 ADD SWAP1 POP DUP2 DUP2 SUB PUSH1 0x0 DUP4 ADD MSTORE PUSH2 0x199B DUP2 PUSH2 0x195F JUMP JUMPDEST SWAP1 POP SWAP2 SWAP1 POP JUMP JUMPDEST PUSH32 0x596F75206861766520616C726561647920726563656976656420796F75722070 PUSH1 0x0 DUP3 ADD MSTORE PUSH32 0x72697A6521000000000000000000000000000000000000000000000000000000 PUSH1 0x20 DUP3 ADD MSTORE POP JUMP JUMPDEST PUSH1 0x0 PUSH2 0x19FE PUSH1 0x25 DUP4 PUSH2 0x16EC JUMP JUMPDEST SWAP2 POP PUSH2 0x1A09 DUP3 PUSH2 0x19A2 JUMP JUMPDEST PUSH1 0x40 DUP3 ADD SWAP1 POP SWAP2 SWAP1 POP JUMP JUMPDEST PUSH1 0x0 PUSH1 0x20 DUP3 ADD SWAP1 POP DUP2 DUP2 SUB PUSH1 0x0 DUP4 ADD MSTORE PUSH2 0x1A2D DUP2 PUSH2 0x19F1 JUMP JUMPDEST SWAP1 POP SWAP2 SWAP1 POP JUMP JUMPDEST PUSH1 0x0 PUSH2 0x1A3F DUP3 PUSH2 0x13C8 JUMP JUMPDEST SWAP2 POP PUSH2 0x1A4A DUP4 PUSH2 0x13C8 JUMP JUMPDEST SWAP3 POP DUP3 DUP3 MUL PUSH2 0x1A58 DUP2 PUSH2 0x13C8 JUMP JUMPDEST SWAP2 POP DUP3 DUP3 DIV DUP5 EQ DUP4 ISZERO OR PUSH2 0x1A6F JUMPI PUSH2 0x1A6E PUSH2 0x1867 JUMP JUMPDEST JUMPDEST POP SWAP3 SWAP2 POP POP JUMP JUMPDEST PUSH32 0x4E487B7100000000000000000000000000000000000000000000000000000000 PUSH1 0x0 MSTORE PUSH1 0x12 PUSH1 0x4 MSTORE PUSH1 0x24 PUSH1 0x0 REVERT JUMPDEST PUSH1 0x0 PUSH2 0x1AB0 DUP3 PUSH2 0x13C8 JUMP JUMPDEST SWAP2 POP PUSH2 0x1ABB DUP4 PUSH2 0x13C8 JUMP JUMPDEST SWAP3 POP DUP3 PUSH2 0x1ACB JUMPI PUSH2 0x1ACA PUSH2 0x1A76 JUMP JUMPDEST JUMPDEST DUP3 DUP3 DIV SWAP1 POP SWAP3 SWAP2 POP POP JUMP JUMPDEST PUSH1 0x0 PUSH2 0x1AE1 DUP3 PUSH2 0x13C8 JUMP JUMPDEST SWAP2 POP PUSH2 0x1AEC DUP4 PUSH2 0x13C8 JUMP JUMPDEST SWAP3 POP DUP3 DUP3 SUB SWAP1 POP DUP2 DUP2 GT ISZERO PUSH2 0x1B04 JUMPI PUSH2 0x1B03 PUSH2 0x1867 JUMP JUMPDEST JUMPDEST SWAP3 SWAP2 POP POP JUMP JUMPDEST PUSH32 0x546F6F206D616E792063616E6469646174657321000000000000000000000000 PUSH1 0x0 DUP3 ADD MSTORE POP JUMP JUMPDEST PUSH1 0x0 PUSH2 0x1B40 PUSH1 0x14 DUP4 PUSH2 0x16EC JUMP JUMPDEST SWAP2 POP PUSH2 0x1B4B DUP3 PUSH2 0x1B0A JUMP JUMPDEST PUSH1 0x20 DUP3 ADD SWAP1 POP SWAP2 SWAP1 POP JUMP JUMPDEST PUSH1 0x0 PUSH1 0x20 DUP3 ADD SWAP1 POP DUP2 DUP2 SUB PUSH1 0x0 DUP4 ADD MSTORE PUSH2 0x1B6F DUP2 PUSH2 0x1B33 JUMP JUMPDEST SWAP1 POP SWAP2 SWAP1 POP JUMP JUMPDEST PUSH32 0x4E487B7100000000000000000000000000000000000000000000000000000000 PUSH1 0x0 MSTORE PUSH1 0x32 PUSH1 0x4 MSTORE PUSH1 0x24 PUSH1 0x0 REVERT JUMPDEST PUSH1 0x0 PUSH1 0x20 DUP3 DUP5 SUB SLT ISZERO PUSH2 0x1BBB JUMPI PUSH2 0x1BBA PUSH2 0x13FC JUMP JUMPDEST JUMPDEST PUSH1 0x0 PUSH2 0x1BC9 DUP5 DUP3 DUP6 ADD PUSH2 0x14BB JUMP JUMPDEST SWAP2 POP POP SWAP3 SWAP2 POP POP JUMP JUMPDEST PUSH1 0x0 PUSH2 0x1BDD DUP3 PUSH2 0x13C8 JUMP JUMPDEST SWAP2 POP PUSH32 0xFFFFFFFFFFFFFFFFFFFFFFFFFFFFFFFFFFFFFFFFFFFFFFFFFFFFFFFFFFFFFFFF DUP3 SUB PUSH2 0x1C0F JUMPI PUSH2 0x1C0E PUSH2 0x1867 JUMP JUMPDEST JUMPDEST PUSH1 0x1 DUP3 ADD SWAP1 POP SWAP2 SWAP1 POP JUMP JUMPDEST PUSH32 0x566F74696E67206973206E6F742073746172746564206F72206E6F7420657869 PUSH1 0x0 DUP3 ADD MSTORE PUSH32 0x73742E0000000000000000000000000000000000000000000000000000000000 PUSH1 0x20 DUP3 ADD MSTORE POP JUMP JUMPDEST PUSH1 0x0 PUSH2 0x1C76 PUSH1 0x23 DUP4 PUSH2 0x16EC JUMP JUMPDEST SWAP2 POP PUSH2 0x1C81 DUP3 PUSH2 0x1C1A JUMP JUMPDEST PUSH1 0x40 DUP3 ADD SWAP1 POP SWAP2 SWAP1 POP JUMP JUMPDEST PUSH1 0x0 PUSH1 0x20 DUP3 ADD SWAP1 POP DUP2 DUP2 SUB PUSH1 0x0 DUP4 ADD MSTORE PUSH2 0x1CA5 DUP2 PUSH2 0x1C69 JUMP JUMPDEST SWAP1 POP SWAP2 SWAP1 POP JUMP JUMPDEST PUSH32 0x566F74696E6720697320656E6465642E00000000000000000000000000000000 PUSH1 0x0 DUP3 ADD MSTORE POP JUMP JUMPDEST PUSH1 0x0 PUSH2 0x1CE2 PUSH1 0x10 DUP4 PUSH2 0x16EC JUMP JUMPDEST SWAP2 POP PUSH2 0x1CED DUP3 PUSH2 0x1CAC JUMP JUMPDEST PUSH1 0x20 DUP3 ADD SWAP1 POP SWAP2 SWAP1 POP JUMP JUMPDEST PUSH1 0x0 PUSH1 0x20 DUP3 ADD SWAP1 POP DUP2 DUP2 SUB PUSH1 0x0 DUP4 ADD MSTORE PUSH2 0x1D11 DUP2 PUSH2 0x1CD5 JUMP JUMPDEST SWAP1 POP SWAP2 SWAP1 POP JUMP JUMPDEST PUSH32 0x43616E64696461746520646F6573206E6F74206578697374206F6E2074686973 PUSH1 0x0 DUP3 ADD MSTORE PUSH32 0x20766F74696E6700000000000000000000000000000000000000000000000000 PUSH1 0x20 DUP3 ADD MSTORE POP JUMP JUMPDEST PUSH1 0x0 PUSH2 0x1D74 PUSH1 0x27 DUP4 PUSH2 0x16EC JUMP JUMPDEST SWAP2 POP PUSH2 0x1D7F DUP3 PUSH2 0x1D18 JUMP JUMPDEST PUSH1 0x40 DUP3 ADD SWAP1 POP SWAP2 SWAP1 POP JUMP JUMPDEST PUSH1 0x0 PUSH1 0x20 DUP3 ADD SWAP1 POP DUP2 DUP2 SUB PUSH1 0x0 DUP4 ADD MSTORE PUSH2 0x1DA3 DUP2 PUSH2 0x1D67 JUMP JUMPDEST SWAP1 POP SWAP2 SWAP1 POP JUMP INVALID LOG2 PUSH5 0x6970667358 0x22 SLT KECCAK256 SGT 0xF7 BYTE JUMPI 0xAB RETURNDATASIZE 0xCB 0xE2 0xD 0xC3 0xDD KECCAK256 SWAP14 0xB8 0xF8 PUSH24 0xA3C2053369A306131093FBD135F33DC64736F6C63430008 SLT STOP CALLER "
				},
				"gasEstimates": {
					"creation": {
						"codeDepositCost": "1529600",
						"executionCost": "infinite",
						"totalCost": "infinite"
					},
					"external": {
						"StartVoting(uint256)": "infinite",
						"WithdrowMyPrize(uint256)": "infinite",
						"addCandidate(uint256,address)": "31501",
						"addVoting(uint256,address[])": "infinite",
						"checkCandidate(uint256,address)": "3213",
						"commision()": "infinite",
						"counterVotings()": "2453",
						"deleteCandidate(uint256,address)": "31524",
						"editVotingPeriod(uint256,uint256)": "infinite",
						"getVotingInfo(uint256)": "infinite",
						"iAmVote(uint256,address)": "infinite",
						"maxCandidatesNum()": "2474",
						"ownerContract()": "2534",
						"setMaxCandidatesNum(uint256)": "24753",
						"startVoting(uint256)": "infinite"
					}
				},
				"methodIdentifiers": {
					"StartVoting(uint256)": "99fafb32",
					"WithdrowMyPrize(uint256)": "590e4e5a",
					"addCandidate(uint256,address)": "33c57ccd",
					"addVoting(uint256,address[])": "d6e20a65",
					"checkCandidate(uint256,address)": "8ab9b9d0",
					"commision()": "b95edbf9",
					"counterVotings()": "0f84af30",
					"deleteCandidate(uint256,address)": "1ae57ce3",
					"editVotingPeriod(uint256,uint256)": "178b519b",
					"getVotingInfo(uint256)": "248a0634",
					"iAmVote(uint256,address)": "ed742879",
					"maxCandidatesNum()": "870f0d74",
					"ownerContract()": "7f74ac15",
					"setMaxCandidatesNum(uint256)": "dab9d0fa",
					"startVoting(uint256)": "3d2f5bda"
				}
			},
			"storageLayout": {
				"storage": [
					{
						"astId": 4,
						"contract": "voting.sol:VotingContract",
						"label": "ownerContract",
						"offset": 0,
						"slot": "0",
						"type": "t_address"
					},
					{
						"astId": 6,
						"contract": "voting.sol:VotingContract",
						"label": "maxCandidatesNum",
						"offset": 0,
						"slot": "1",
						"type": "t_uint256"
					},
					{
						"astId": 8,
						"contract": "voting.sol:VotingContract",
						"label": "counterVotings",
						"offset": 0,
						"slot": "2",
						"type": "t_uint256"
					},
					{
						"astId": 36,
						"contract": "voting.sol:VotingContract",
						"label": "votings",
						"offset": 0,
						"slot": "3",
						"type": "t_mapping(t_uint256,t_struct(Voting)31_storage)"
					}
				],
				"types": {
					"t_address": {
						"encoding": "inplace",
						"label": "address",
						"numberOfBytes": "20"
					},
					"t_bool": {
						"encoding": "inplace",
						"label": "bool",
						"numberOfBytes": "1"
					},
					"t_mapping(t_address,t_struct(Candidate)13_storage)": {
						"encoding": "mapping",
						"key": "t_address",
						"label": "mapping(address => struct VotingContract.Candidate)",
						"numberOfBytes": "32",
						"value": "t_struct(Candidate)13_storage"
					},
					"t_mapping(t_uint256,t_struct(Voting)31_storage)": {
						"encoding": "mapping",
						"key": "t_uint256",
						"label": "mapping(uint256 => struct VotingContract.Voting)",
						"numberOfBytes": "32",
						"value": "t_struct(Voting)31_storage"
					},
					"t_struct(Candidate)13_storage": {
						"encoding": "inplace",
						"label": "struct VotingContract.Candidate",
						"members": [
							{
								"astId": 10,
								"contract": "voting.sol:VotingContract",
								"label": "valid",
								"offset": 0,
								"slot": "0",
								"type": "t_bool"
							},
							{
								"astId": 12,
								"contract": "voting.sol:VotingContract",
								"label": "votingBalance",
								"offset": 0,
								"slot": "1",
								"type": "t_uint256"
							}
						],
						"numberOfBytes": "64"
					},
					"t_struct(Voting)31_storage": {
						"encoding": "inplace",
						"label": "struct VotingContract.Voting",
						"members": [
							{
								"astId": 15,
								"contract": "voting.sol:VotingContract",
								"label": "isActive",
								"offset": 0,
								"slot": "0",
								"type": "t_bool"
							},
							{
								"astId": 17,
								"contract": "voting.sol:VotingContract",
								"label": "winner",
								"offset": 1,
								"slot": "0",
								"type": "t_address"
							},
							{
								"astId": 19,
								"contract": "voting.sol:VotingContract",
								"label": "startTimeStamp",
								"offset": 0,
								"slot": "1",
								"type": "t_uint256"
							},
							{
								"astId": 21,
								"contract": "voting.sol:VotingContract",
								"label": "period",
								"offset": 0,
								"slot": "2",
								"type": "t_uint256"
							},
							{
								"astId": 23,
								"contract": "voting.sol:VotingContract",
								"label": "winnerBalanceAtVotingClose",
								"offset": 0,
								"slot": "3",
								"type": "t_uint256"
							},
							{
								"astId": 25,
								"contract": "voting.sol:VotingContract",
								"label": "bankBalance",
								"offset": 0,
								"slot": "4",
								"type": "t_uint256"
							},
							{
								"astId": 30,
								"contract": "voting.sol:VotingContract",
								"label": "candidates",
								"offset": 0,
								"slot": "5",
								"type": "t_mapping(t_address,t_struct(Candidate)13_storage)"
							}
						],
						"numberOfBytes": "192"
					},
					"t_uint256": {
						"encoding": "inplace",
						"label": "uint256",
						"numberOfBytes": "32"
					}
				}
			},
			"userdoc": {
				"kind": "user",
				"methods": {},
				"version": 1
			}
		}
	}
}